:020000040800F2
:1000000078DF00202D030008992D0008392600080C
:10001000892A00080F070008553800080000000072
:10002000000000000000000000000000690200085D
:100030008D08000800000000C5020008092F000814
:100040004703000847030008470300084703000868
:100050004703000847030008470300084703000858
:100060004703000847030008470300084703000848
:10007000C507000847030008D10700084703000828
:10008000DD0700084703000847030008470300088E
:100090004703000847030008470300084703000818
:1000A0004703000847030008470300084703000808
:1000B00047030008470300084703000847030008F8
:1000C00047030008470300084703000847030008E8
:1000D00047030008470300083D3700086937000858
:1000E00047030008470300084703000847030008C8
:1000F00047030008F12F00084703000847030008E2
:1001000047030008470300084703000847030008A7
:100110004703000847030008E52F000847030008CD
:100120004703000847030008470300084703000887
:100130004703000847030008470300084703000877
:100140004703000847030008470300084703000867
:100150004703000847030008470300084703000857
:100160004703000847030008470300084703000847
:100170004703000847030008470300084703000837
:100180004703000847030008470300084703000827
:100190004703000847030008470300084703000817
:1001A0004703000847030008470300084703000807
:1001B00047030008470300084703000847030008F7
:1001C000470300084703000800F002F800F03CF87D
:1001D0000AA090E8000C82448344AAF10107DA45A2
:1001E00001D100F031F8AFF2090EBAE80F0013F0B8
:1001F000010F18BFFB1A43F0010318474C540000CD
:100200006C540000103A24BF78C878C1FAD852075D
:1002100024BF30C830C144BF04680C607047000080
:100220000023002400250026103A28BF78C1FBD8FF
:10023000520728BF30C148BF0B6070471FB505F09B
:10024000D9F91FBD10B510BD00F027FA1146FFF710
:10025000F5FF03F0C9FC00F045FA03B4FFF7F2FF25
:1002600003BC00F04DFA00002D4B19680868B0E897
:10027000F04F80F30988BFF36F8F4FF0000080F3D9
:10028000118870470000000008480068006880F38B
:1002900008884FF0000080F3148862B661B6BFF39F
:1002A0004F8FBFF36F8F00DF00BF00BF08ED00E08E
:1002B000DFF80C00016841F470010160704700BF75
:1002C00088ED00E0EFF30980BFF36F8F144B1A68DD
:1002D0001EF0100F08BF20ED108A20E9F04F1060CB
:1002E00009B44FF0500072B680F31188BFF34F8FFE
:1002F000BFF36F8F62B604F035FC4FF0000080F35F
:10030000118809BC19680868B0E8F04F1EF0100F9A
:1003100008BFB0EC108A80F30988BFF36F8F704775
:1003200014000020EFF30580704700000948804763
:1003300009480047FEE7FEE7FEE7FEE7FEE7FEE7C7
:10034000FEE7FEE7FEE7FEE704480549054A064BDF
:1003500070470000D52F0008C901000878D9002097
:1003600078DF002078DB002078DB002053EA020CE5
:1003700000F069802DE9F04B4FF00006002B1FBF05
:10038000B3FA83F503FA05F424FA05F65E4012BFCA
:100390001643B2FA82F502FA05F4C5F120051EBF34
:1003A00022FA05FC44EA0C04203556EA044C4FEAD4
:1003B000144418BF641C4FF000084FF0000990422D
:1003C00071EB030C39D3002919BFB1FA81F701FA97
:1003D00007F6B0FA80F700FA07F6C7F120071EBF4C
:1003E00020FA07FC46EA0C062037B6FBF4FCA7EB24
:1003F0000507103F07F01F0BCBF120060CFA0BFB93
:100400002CFA06F644BFB3460026202FA4BF5E4652
:100410004FF0000B5BEA060C08BF4FF0010B19EB25
:100420000B09ABFB027C48EB0608C01B06FB02CCA9
:100430000BFB03CC71EB0C01C1E70B4602464146B6
:100440004846BDE8F08B13B54FF000004FF00001B7
:10045000AFF30080BDE81C407047032A40F23080B3
:1004600010F0030C00F0158011F8013BBCF1020FF5
:10047000624498BF11F801CB00F8013B38BF11F876
:10048000013BA2F1040298BF00F801CB38BF00F88D
:10049000013B11F0030300F06780083AC0F00880C8
:1004A00051F8043B083A51F804CBA0E80810F5E7EE
:1004B000121D5CBF51F8043B40F8043BAFF30080D1
:1004C000D20724BF11F8013B11F801CB48BF11F846
:1004D000012B24BF00F8013B00F801CB48BF00F816
:1004E000012B7047431A28BF9A427FF6B6AF032A02
:1004F0001044114440F2268010F0030F1EBF11F883
:10050000013D521E00F8013D10F0030F7FF4F6AFDD
:1005100011F0030300F09780083AC0F00B8051F807
:10052000043D083A51F804CD40F8043D40F804CDAC
:10053000FFF7F3BF121D5CBF51F8043D40F8043DC6
:10054000AFF30080D20724BF11F8013D11F801CDAF
:1005500048BF11F8012C24BF00F8013D00F801CD7F
:1005600048BF00F8012C704710B5203AC0F00B804E
:10057000B1E81850203AA0E81850B1E81850A0E8A7
:100580001850BFF4F5AF5FEA027C24BFB1E8185001
:10059000A0E8185044BF18C918C0BDE810405FEA71
:1005A000827C24BF51F8043B40F8043B08BF7047ED
:1005B000D20728BF31F8023B48BF11F8012B28BFF2
:1005C00020F8023B48BF00F8012B70474FF00002B3
:1005D00000B5134694469646203922BFA0E80C5039
:1005E000A0E80C50B1F12001BFF4F7AF090728BF14
:1005F000A0E80C5048BF0CC05DF804EB890028BF90
:1006000040F8042B08BF704748BF20F8022B11F0B8
:10061000804F18BF00F8012B704770477047704734
:10062000431A28BF9A427FF69FAF104410F0030F81
:1006300011441EBF11F8013D521E00F8013D10F09B
:10064000030F7FF4F6AF103AC0F00A8010B531E91D
:100650001850103A20E91850BFF4F9AFBDE8104027
:10066000530724BF31E9081020E9081044BF51F8AE
:10067000043D40F8043D12F0030F08BF7047D20755
:1006800028BF31F8023D48BF11F8012C28BF20F8DF
:10069000023D48BF00F8012C7047754600F02CF869
:1006A000AE4605006946534620F00700854618B05F
:1006B00020B5FFF749FEBDE820404FF000064FF09F
:1006C00000074FF000084FF0000B21F00701AC4687
:1006D000ACE8C009ACE8C009ACE8C009ACE8C009A6
:1006E0008D46704710B50446AFF300802046BDE844
:1006F0001040FFF7B2BD00000048704718D9002035
:1007000001491820ABBEFEE7260002007047FEE755
:1007100008B504F0ABFD009003F0F0F81421684632
:1007200004F0E6F8F8E70000064906201CB50023AF
:100730004FF40072CDE90001094803A104F02CFD3B
:100740001CBD00000C010020436861737369735F76
:10075000436F6E74726F6C5F5461736B00000000C6
:10076000110700080B4800220B49D0ED031AC1ED18
:10077000011AD0ED021AC1ED021AD0ED051AC1ED31
:10078000031A80ED010AC0ED000A80ED041A0A7018
:10079000704700009CD80020F0000020074908485E
:1007A00091ED030A80ED010A91ED020A80ED020A43
:1007B00091ED050A80ED030A704700009CD80020E7
:1007C000F0000020014800F005B900008409002075
:1007D000014800F0FFB80000E4090020014800F0E3
:1007E000F9B800002409002001681823CAB2103AA1
:1007F000B2FBF3F2054B6FF30901032A9B5CC3655F
:1008000000D9091D81650846704700001C56000884
:1008100010B583694FF0C074826A0146002053B15D
:10082000B3F5005F15D072B1012A0CD0022A0AD0AC
:10083000032A09D104E01AB1012A06D0022A03D101
:10084000C96AC90100D5012010BDC96AA142FAD008
:1008500010BD002AF7D0012AF2D0022AF3D0032AD1
:10086000F3D010BD30B50468256825F480252560D7
:10087000046863608368402B036803D09960006854
:10088000C26030BD9A600068C16030BD7047000032
:10089000054810B501F03AFA03480068C16841F014
:1008A0000101C16010BD0000C807002010B50400A0
:1008B00012D004F0CDFC012808D04FF47A714C43DB
:1008C000B4FBF1F0BDE8104003F0EABF034800219B
:1008D00001800188A142FCD310BD0000A6000020C9
:1008E00072B6FEE7DFED0A0A0B489FED072ADFED3F
:1008F000071AB0EE601A9FED070A10B502F08EFAE3
:10090000BDE8104001F008BF000016C30000164308
:100910000000000066662640B4D600202DE9F041B4
:10092000876D044600F00CFB064694F83500002560
:10093000022806D080206065012084F83450BDE88C
:10094000F0812068016821F016010160206841698A
:1009500021F080014161206C08B9A06C20B12068B1
:10096000016821F0080101602068016821F001019F
:1009700001600CE000F0E4FA801B052807D9202173
:100980006165032084F8350084F83450D7E7206887
:100990000068C007EED194F85C203F200121904010
:1009A000B86084F83510002084F83450C7E790F818
:1009B0003510022903D080214165012070470521AF
:1009C00080F835100068016821F001010160002005
:1009D000704700002DE9F84304464FF00009644BCE
:1009E0000820CDF800904FF41652A56D94F85C10D5
:1009F0001B682E68B3FBF2F700FA01F131420FD009
:100A000021680A6852070BD50A6822F004020A60BE
:100A100094F85C108840A860606D40F0010060654B
:100A200094F85C104FF0010808FA01F0304208D049
:100A300021684969090604D5A860606D40F002008C
:100A4000606594F85C1004208840304208D021682A
:100A50000968890704D5A860606D40F004006065EE
:100A600094F85C1010208840304218D02168096842
:100A7000090714D5A86020680168490304D50068F7
:100A8000000308D5A16C07E00168C90503D401681B
:100A900021F008010160216C09B12046884794F8D3
:100AA0005C1020208840304231D021680968C90696
:100AB0002DD5A86094F8350005282068016806D077
:100AC000490347D5006800031DD4616C1CE021F088
:100AD000160101602068416921F080014161206CAC
:100AE00008B9A06C20B12068016821F008010160FC
:100AF00094F85C303F229A40AA6084F8358084F8EC
:100B00003490216D1FE0E16B09B120468847606D8C
:100B100000282BD0606DC00714D0052084F8350064
:100B20002068016821F0010101600098401C0090DC
:100B3000B84203D820680068C007F6D184F8358031
:100B400084F83490E16C002910D001B02046BDE853
:100B5000F04308470168C905D5D4036823F01003A2
:100B6000036084F8358084F83490CCE7BDE8F883DE
:100B7000100000202DE9F047044600F0E1F9064698
:100B80005CB10025022084F8350084F834502068D8
:100B9000016821F0010101600DE00120BDE8F0874E
:100BA00000F0CEF9801B052805D9202161650320BE
:100BB00084F83500F2E720680068C007F0D1D4E976
:100BC0000010D4E90232D4E9046C1843D4F8188038
:100BD00004F11C038946324309681043C8CB1D4AFF
:100BE00040EA0C0040EA0800114040EA030040EAF5
:100BF0000600042F40EA010003D1D4E90B1211438F
:100C00000843C9F800002068666A4069042E20F095
:100C1000070046EA00060CD1D4E90A01064341B1B7
:100C20002046FFF7F5FD20B14020606584F835507F
:100C3000B3E7206846612046FFF7D6FD94F85C30A4
:100C40003F21012299408160656584F835200020AC
:100C5000A4E700003F8010F02DE9F041044690F831
:100C6000340000250128A66D0ED094F835C0012768
:100C7000002084F83470BCF1010F07D0022584F8FD
:100C800034002846BDE8F0810220FBE7022784F803
:100C9000357060652046FFF7E5FD94F85C103F2055
:100CA0008840B0602068016841F01601016020684A
:100CB000416941F080014161206C20B120680168E8
:100CC00041F0080101602068016841F00101016004
:100CD000D7E7000070B5044600F032F90546601C05
:100CE00002D004480078044400F02AF9401BA042D6
:100CF000FAD370BD040000202DE9F84FDFF80CB2E4
:100D0000012403254FF00F0A00220BF1040E00BF4F
:100D10000B6804FA02F63340B34278D10F7907F03A
:100D20000307012F01D0022F1AD187684FEA420929
:100D3000D1F80CC005FA09F827EA08070CFA09FCF3
:100D40004CEA070CC0F808C0476891F804C0B743E4
:100D5000CCF3001C0CFA02FC4CEA070CC0F804C0EF
:100D60000E79F643B6070BD0C6684FEA420C8F687F
:100D700005FA0CF826EA080607FA0CF73743C760AD
:100D80000E7906F00306022E12D1D6084FEA4278F9
:100D900000EB860600960F69D6F820904FEAD866D9
:100DA0000AFA06FCB74029EA0C063743009E376270
:100DB0000F7906684FEA420C07F0030705FA0CF8B2
:100DC00007FA0CF726EA0806374307604E6816F460
:100DD000403F1CD04E4E376847F480473760366836
:100DE00022F00308970706F480460096494E3F0F0D
:100DF0004644B146D6F80868DFF81C810AFA07FCB9
:100E0000404526EA0C0603D14FF0000C41E076E0A5
:100E1000DFF808C1604502D14FF0010C39E0DFF87E
:100E200000C1604502D14FF0020C32E0DFF8F4C09F
:100E3000604502D14FF0030C2BE0DFF8ECC06045B9
:100E400002D14FF0040C24E0DFF8E0C0604502D18D
:100E50004FF0050C1DE0DFF8D8C0604502D14FF01F
:100E6000060C16E0DFF8CCC0604502D14FF0070C4D
:100E70000FE0DFF8C4C0604502D14FF0080C08E075
:100E8000DFF8B8C0604502D14FF0090C01E04FF027
:100E90000A0C0CFA07FC4CEA060CC9F808C84F68A3
:100EA000DBF80060FF0226EA030600D51E43774602
:100EB000CBF80060D1F804C0DEF800605FEA8C2C4B
:100EC00026EA030600D51E43DFF840C03E60ACF1C1
:100ED000040C4F68DCF80060BF0326EA030600D567
:100EE0001E430A4FCCF80060083FD1F804C03E68AA
:100EF0005FEACC3C26EA030600D51E433E60521C46
:100F0000102AFFF405AFBDE8F88F0000083C01404F
:100F1000443802400030014000000240000402401A
:100F200000080240000C0240001002400014024081
:100F300000180240001C0240002002400024024031
:100F40000148806870470000040000200248816862
:100F5000027811448160704704000020032010B51E
:100F600000F09EF80F2000F005F800F04FF8002088
:100F700010BD000030B505461F4887B0016841F438
:100F800080710160006806A900F48070009001A8DB
:100F900000F0E4FB0498B0B100F000FC4000174AF8
:100FA0000021174BB0FBF2F2164840F2E734036021
:100FB000C0E90341521EC0E90121816100F056FEE3
:100FC000040003D015E000F0E9FBE8E70D4800F06D
:100FD000DDFE04000DD12D2000F034F8102D07D2D5
:100FE000002229462D2000F03BF80748056000E06C
:100FF000012407B0204630BD4038024040420F0077
:1010000000200040440A0020080000200C4882B064
:10101000016841F080510160006800F0805000904C
:101020000748001D016841F480410160006800220A
:101030000F2100F480400090901E02B000F010B824
:1010400040380240002809DB410900F01F028900F6
:10105000012001F1E0219040C1F80001704700003B
:101060000E4BF0B41B680D46C3F30223C3F1070611
:10107000042E00D90426191D072901D2002300E0FF
:10108000DB1E012404FA06F19C40491E2940641E1F
:10109000994014402143F0BC02F0DDBB0CED00E0B0
:1010A000064900F0070210B54FF6FF040868044B2C
:1010B000204040EA02201843086010BD0CED00E01B
:1010C0000000FA051848F8B5016841F08051016048
:1010D0000068164C00F080500090206840F480308A
:1010E0002060FFF72DFF4FF47A76054605E000BF3C
:1010F000FFF726FF401BB0420FD86068C003F7D54A
:10110000206840F400302060FFF71AFF054606E033
:10111000FFF716FF401BB04201D90320F8BD6068FD
:101120008003F5D50020F8BD403802400070004033
:101130002DE9F84F04460078DFF824944FF00006BC
:101140003746C0070ED0D9F8001021F40001C9F8C5
:101150000010D9F80010626B1143C9F80010606BE1
:1011600000B90126FE4D2068843500030ED5E16BE1
:10117000286820F4401008432860E06BB0F5801F19
:1011800001D010B102E0012600E0012720684FF4F1
:10119000800BC0020CD5216C286820F44000084365
:1011A0002860206C584501D1012601E000B90127D3
:1011B0002068C10100D50126800666D5E848383090
:1011C000016841F0805101600068DFF898A300F0E9
:1011D00080500090DAF8001041F48071CAF80010D5
:1011E000FFF7AEFE804605E0FFF7AAFEA0EB080081
:1011F00064287DD8DAF80000C005F5D5DFF86083F3
:1012000008F16808D8F8000010F440702AD0218E48
:1012100001F44071814225D0D8F80010D8F80020A0
:1012200021F4407142F48032C8F80020D8F8002040
:1012300022F48032C8F80020C8F80010D8F8000066
:10124000C0070FD0FFF77CFE824607E0FFF778FE6D
:10125000A0EB0A0141F288308142CAD8D8F80000D8
:101260008007F3D5206BC0F3012103297ED0D9F884
:10127000001021F4F811C9F80010228ED8F80010DF
:10128000C2F30B021143C8F800102078C00607D53E
:10129000286820F0807028602868A16B08432860C7
:1012A0002188AF488830490405D5626E016821F471
:1012B0004031114301602188090405D5A26E0168FF
:1012C00021F44021114301602168C90305D5E26E74
:1012D000016821F44011114301602168890305D59B
:1012E000226F016821F4400111430160217800E080
:1012F00016E1490605D5626C016821F0030111432E
:1013000001602178090605D5A26C016821F00C0165
:10131000114301602188C90505D5E26C016821F0FF
:101320003001114301602188890505D5226D0168CE
:1013300021F0C001114301602188490505D5626D86
:10134000016821F44071114301602188090505D528
:10135000A26D016821F44061114301602188C90434
:1013600007D5E26D016821F4405100E04AE01143E5
:1013700001602188890405D5226E016821F440416D
:10138000114301602168490205D5A26F016821F06F
:1013900080611143016021684FF0006A890209D51C
:1013A000E26F016821F0006111430160E16F514576
:1013B00000D1012721680A0700D50127490305D577
:1013C000626F016821F040711143016021680902D8
:1013D00006D5D4F88020016821F0805111430160C6
:1013E000DFF88491012E02D0206880017ED5D9F8E3
:1013F00000004E4620F08060C9F80000FFF7A0FD15
:1014000080460FE0594AD9F80030104023F4F81212
:101410000243C9F8002030E7FFF792FDA0EB080077
:1014200064287DD830680001F6D421784C487C309F
:10143000C90712D0616B81B9237A62680168D0F85C
:1014400000C09201C1F3014142EA0142CCF30361C1
:1014500042EA016141EA0371016021680A0303D590
:10146000E26BB2F5801F04D0C9021AD5216C594530
:1014700017D16368016894F80CC002689B01C1F33E
:10148000014143EA0141C2F3027241EA0C6141EABF
:10149000027101602968626A21F01F01521E114326
:1014A00029602168C90110D5238A62680168D0F8D3
:1014B00000C09201C1F3036142EA034242EA0162C1
:1014C000CCF3027142EA01710160216889010CD5F7
:1014D0006168228A237B94F808C0890141EA0241AD
:1014E00041EA036141EA0C71016000E011E03168FA
:1014F000B04641F080613160FFF722FD064604E00E
:10150000FFF71EFD801B64280AD8D8F800000001F0
:10151000F6D56FB3D9F800004E4620F0805000E0B9
:101520007BE0C9F80000FFF70BFD074605E000BFB0
:10153000FFF706FDC01B64286FD83068C0438000E9
:10154000F6D50748216880300A0301D5E26B1AB14D
:10155000C90225D5216C19BB63690168277E08E0A3
:10156000083802400070004000380240FFFCFF0FC6
:101570005AE00268C1F301419B0143EA0143C2F30F
:10158000027143EA076242EA0171016029686FF063
:10159000FF03A26A21F4F85103EB022211432960F0
:1015A0002168890212D5E16F51450FD1238C626900
:1015B000016807689201C1F3036142EA034242EA0B
:1015C0000162C7F3027142EA0171016021780907E3
:1015D00016D561690268D0F800C08B01277FC2F37D
:1015E0000362CCF3014143EA014141EA026141EA6D
:1015F000077101602868E16A20F4403008432860E0
:10160000306840F080503060FFF79AFC044607E0F5
:10161000FFF796FC001B642802D90320BDE8F88F71
:101620003068C0438000F3D40020F7E72DE9F0478D
:1016300005000F4663D0444E306800F00F00B842FA
:1016400009D2306820F00F0038433060306800F075
:101650000F00B84253D128683C4C810712D540078F
:1016600003D5206840F4E05020602878000703D5B7
:10167000206840F460402060A968206820F0F000F5
:10168000084320602878C0072AD0304968680839A4
:10169000012810D00968022810D0890700292EDA05
:1016A000216821F0030101432160FFF749FC8046D6
:1016B00041F288390DE009688903EFE78901EDE718
:1016C000FFF73EFCA0EB0801494502D90320BDE825
:1016D000F0876868216801F00C01B1EB800FEFD151
:1016E000306800F00F00B8420BD9306820F00F00CE
:1016F00038433060306800F00F00B84201D001205C
:10170000E5E72878400705D5E968206820F4E0502F
:10171000084320602878000706D52869216821F44D
:10172000604141EAC000206000F058F82168084A92
:10173000C1F30311515CC8400649086006480068BF
:10174000FFF718FC0020C2E7003C024008380240C6
:101750002456000810000020080000200D4A0F2326
:1017600030B503604FF4E0540B4B156805F00305EA
:101770004560156805F0F0058560156805F4E055CD
:10178000C560126804EAD2020261186800F00F0016
:10179000086030BD08380240003C0240044905485A
:1017A00009680068044AC1F38221515CC84070474F
:1017B000083802401000002034560008044905484B
:1017C00009680068044AC1F34231515CC84070475F
:1017D000083802401000002034560008154910B5A2
:1017E0001548096811F00C0213D04110042A0FD0DB
:1017F000082A0ED10F4C241F2268236802F03F02F2
:101800005B0207D52068C0F38810A0FB010106E049
:10181000084610BD2168C1F38811A1FB0001002317
:10182000FEF7A4FD2168C1F30141491C4900B0FB4A
:10183000F1F010BD083802400024F4002DE9F84F03
:1018400004004FF000076ED02078DFF868A3AAF1FB
:101850000408C007A8F104054CD0DAF8001050467F
:10186000C1F38101012908D00068C0F3810002287A
:101870000AD1D8F80000400206D52868800339D57F
:1018800060680028DFD035E06068B0F5803F0BD09D
:1018900010B1B0F5A02F11D0286820F48030286056
:1018A000286820F4802002E0286840F48030286016
:1018B000606890B1FFF744FB06460AE0286840F4F0
:1018C00080202860F0E700BFFFF73AFB801B642808
:1018D00072D828688003F7D50CE0FFF731FB064685
:1018E00005E000BFFFF72CFB801B6428F0D82868B8
:1018F0008003F7D42078800742D5DAF800105046EC
:1019000011F00C0F08D00068C0F3810002280BD141
:10191000D8F80000400207D42868800718D5E0688E
:10192000012800D114E041E1E0680028286817D0C0
:1019300040F001002860FFF703FB064605E000BF0A
:10194000FFF7FEFA801B0228C2D828688007F7D567
:101950002069296821F0F80141EAC00028600FE001
:1019600020F001002860FFF7EBFA064605E000BF13
:10197000FFF7E6FA801B02281ED828688007F7D4F4
:101980002078000729D58B4861696C300029814691
:10199000016812D041F001010160FFF7D1FA06465B
:1019A00005E000BFFFF7CCFA801B022804D8D9F865
:1019B00000008007F6D510E089E021F00101016008
:1019C000FFF7BEFA064604E0FFF7BAFA801B0228CA
:1019D0007DD8D9F800008007F6D4207840076BD571
:1019E000DFF8D09109F13809D9F80000C0000BD414
:1019F000D9F8001041F08051C9F80010D9F8000062
:101A0000012700F0805000906B480168C90512D48E
:101A10000168834641F480710160FFF791FA064640
:101A200005E000BFFFF78CFA801B64284FD8DBF875
:101A30000000C005F6D55F4EA068683601280AD0C0
:101A400008B1052811D0306820F0010030603068FE
:101A500020F0040002E0306840F001003060A0682F
:101A6000A0B1FFF76DFA83460CE0306840F0040047
:101A70003060F0E7FFF764FAA0EB0B0141F2883029
:101A8000814266D830688007F4D50EE0FFF758FA37
:101A9000834607E0FFF754FAA0EB0B0141F28830D0
:101AA000814256D830688007F4D42FB1D9F800109D
:101AB00021F08051C9F80010A069C8B3DAF800100D
:101AC000C1F3810102294BD00228286800E040E0E0
:101AD00020F08070286003D0FFF732FA04463BE024
:101AE000FFF72EFA064604E0FFF72AFA801B0228C9
:101AF0002FD828688001F7D4D4E90962D4E9070116
:101B00002E4B570894F82C20084303EB074343EA75
:101B10008611084340EA026040F00050C8F8000017
:101B2000286840F080702860FFF70AFA044606E053
:101B30003EE000BFFFF704FA001B022809D828681E
:101B40008001F7D534E000BFFFF7FAF9001B022847
:101B500002D90320BDE8F88F28688001F4D427E07B
:101B60000128D8F8000021D0E16900F480028A42FF
:101B70001CD1216A00F03F028A4217D1626A47F6FF
:101B8000C0710140B1EB821F10D1A16A4FF0FF324A
:101B900000F4403302EB5101B3EB014F06D194F84E
:101BA0002C1000F07060B0EB016F01D00120D1E784
:101BB0000020CFE708380240007000400000FFFF1F
:101BC0007047704770470000F0B590F83C20012A3C
:101BD0003BD01F4E012480F83C40022280F83D207B
:101BE00002681C4D5368B242D2F808C001D0AA4224
:101BF00003D14F6823F470033B430F6823F0700355
:101C00001F4357600268B24213D0B2F1804F10D028
:101C1000114B9A420DD0114B9A420AD0104B9A4266
:101C200007D0AA4205D00F4B9A4202D00E4B9A42DF
:101C300004D189682CF0800319439160002180F859
:101C40003D4080F83C100846F0BD0220F0BD000089
:101C50000000014000040140000400400008004072
:101C6000000C0040004001400018004010B5040086
:101C700003D094F83D0010B107E0012010BD002012
:101C800084F83C00204600F023F8022084F83D0050
:101C90002068211D01F0B2F9012084F8480084F881
:101CA0003E0084F83F0084F8400084F8410084F846
:101CB000420084F8430084F8440084F8450084F826
:101CC000460084F8470084F83D00002010BD000065
:101CD00008B500680B49884212D10B48016841F0F1
:101CE0001001016000680022012100F01000009046
:101CF0003620FFF7B5F9BDE808403620FFF7A2B956
:101D000008BD0000001000404038024090F83D102F
:101D1000012901D001207047144B0222016880F88C
:101D20003D20994214D0B1F1804F11D0104881422A
:101D30000ED0104881420BD00F48814208D00F4886
:101D4000814205D00E48814202D00E48814207D11F
:101D500088680D4A1040062806D0B0F5803F03D0B1
:101D6000086840F001000860002070470000014052
:101D70000004004000080040000C00400004014046
:101D800000400140001800400700010090F83D109D
:101D9000012901D001207047174A022180F83D1027
:101DA0000168CB6843F00103CB600068904214D017
:101DB000B0F1804F11D0114988420ED010498842AD
:101DC0000BD01049884208D00F49884205D00F49EE
:101DD000884202D00E49884207D181680D4A1140DD
:101DE000062906D0B1F5803F03D0016841F001011A
:101DF0000160002070470000000001400004004026
:101E000000080040000C0040000401400040014078
:101E1000001800400700010070472DE9F04104461A
:101E200000680027C6680569A90713D5B10711D551
:101E3000FA1E02610121217720688069800720460F
:101E400002D0FFF7E9FF04E000F08BF8204600F035
:101E500089F82777680716D5700714D522680220FD
:101E60006FF00401116120772068806910F4407FD1
:101E7000204602D0FFF7D0FF04E000F072F82046C1
:101E800000F070F82777280715D5300713D522689A
:101E900004206FF00801116120772068C069800775
:101EA000204602D0FFF7B8FF04E000F05AF82046C1
:101EB00000F058F82777E80616D5F00614D5226802
:101EC00008206FF01001116120772068C06910F4BC
:101ED000407F204602D0FFF79FFF04E000F041F86A
:101EE000204600F03FF82777E80708D0F00706D033
:101EF00021686FF001000861204600F035F82806DF
:101F000001D4A80408D5300606D521686FF4025024
:101F100008612046FFF755FEE80508D5300606D5CE
:101F200021686FF4807008612046FFF749FE68065B
:101F300008D5700606D521686FF04000086120467C
:101F400000F02AF8A8060AD5B00608D521686FF077
:101F5000200008612046BDE8F041FFF733BEBDE830
:101F6000F08170477047000010B5084904460068CA
:101F7000884201D1FEF7EAFF05492068884203D173
:101F800004480188491C018010BD00000020004069
:101F900000100040A6000020704710B50446D0F89D
:101FA0008000202801D0022010BD61B15AB1012368
:101FB000236600206066204601F026FB0028F3D14E
:101FC000216E012901D0012010BD2268102111626B
:101FD000226852E8001F41F0100142E80013002B74
:101FE000F6D110BD0068034A904202D1084600F0C5
:101FF000BFBE704700480040704700002DE9F04127
:1020000002680025044640F60F070226D0691168D1
:102010009368384205D183067ED58B067CD5A16EA8
:1020200024E1DFF878C203F0010701EA0C0C57EA5B
:102030000C0C71D05FEAC07C0CD05FEAC15C09D5A2
:102040004FF0010CC2F820C0D4F8842042F0010205
:10205000C4F88420820709D5DA0707D022681662FF
:10206000D4F8842042F00402C4F8842042070AD540
:10207000DA0708D0236804221A62D4F8842042F0D8
:102080000202C4F8842002070CD501F020023A4372
:1020900008D0236808221A62D4F8842042F008028B
:1020A000C4F8842002050BD54A0109D523684FF4F2
:1020B00000621A62D4F8842042F02002C4F884201E
:1020C000D4F88420002A36D0800605D5880603D5AA
:1020D000A16E09B1204688472168D4F88400896838
:1020E000490602D410F0280F27D0204601F041F90C
:1020F0002068806840061BD52068083050E8001F23
:1021000021F0400140E80012002AF5D1606F78B15B
:1021100063490165606F00E015E0FEF748FC0028A8
:1021200009D0606F016D00E02046BDE8F04108472E
:102130002046FFF761FFBDE8F0812046FFF75CFF16
:10214000C4F88450F7E7276E2023012F7ED1C706FD
:102150007CD5CF067AD510201062206880684006B2
:102160004FD5626FDF00106840680004000C3CD05F
:10217000B4F85810814238D9A4F85A00D069B8424E
:102180002BD0216851E8000F20F4807041E8000254
:10219000002AF6D12068083050E8001F21F0010124
:1021A00040E80012002AF5D12068083050E8001FEE
:1021B00021F0400140E80012002AF5D1C4F8803037
:1021C0002566216851E8000F20F0100041E8000268
:1021D000002AF6D1606FFEF7A1FB6666B4F85800DE
:1021E000B4F85A10401A81B207E0B4F8581081428E
:1021F000A1D1D069B8429ED166662046FFF7F2FEB3
:1022000099E7B4F85800B4F85A10B4F85A20401AB4
:1022100081B2002A8FD000298DD0226852E8000FA9
:1022200020F4907042E80007002FF6D1206800F1FA
:10223000080050E8002F22F0010240E80027002F9C
:10224000F4D1C4F880302566A56600E009E0206876
:1022500050E8002F22F0100240E80023002BF4D1B8
:10226000CAE7020606D50A0604D5E16E00297FF406
:102270005BAF60E74006C3D54806C1D5204601687C
:1022800051E8002F22F0400241E80024002CF6D152
:10229000C367C56600F0CEF94DE7000020010004D9
:1022A000F331000810B5040002D0E06F10B107E070
:1022B000012010BD002084F87800204600F026F8A8
:1022C0002420E0672068016821F001010160606A54
:1022D00010B1204600F0FCFE204601F07DF80128F8
:1022E000E7D02068416821F490414160206881680E
:1022F00021F02A0181602068016841F0010101603C
:102300002046BDE8104000F047BF00002DE9F04F27
:10231000A7B00646142121A8FEF758F98421684683
:10232000FEF754F95F4F00245F494FF4807B30681B
:10233000103F5C4D4FF0020888424FF003094FF008
:10234000070A41D18020129400906846FEF7F0FE03
:1023500008B1FEF7C5FA286840F400302860286804
:1023600000F400302690386840F008003860386883
:10237000602321A900F00800CDE925A0CDE921388E
:102380004A48CDE92349FEF7B7FC494D4FF00060BC
:10239000484B41142B60C312C5E90104C5E9034150
:1023A0006C612846C5E9064BC5E90834FEF7E2FB37
:1023B00008B1FEF795FA756700220521AE63262065
:1023C000FEF74EFE262067E03B49884266D168460C
:1023D000CDF800B01394FEF7ABFE08B1FEF780FA1B
:1023E000286840F480202860286800F48020269027
:1023F000386840F00400386038684FF4406321A921
:1024000000F00400CDE925A0CDE921382B48CDE925
:102410002349FEF771FC264D4FF48068254A4FF0A2
:1024200000676035603A28464FF4803A2A60C5E973
:102430000174C5E903486C61AC61C5E9074A6C6287
:10244000FEF798FB08B1FEF74BFADFF864904023E3
:10245000756709F1C009AE6309F10801154A4846DC
:10246000303A81E81801C9F81440C9F81840C0E9A9
:102470000027C9E9074AC9F82440FEF77BFB08B1E9
:10248000FEF72EFAC6F8709000220521C9F83860D0
:102490002720FEF7E5FD2720FEF7D4FD27B0BDE895
:1024A000F08F00004038024000440040000C024021
:1024B00024090020886002400048004000080240D3
:1024C00030B4D0F88030202B02D0022030BC7047CE
:1024D00091B18AB10023036603685B681B0208D5CB
:1024E000046854E8003F43F0806344E80035002D61
:1024F000F6D130BC01F088B80120E7E7704770479B
:102500002DE9F8430446C06F984616460D4620282C
:1025100002D00220BDE8F88395B18EB10021C4F845
:1025200084102120E067FEF70BFD8146A068A4F827
:102530005060A4F852602027B0F5805F02D003E01D
:102540000120E7E7206910B12E46002510E00026A3
:102550000EE08021204601F0A7F8C0B9D6B116F8E8
:10256000010B21688862B4F85200401EA4F85200A2
:10257000B4F852004B464FF00002CDF8008000281E
:10258000E7D14FF04001204601F08EF840B1E767F7
:102590000320BFE735F8020B2168C0F30800E1E72C
:1025A000E7670020B6E7000070B50446C06F20283A
:1025B00001D0022070BD29B322B3206F0023E16453
:1025C0002125A4F85020A4F85220C4F88430E567EF
:1025D000D0B11549C163216F14480864216F1448B4
:1025E000C864206F036513462068256F00F1280238
:1025F000E16C2846FEF730FB30B11021C4F884109E
:102600002020E067012070BD21684020086220681A
:10261000083050E8001F41F0800140E80012002A15
:10262000F5D1002070BD000029330008693300088F
:102630000332000870477047FEE7000030482DE97C
:10264000F04100682D4C4068C0F5007085B244E050
:10265000002000F0F9FB552844D1012000F0F4FBE4
:1026600053283FD100273E46B0B200F0EDFB761C68
:1026700038440A2EC7B2F7DB0A2000F0E5FBB84267
:1026800030D1062000F0E0FB0646072000F0DCFB1E
:1026900046EA00201E4900B200EE100A9FED192AFA
:1026A000DFED192AB8EEC00ADFED181A9FED191AEE
:1026B000D1ED020A20EE020A20EE220A20EE210AC3
:1026C00000EE810A81ED020A2078C0432070608804
:1026D00010F10B00C0F3080060806088854204D3CD
:1026E000281A05E06088401CF4E7C0F5007148191D
:1026F00080B20B28ACD2BDE8F08100008800002039
:102700002409002000000038000034436666663F5C
:10271000A8D40020CDCCCC3D0D4A002110B50B4CE7
:1027200008205180102122681062206801624A014D
:1027300008492046FFF7C4FE08B1FEF7D1F820682B
:10274000816841F00101816010BD00001408002083
:1027500088000020B4D4002008B502F087FD009066
:10276000FFF76CFF1421684602F0C2F8F8E700009A
:10277000064905201CB500234FF48072CDE9000105
:10278000064803A102F008FD1CBD00001C0100204A
:10279000494D555F5461736B0000000059270008D4
:1027A00010B5FEF775F8FEF79DF800F003FA01F09A
:1027B000BBF908490020487001F030FAFDF7B4FF7A
:1027C000FFF7D6FF00F016F9BDE81040002002F038
:1027D000DBB80000AE000020064906201CB500232F
:1027E0004FF48072CDE90001064803A102F0D4FC49
:1027F0001CBD000014010020496E69745F546173B0
:102800006B000000A1270008114808B5016841F4D9
:102810000011016000680022052100F40010009002
:102820000C20FEF71DFC0C20FEF70CFC00220521FD
:102830000E20FEF715FC0E20FEF704FC00220221FC
:102840001020FEF70DFCBDE808401020FEF7FABB93
:102850003038024000B587B007491C226846FDF7B2
:1028600083FE0021684601F02FFA0449086000F059
:1028700033FB07B000BD0000005600080000002038
:10288000114808B5016841F080010160016801F05C
:1028900080010091016841F001010160016801F0CF
:1028A00001010091016841F004010160016801F03B
:1028B00004010091016841F008010160006800F026
:1028C0000800009008BD0000303802403EB51048B6
:1028D0000024632240F28333009480210194029407
:1028E00081610A4DC0E90242C0E90053FFF7BEF919
:1028F00008B1FDF7F5FF0648694600940294FFF71A
:1029000063F9002801D0FDF7EBFF3EBD0010004049
:10291000C80700200D48002110B50B4C0C224FF4C5
:10292000E1330460C0E90131C160C0E90412816192
:10293000C16101624162FFF7B5FC002803D0BDE828
:102940001040FDF7CDBF10BD00440040140800202A
:102950000D48002110B50B4C0C224FF4E1330460FC
:10296000C0E90131C160C0E904128161C161016245
:102970004162FFF797FC002803D0BDE81040FDF747
:10298000AFBF10BD004800409C0800202DED048B17
:102990004FF4967001F084FFFDF700FF4FF47A7456
:1029A000204601F07DFF9FED108ADFED108A9FED3C
:1029B000109A00BFB0EE481AF0EE480AB0EE680A6E
:1029C00000F036F8322001F06BFFB0EE481AF0EE5E
:1029D000480AB0EE490A00F02BF8322001F060FFFF
:1029E000204601F05DFFE5E7000000000000FA432B
:1029F0000000FAC3094905201CB500234FF40072FA
:102A0000CDE90001094806A102F0C6FB012803D068
:102A1000BDE81C40FDF764BF1CBD0000180100208C
:102A20004D61696E5F5461736B0000008D29000871
:102A300070B5FDF797FE3C2001F032FF41F288357A
:102A400002F014FC0E4E044611E000BF02F00EFC32
:102A5000001BA84208D39FED0B0AB0EE401AF0EE1F
:102A6000400A00F06DF905E00A2001F019FF307806
:102A70000128EBD1BDE87040322001F011BF000009
:102A8000F000002000000000FEE7000070B51446D2
:102A90000D46064601F022FE214BB5EE000A03F179
:102AA000080093ED011AD0ED011A00F1080100F1C0
:102AB000100231EE611A91ED012AD2ED010A31EED8
:102AC000421A71EE200A60EE800AC6ED000A93ED0C
:102AD000011AD0ED011AD1ED010A92ED012A31EE71
:102AE000211A71EE600A70EEC20A60EE800AC5ED2E
:102AF000000AD3ED011A90ED012AD1ED010A92ED01
:102B0000011A71EE821A71EEA00A70EE810A20EEAF
:102B1000800A84ED000ABDE8704001F003BE0000A9
:102B2000D000002010B52DED048BF0EE418AB0EE00
:102B3000609AB0EE408A01F0D1FD78EE890A38EE55
:102B4000C90A10489FED0E1A30EE882A70EE481A16
:102B500070EEC80A80ED002A083021EE811AC0ED1F
:102B6000000A083030EE080A80ED001A083080EDC7
:102B7000000ABDEC048BBDE8104001F0D3BD00009D
:102B80003333733FD000002070B5084D04462888C9
:102B9000844201D3002006E0021B05480119FDF71D
:102BA000A1FC2888001B288070BD0000AC0000201C
:102BB0009CD700200F4B9FED0E0A03F1080083ED18
:102BC000000A83ED010A80ED000A80ED010A00F1A0
:102BD000080100F11002094881ED000A81ED010AA7
:102BE00082ED000A82ED010A03498022FFF7D5B980
:102BF00000000000D0000020E0D600209C0800204B
:102C0000D0F8031082799FED201A09BA8378DFED9E
:102C10001F0A21F0FF0141EA020100EE101A012B08
:102C2000B8EE400A20EE011A81EE200A01D1B1EE81
:102C3000400A0178164801290DD0022913D0032932
:102C40001AD0042917D100F13A0181ED010A417827
:102C500041F008010EE00E49223181ED010A417870
:102C600041F0010106E00A492A3181ED010A41786B
:102C700041F00201417070470549323181ED010A8E
:102C8000417841F00401F5E70000B44300FF7F47BD
:102C9000AE000020FFB52248F62501246B46C82669
:102CA0004168009181680191016902910021C06829
:102CB0006B2703904A1C012A15D0022A16D0032A3A
:102CC00019D0042A1AD0002053F8211000280A70C5
:102CD0004D7016DD4FF0000C81F802C04FEA102E47
:102CE00081F803E013E0BDEEC02A01E0BDEEE02A6A
:102CF00012EE100AE8E7BDEEC12AF9E7BDEEE12ABF
:102D0000F6E740428C704FEA102C81F803C008713E
:102D10004E718C71CF71D1B20429CBD3FFBD0000AD
:102D2000AC00002008B536216B228DF80000684603
:102D30008DF8011003218DF8022001F049FC08BD37
:102D400010B5FFF7EFFE0948D0ED001A083890EDF6
:102D5000001A0838D0ED000A083890ED000AFFF795
:102D600099FFBDE8104000F08DB80000E800002099
:102D7000411E7F2910B503D8C1B2054800F0FAFC06
:102D8000BDE81040024980220248FFF706B9000062
:102D9000E0D600209C080020FEE770EE600AD0ED2F
:102DA000031A90ED041A31EEA00A80ED030AB4EE86
:102DB000C10AF1EE10FA06DCB1EE411AB4EEC10A16
:102DC000F1EE10FA01D280ED031A90ED010A90EDB8
:102DD000033A90ED002AD0ED072A20EE030AD0ED49
:102DE000021A70EEE22A90ED061A02EE200AC0EDF9
:102DF000070A01EEA20AB4EEC01AF1EE10FA02D2EE
:102E0000B0EE410A7047D0ED050AF4EEC00AF1EECB
:102E100010FAF7DDB0EE600A704700009FED093A46
:102E2000C0ED061ADFED062A80ED052A80ED043A92
:102E3000C0ED032AC0ED072A80EC030A70470000AA
:102E4000000000000000C8420349498808440349C3
:102E5000C0F30800085C704788000020B4D400204C
:102E600008B50020FF218DF8000066228DF80110C2
:102E70006B238DF80220042168468DF8033001F0A1
:102E8000A7FB08BD0B48082110B501F0A1FB0948BC
:102E900008210F3001F09CFB064808212D3001F07D
:102EA00097FB044808211E3001F092FBBDE810405A
:102EB000FFF7D6BF60D70020012000F0F9FEFBE746
:102EC00010B501F00BFCFFF787FC01F02BFCBDE80F
:102ED0001040002001F058BD064905201CB5002314
:102EE0004FF40072CDE90001064803A102F054F945
:102EF0001CBD00001001002053746172745F746186
:102F0000736B0000C12E0008502010B572B680F31C
:102F10001188BFF34F8FBFF36F8F62B602F0ACF929
:102F200018B104494FF080500860002080F31188E8
:102F300010BD000004ED00E030B593B030216846CC
:102F4000FDF744FB14210CA8FDF740FB1F48016866
:102F500041F080510160006800F0805011901C48E1
:102F6000016841F440410160006802240423089391
:102F700000F4404011900120D82582050104CDE9DC
:102F80000642CDE909540B94CDE900016846FEF7ED
:102F900055FC08B172B6FEE7FEF794F808B172B6B8
:102FA000FEE70EAD00214FF4A0524FF4805385E8A8
:102FB0000E000F20CDE90C0407210CA8FEF736FB0C
:102FC000002801D072B6FEE713B030BD4038024091
:102FD000007000400248016841F4700101607047D0
:102FE00088ED00E00148FEF718BF0000C807002088
:102FF0000148FEF712BF0000440A0020F0B5294B3B
:103000004FF0804E284D02689842284E284F294C98
:1030100009D0704507D0A84205D0B04203D0B842CD
:1030200001D0A04205D1D1F804C022F070024CEAD0
:10303000020298421BD0704519D0A84217D0B04266
:1030400015D0B84213D0A04211D01B4DA8420ED0CB
:103050001A4DA8420BD01A4DA84208D0194DA842CB
:1030600005D0194DA84202D0184DA84203D1CD6811
:1030700022F440722A438E684D6922F08002C662B3
:103080000E682A439842866201D0A04201D10969A4
:1030900001630368012143F004030360416102609E
:1030A000F0BD0000000001400004004000080040A6
:1030B000000C004000040140004001400044014079
:1030C0000048014000180040001C00400020004063
:1030D00090F82410090706D50168436B4A6822F46A
:1030E00000421A434A6090F82410C90706D00168CC
:1030F000836A4A6822F400321A434A6090F8241026
:10310000890706D50168C36A4A6822F480321A43E7
:103110004A6090F82410490706D50168036B4A6895
:1031200022F480221A434A6090F82410C90606D57A
:103130000168836B8A6822F480521A438A6090F88F
:103140002410890606D50168C36B8A6822F40052F0
:103150001A438A6090F82410490611D50168036C5F
:103160004A6822F480121A434A60016CB1F5801F4C
:1031700006D10168436C4A6822F4C0021A434A60CF
:1031800090F82410090606D50168826C486820F47E
:103190000020104348607047F8B500260446C0F888
:1031A0008460FDF7CDFE03462068202500680007F7
:1031B00016D56FF07E40009000222046290400F0D2
:1031C00073FA68B1216851E8000F20F0800041E8EF
:1031D0000002002AF6D1E567032084F87860F8BD84
:1031E000E567C4F8805026666666002084F878603B
:1031F000F8BD10B5806B0021A0F85A10FEF7FCFE58
:1032000010BD70B5846B00252168E06FD4F8806034
:103210008968090606D5212804D1A4F85250204611
:1032200000F0CDF820688068400606D5222E04D133
:10323000A4F85A50204600F09CF8D4F8840040F0DE
:103240001000C4F884002046FEF7D6FE70BD70B5AD
:10325000C36900220146806BB3F5807F2DD0A0F8B2
:103260005A20036853E8004F24F4807443E8004573
:10327000002DF6D10368083353E8004F24F0010411
:1032800043E80045002DF5D10368083353E8004FAB
:1032900024F0400443E80045002DF5D12023C0F878
:1032A0008030036E012B08D1046854E8003F23F0FE
:1032B000100344E80035002DF6D14266036E012B61
:1032C00002D0FFF71BF970BDA0F85A200968B0F8CA
:1032D0005820496889B28A4201D9A0F85A10B0F83A
:1032E0005A10511A89B2FEF77DFE70BD10B5024624
:1032F000806B01214166016E012902D0FFF7FFF8C2
:1033000010BDB0F858104B08A0F85A301268526837
:1033100092B2914201D3A0F85A20B0F85A20891AEB
:1033200089B2FEF75FFE10BD10B5C169806BB1F5C3
:10333000807F16D00021A0F852100168083151E8B2
:10334000002F22F0800241E80023002BF5D1026813
:1033500052E8001F41F0400142E80013002BF6D173
:1033600010BDFFF767F910BD10B5806BFFF763F96B
:1033700010BD016851E8002F22F4907241E800234B
:10338000002BF6D10168083151E8002F22F001022C
:1033900041E80023002BF5D1016E012908D1026814
:1033A00052E8001F21F0100142E80013002BF6D173
:1033B00000212022C0F880200166816670470268E3
:1033C00052E8001F21F0C00142E80013002BF6D1A3
:1033D0002021C167704700002DE9F04104460368D1
:1033E000C2698168D4E90450DFF8F0C17C4E2943FA
:1033F0001F68002510437B4A014307EA0C070F436F
:103400001F604FF400402168E7684B6823F4405385
:103410003B434B602768A369216AD7F808C019436A
:103420002CF430630B43BB602168B1420AD11168B0
:1034300011F0030152D001297CD0022971D0032957
:103440006ED184E0684B99420AD1116811F00C01E9
:1034500067D0042965D0082975D00C2960D176E0A1
:10346000624B99420AD1116811F0300159D01029EC
:103470006BD0202967D0302952D168E05C4B99424B
:103480000AD1116811F0C0014BD040295DD08029CC
:1034900059D0C02944D15AE0564B99420DD11168F8
:1034A00011F440713DD0B1F5807F4ED0B1F5007F71
:1034B00049D0B1F5407F33D149E04F4B99420FD10C
:1034C000116811F4406109D0B1F5806F3DD0B1F5BC
:1034D000006F38D0B1F5406F22D138E0012120E0F3
:1034E000464B99420DD1116811F4405119D0B1F5F4
:1034F000805F2AD0B1F5005F25D0B1F5405F0FD1D4
:1035000025E03F4B99420BD1116811F4404108D09E
:10351000B1F5804F19D0814215D0B1F5404F16D08A
:103520001021E369374A4FF6EF7683422ED10929FD
:1035300049D201E009E006E0DFE801F00B0E114599
:103540001345454516000221EBE70421E9E7082170
:10355000E7E7FEF723F906E0FEF730F903E010464F
:1035600002E0FEF73BF978B36168400000EB5100E0
:10357000B0FBF1F0A0F11001B14224D84FF6F07386
:103580002168C0F342021840104320E009291AD2F2
:10359000DFE801F005080B190D1919191000FEF7E5
:1035A000FDF806E0FEF70AF903E0104602E0FEF738
:1035B00015F948B1616800EB5100B0FBF1F0A0F1E2
:1035C0001001B14201D9012502E0216880B2C86032
:1035D0000020A066E0662846BDE8F081F369FFEFB1
:1035E0000010014090380240004400400048004074
:1035F000004C0040005000400014014000780040A2
:10360000007C00400024F40070B50446406F0023A5
:1036100022256165A4F85820C4F88430C4F880508D
:10362000D0B11E49C163616F1D480864616F1D48B8
:10363000C864606F03651346656D2168606F2A4634
:103640002431FDF709FB38B11021C4F88410202083
:10365000C4F88000012070BD206940B1216851E8A4
:10366000000F40F4807041E80002002AF6D1206883
:10367000083050E8001F41F0010140E80012002A24
:10368000F5D12068083050E8001F41F0400140E8C3
:103690000012002AF5D1002070BD00004F32000852
:1036A000ED320008033200082DE9F047994617462D
:1036B0000D460446089E4FF0000833E0701C31D0E0
:1036C000FDF73EFCA0EB0900B04218D8BEB120685F
:1036D0000168490726D5802D24D0402D22D0C1690C
:1036E000C94309070DD4082505622046FFF741FEAE
:1036F000C4F88450012084F87880BDE8F087032066
:10370000FBE7C069C04300050CD421684FF400609A
:1037100008622046FFF72DFE2021C4F8841084F8AB
:103720007880ECE72068C06935EA000004D000200A
:10373000B842C3D00020E0E70120F9E7094801685A
:10374000CA69120701D508220A620168CA695207CC
:1037500001D504220A620068C169890701D50221E6
:1037600001627047140800200148FEF747BC0000C2
:103770009C08002070B50E00014643D0224D2888D9
:10378000304480B2B0F5807F01D9002028801F4CE2
:10379000324628882044FCF760FE28883044288080
:1037A0002DE02178491E032911D802282AD36178F7
:1037B000362902D0F62902D009E0082600E00426C6
:1037C000B0421FD3A01910F8010C6B2801D00120C2
:1037D00013E0082E02D0F62904D00DE00B48FFF7C5
:1037E0000FFA09E0A078022806D1E0786B2803D10F
:1037F00005490120891C08703046FFF7C5F9288863
:103800000028CED170BD0000AC0000209CD7002065
:1038100070B50546FDF794FB0D4E044612E000BF5F
:10382000FDF78EFB001BA84201D3032070BD01F001
:103830000FFD01284FF0010002D001F031F801E046
:10384000FDF748FAF06F2028EAD1002070BD000093
:103850009C080020FEE7090700284FEA116104DBFD
:1038600000F1E02080F80014704700F00F0000F134
:10387000E02080F8141D704730EE600A08499FED83
:10388000091A10EE100A884202DD30EE410A704734
:1038900010EE100A04498842F9D930EE010A704747
:1038A000000034430000B443000034C3F0EEE00AEB
:1038B000F4EEC10AF1EE10FA02D89FED0F0A70473C
:1038C000B5EEC00AF1EE10FA07DDB4EEE10AF1EE52
:1038D00010FA02D2B0EE610A7047B5EEC00AF1EEFE
:1038E00010FAF9D2F1EE610AB4EEE00AF1EE10FA44
:1038F000F2DDB0EE600A70470000000070B52DEDFB
:10390000088B00F0EBFE7F4800264478467000F0FC
:1039100009FF0F2C9FED7C8A7C4C18D02078012861
:1039200000D02670A078401CC0B2A070052808D333
:10393000B0EE480AB0EE401AF0EE400AFFF700FA87
:103940006670BDEC088BBDE8704000F067B9704A46
:10395000A670A2F10C01081DFFF798F86C4D143DFC
:10396000287E012806D16B4890ED020A00F062F92A
:1039700085ED050A95ED020AD4ED020A95ED031ACC
:10398000D4ED011A70EE608A95ED050A31EE619A68
:10399000D4ED030AFFF770FFF0EE409A95ED010AAF
:1039A000D5ED000A30EE49BA70EEE8AA95ED040AAA
:1039B000F0EE690AFFF760FF5548B0EE40AA083004
:1039C00095ED010AF0EE490AFFF7E7F9504884ED5A
:1039D000040A283095ED000AF0EE680AFFF7DDF9D9
:1039E0004B4884ED050A483095ED040AF0EE690A6B
:1039F000FFF7D3F9B0EECB9A19EE101A464884EDD2
:103A0000060A8142F6EE000A05DA94ED041A21EE68
:103A1000201A84ED041AF0EEEA8A18EE901A814218
:103A200005DA94ED051A61EE200AC4ED050AD5ED1C
:103A3000040A3A4AF0EEE00A10EE901A914205DAD2
:103A4000DFED370A09EEA00A84ED060A19EE101A16
:103A500018EE902AB0EE080A814260FE081A8242EF
:103A600060FE089AB1EE041AF0EE4B0A94ED040AD7
:103A7000FFF71CFF84ED040AF0EE691AB1EE041A98
:103A8000F0EE6A0A94ED050AFFF710FFF0EE400A27
:103A9000B0EECA0A10EE100A4FF07E52C4ED050ACD
:103AA000904201DC84ED068A19EE101A1D4881420D
:103AB0001FDC18EE901A81421BDC10EE100A9042B7
:103AC00017DCB0EE480A0125B0EE401AF0EE400ACD
:103AD000FFF736F96078032805D2401CC0B2607049
:103AE0000328FFF42EAF207800287FF42AAF25703A
:103AF00027E76670267094ED061A94ED040AFFF726
:103B00001FF91EE7AE00002000000000F0000020BA
:103B1000B0D80020A8D400200000C8426F12833A19
:103B2000CDCC4CBF0000A04010B52B482DED048B30
:103B30009FED278ADFED248A9FED249ADFED259AF9
:103B4000B0EE682AF0EE491AB0EE481AF0EE480AD4
:103B5000B0EE690AFFF762F91F48B0EE682A20301C
:103B6000F0EE491AB0EE481AF0EE480AB0EE690AD3
:103B7000FFF754F918489FED192A4030DFED181A65
:103B8000B0EE481AF0EE480AB0EE000AFFF746F928
:103B90001148002213491C38012380ED018A80ED71
:103BA000008A80ED048A80ED038A80ED028A80ED30
:103BB000058A81ED018A81ED028A81ED038A027610
:103BC0004376BDEC048B10BD0000AFC30000AF43D3
:103BD00000000000295C8F3EB8D80020000034C3EC
:103BE00000003443F0000020FDF7B8F9FFF7A4F916
:103BF000FEF746FEFEF708FEFEF78CFEFEF7A8FE77
:103C0000FEF764FEFEF726FE00F059F8FEE7842872
:103C100001464FF0000000D0C81C704710B50124C9
:103C2000E0B2FFF77FF80120FCF740FE641C042C93
:103C3000F6DD10BD1A491B4AD1ED020AF5EEC00AA5
:103C4000F1EE10FA08D100201080F7EE000AC1ED65
:103C5000020A81ED010A7047D1ED010A124B70EEA4
:103C6000600AB0EEE01A11EE100A98420BDD0D4822
:103C7000F5EEC00AF1EE10FAB0F9000001DD401EC9
:103C800000E0401C108081ED010AB2F900009FEDB8
:103C9000071A00EE900AF8EEE00A00EE810A70477B
:103CA000D4D60020A8000020000034430000B44314
:103CB00010B500B9012000F0F3FD002010BD10B5D3
:103CC00000F000FF002010BD7FB50D46416904469D
:103CD000B0F9080081B1A16971B1FFF798FFD4E98B
:103CE00005122B468DE807002269D4E9001001F087
:103CF00080FA039004B070BDFFF789FF03A92B463B
:103D0000CDE90001228AD4E9001092B201F044FA10
:103D1000012801D00020EDE70398EBE72DE9F04101
:103D2000184C0F46054666692068001D00F06EFCC1
:103D300038B922680121A06992F82C20914088436B
:103D4000A061681C07D137B12168BDE8F0410E4879
:103D5000091D00F0B7BC20683544B54245602168B4
:103D600005D2A068091DBDE8F04100F093BC606871
:103D7000091D00F08FFC206B854200D22563BDE851
:103D8000F081000014000020AC0B00202DE9F04170
:103D9000054600F0A3FC2E4C2E4F2069401C2061EC
:103DA000206810B1E06940B32DE02560206901284A
:103DB00029D1002606EB860007EB800000F05CFCB2
:103DC000761C072EF6D323488C3000F055FC214892
:103DD000A03000F051FC1F48B43000F04DFC1D48ED
:103DE000C83000F049FC1B48DC3000F045FC1948A5
:103DF0008C3060601430A06005E0E86A2168C96A10
:103E0000814200D825600120E16A491CE162E96A2B
:103E1000A26988401043A06101EB8100291D07EBD6
:103E2000800000F04FFC00F07DFCE06900280CD021
:103E30002068E96AC06A884207D207494FF080507B
:103E40000860BFF34F8FBFF36F8FBDE8F0810000B4
:103E500014000020D00A002004ED00E038B500F086
:103E60003DFC104CA068C8B90F4800F005FC0E4896
:103E7000143000F001FC0C49002021601431616015
:103E800001F11403009001F15C020C210A2000F002
:103E9000F9FEA06010B105A100F0CCFCBDE83840EF
:103EA00000F040BC50000020C00B0020546D725147
:103EB0000000000030B4026C0B46002A0BD0D0E9A1
:103EC00002411144C160A14201D30168C16018469A
:103ED00030BCFCF7C2BA30BC70472DE9F041856BAD
:103EE0001746026C0446002682B1C7B1E068FCF7B1
:103EF000B4FAE168206C2268091AE160914202D2AA
:103F0000A168081AE060022F16D017E02068A8B94F
:103F1000A06801F017FA06460020A0600EE0606875
:103F2000FCF79BFAD4E90101226C104460608842DE
:103F300004D32068606001E005B16D1E6D1CA563AF
:103F40003046BDE8F08110B5044690F8510068B1E4
:103F500001280ED0022811D0502072B680F31188AB
:103F6000BFF34F8FBFF36F8F62B6FEE7206B00F099
:103F7000EFFB2046BDE8104000F0EABB10BD00009A
:103F800011484FF4484110B5420706D00E49C01DF4
:103F900020F00700411AC1F548410C4C00230144B0
:103FA0000839A4F1100221F00701C4E900030C1A3A
:103FB00011604B600B60C0E9001494604FF0004149
:103FC0005460D16010BD0000A80C002074000020D7
:103FD000144E4FF08058144CDFF85090A6F1C807EB
:103FE00012E000BF00F07AFBF068C568281D00F001
:103FF0000DFB2069401E2061E068401EE06000F07B
:1040000091FB2846FFF79FFFE0680028EAD1386857
:104010000128F9D9C9F80080BFF34F8FBFF36F8F24
:10402000F2E70000980B00201400002004ED00E0EF
:104030000346009829B10260C0E90F31012100F068
:104040005DBE0060F8E72DE9F0479A4681466FF0C3
:104050000303DDE9098403EB8202089E206B104410
:1040600020F00707780709D0502072B680F3118836
:10407000BFF34F8FBFF36F8F62B6FEE74FF00005BF
:1040800061B1002023180A5C83F834200A5C12B165
:10409000401C1028F6D384F8435001E084F83450D3
:1040A000072E00D30626E662201DC4E9116500F044
:1040B000EEFA04F1180000F0EAFAE564C6F1070030
:1040C000A06184F8505052462461494638466462E3
:1040D00000F066FAB8F1000F206001D0C8F8004087
:1040E000BDE8F08730B5114900E011460A68824208
:1040F000FBD34B685C18844203D1446808462344D0
:104100004B6043681D18954209D1084C103C246847
:10411000A24209D052681A4442600A6812680260DA
:10412000814200D0086030BD0460F9E774000020CF
:1041300070B50D4D914241604FF00004006106D80A
:104140008169D21A8A4206D2011D686807E09A4244
:1041500003D2994201D3012403E0011D286800F035
:1041600099FA204670BD00005000002010B50446AA
:1041700000F0B4FAA06B28B15FF0000400F0D2FAAE
:10418000204610BD0124F9E730B53A4D87B068E00C
:104190000498002865DB069C606910B1201D00F0C2
:1041A00035FA03A800F0DAF8024604980A2858D233
:1041B000DFE800F00505052F324B05052F3294F896
:1041C000240040F0010084F82400A06905990B4602
:1041D00001442046FFF7ACFF60B3216A20468847C0
:1041E00094F8240040073CD5002000900598002357
:1041F000A16942181946204601F0CAF9D0B95020E9
:1042000072B680F31188BFF34F8FBFF36F8F62B622
:10421000FEE794F8240020E094F8240040F0010028
:1042200084F824000598A06128B18118134620461F
:10423000FFF77EFF15E0502072B680F31188BFF3C0
:104240004F8FBFF36F8F62B6FEE794F824008107AB
:1042500003D4204600F07CFA03E020F0010084F84B
:104260002400A868002204A900F0B2FE00288FD123
:1042700007B030BD500000202DE9FC410F46054637
:1042800000F068FC01A800F069F80446019818B134
:1042900001F0E8F8BDE8FC81264EAFB17068006817
:1042A000E0B30027B068291B3A4600F0D7FA01F0C6
:1042B000D9F80028EED120494FF080500860BFF3B4
:1042C0004F8FBFF36F8FE5E7A542EBD801F0CAF837
:1042D00030682746C068C468201D00F097F994F83C
:1042E000240041071BD5A0692B463A4641192046B8
:1042F000FFF71EFFB8B100202A4603460146009092
:10430000204601F045F970B9502072B680F311884B
:10431000BFF34F8FBFF36F8F62B6FEE707E020F069
:10432000010084F82400216A20468847B2E701276B
:10433000B8E700005000002004ED00E006484168A6
:10434000096829B14168C968C9684968016370474B
:104350004FF0FF31FAE700001400002070B5054669
:1043600000F084FF064E04463069844203D200F018
:1043700009F8012000E0002028602046346170BD6B
:1043800050000020F8B51A4D20E0C068C4680668E7
:10439000201D00F03BF9216A2046884794F824004C
:1043A000400713D5A0693044B04206D92461211DCD
:1043B0006060286800F06EF908E00020324603468D
:1043C00001460090204601F0E3F838B12868016802
:1043D0000029DAD16968C5E90010F8BD502072B62D
:1043E00080F31188BFF34F8FBFF36F8F62B6FEE784
:1043F000500000200A484068401C4FF0500072B640
:1044000080F3118805D0BFF34F8FBFF36F8F62B673
:10441000FEE7BFF34F8FBFF36F8F62B6FEE700007A
:104420007C000020074C2068016841B1C068002171
:10443000D0F80000FFF720FFFFF7A6FEF3E7012109
:104440000020F7E7500000202DE9F041044600F07D
:1044500045F994F9455004F1240609E0606A48B131
:10446000304600F0C3FF08B100F0EEFA6D1E6DB2E9
:10447000002DF3DC4FF0FF3684F8456000F052F970
:1044800000F02CF994F9445004F1100709E0206978
:1044900048B1384600F0AAFF08B100F0D5FA6D1E09
:1044A0006DB2002DF3DC84F84460BDE8F04100F00B
:1044B00039B900002DE9F0410027044600F04AFB1D
:1044C000364E306808B9FFF75BFDF068044218D13A
:1044D000BCB10834600710D004F00700C0F1080038
:1044E0000444600709D0502072B680F31188BFF3EE
:1044F0004F8FBFF36F8F62B6FEE714B170688442CE
:1045000002D900F0AFFF38E02448103001460D68B2
:1045100001E028460D466968A14202D229680029B7
:10452000F7D131688D42ECD00768296801600837FF
:104530006868011B102910D92819420709D050209A
:1045400072B680F31188BFF34F8FBFF36F8F62B6DF
:10455000FEE741606C60FFF7C5FD69687068401A4E
:104560007060B268904200D2B0600020F2681143DF
:10457000C5E9000100F076FF0FB900F073F8780785
:1045800009D0502072B680F31188BFF34F8FBFF36C
:104590006F8F62B6FEE73846BDE8F0816400002008
:1045A00070B5041F094E231F4FF0807521F00101E3
:1045B00025601C1F1960A0F120010B1F26604438E4
:1045C0000A606FF002051D6070BD0000F543000831
:1045D00070B50C4605461420FFF71AF950B90A4881
:1045E00022462946FDF7E0FF20B91420FFF710F915
:1045F000002807D022462946BDE87040024814230F
:10460000FDF77EBF70BD00009C080020D0E901329C
:1046100001699A60D0E901235A604A68824201D157
:1046200082684A60002202610868401E08600868CB
:104630007047000010B5044C8023046004F154005E
:104640000860136010BD00002001002010B5044C6C
:104650004FF48073046004F154000860136010BDCF
:1046600074030020502072B680F31188BFF34F8F7F
:10467000BFF36F8F62B6FEE74FF0FF3300F1080122
:104680000022C0E901130260C1600161704700218E
:104690000161704730B50B685A1C02D000F1080266
:1046A00002E0026904E02246546825689D42FAD976
:1046B00053684B6099608A60516008610168491CC9
:1046C000016030BD42684A6093688B6093685960AE
:1046D000916008610168491C01607047502072B602
:1046E00080F31188BFF34F8FBFF36F8F0B4962B612
:1046F0004868401C486001280ED10948006810F045
:10470000FF0F09D0502072B680F31188BFF34F8F8E
:10471000BFF36F8F62B6FEE7704700007C00002099
:1047200004ED00E00949486828B1401E486001D105
:1047300080F311887047502072B680F31188BFF360
:104740004F8FBFF36F8F62B6FEE700007C00002042
:1047500070B500282BD0164DA0F108046068E968F8
:10476000084209D1502072B680F31188BFF34F8FF1
:10477000BFF36F8F62B6FEE722684AB1502072B66F
:1047800080F31188BFF34F8FBFF36F8F62B6FEE7E0
:104790008843606000F0DEF960686968084468601A
:1047A0002046FFF79FFCBDE8704000F05BBE70BD87
:1047B000640000204FF0E020002101614FF47A7284
:1047C0008161072303490968B1FBF2F1491E416188
:1047D000036170471000002010B5FBF7A3FD1349DB
:1047E000102810D300F1E0200A7890F8F0039042EE
:1047F00009D2502072B680F31188BFF34F8FBFF3F8
:104800006F8F62B6FEE70A488968006800F4E060CE
:10481000884209D9502072B680F31188BFF34F8FB8
:10482000BFF36F8F62B6FEE710BD00007C00002072
:104830000CED00E0084B5FF0000210B553F8324079
:104840001CB1521C082AF9D310BD03EBC20443F873
:104850003210606010BD0000900A002070B515464F
:104860000E460446FFF73AFF94F944100020491C15
:1048700001D184F8440094F94510491C01D184F811
:104880004500FFF74FFFA06B28B904F124002A462A
:10489000314600F0F9F82046BDE87040FFF7D4BD7E
:1048A000020010B516D01048806B48B1502072B687
:1048B00080F31188BFF34F8FBFF36F8F62B6FEE7AF
:1048C00000F048F900211046FFF728FA00F0CAFD71
:1048D000002807D105494FF080500860BFF34F8F83
:1048E000BFF36F8F10BD00001400002004ED00E046
:1048F00070B504000D460DD0B5B1214A906BE8B1FA
:10490000502072B680F31188BFF34F8FBFF36F8FC3
:1049100062B6FEE7502072B680F31188BFF34F8F66
:10492000BFF36F8F62B6FEE7502072B680F3118836
:10493000BFF34F8FBFF36F8F62B6FEE700F00AF947
:10494000236852695919934204D98B420AD991427A
:1049500002D807E08B42FAD9881A21600021FFF7BC
:10496000DDF900E0216000F07DFD002807D1054958
:104970004FF080500860BFF34F8FBFF36F8F70BD53
:104980001400002004ED00E070B50546FFF7A6FE18
:10499000264C05B92568281DFFF738FE58B9E86A86
:1049A000234A00EB800152F8211021B9A2690121AC
:1049B00081408A43A261A86A18B105F11800FFF787
:1049C00025FEE06A401CE0622068854208D1184854
:1049D000291DC830FFF776FEE068401CE06007E064
:1049E0002069401E20612846FFF7ADFAFFF7A6FCBC
:1049F000FFF798FEE069002816D02068854213D1A1
:104A0000A06B48B1502072B680F31188BFF34F8F6E
:104A1000BFF36F8F62B6FEE706494FF08050086023
:104A2000BFF34F8FBFF36F8F70BD000014000020E5
:104A3000D00A002004ED00E002498A6A0260496958
:104A4000416070471400002001490120486270470E
:104A50001400002010B50C4650B10A4909681831FD
:104A6000FFF718FE2046BDE810400121FFF756B9B8
:104A7000502072B680F31188BFF34F8FBFF36F8F52
:104A800062B6FEE71400002070B514460D4668B10A
:104A90000B4909681831FFF715FE0CB14FF0FF35CF
:104AA00021462846BDE87040FFF738B9502072B65D
:104AB00080F31188BFF34F8FBFF36F8F62B6FEE7AD
:104AC0001400002030B587B0002405AA04A903947F
:104AD00003A80494FFF7AEFDDDE903010094002371
:104AE000CDE90110194817A1059A00F082FB184D75
:104AF0000028686323D000F019FD01280BD0401C6A
:104B00001DD1502072B680F31188BFF34F8FBFF3D1
:104B10006F8F62B6FEE7502072B680F31188BFF344
:104B20004F8FBFF36F8F62B601214FF0FF302863C4
:104B3000E9616C6107B0BDE8304000F043B807B0F0
:104B400030BD000049444C4500000000D13F000842
:104B5000140000200248816B491C816370470000EB
:104B6000140000201548816B11B10121416270478A
:104B70000021416212498269B2FA82F2C2F11F0237
:104B800002EB820251F822306BB101EB820101F19C
:104B900008034A6852684A609A4201D152684A60E2
:104BA000D16801607047502072B680F31188BFF35E
:104BB0004F8FBFF36F8F62B6FEE700001400002036
:104BC000D00A00202B49FF201CB50A7801920870FA
:104BD00008788DF800009DF800209DF8000002F094
:104BE000F002824209D0502072B680F31188BFF3E0
:104BF0004F8FBFF36F8F62B6FEE79DF8002007204E
:104C00001D4C02F050022270A06005E09DF80020CB
:104C100052008DF80020401E9DF800201206F5D4A9
:104C20000328A06009D0502072B680F31188BFF32A
:104C30004F8FBFF36F8F62B6FEE74FF44070A060F6
:104C4000019808700D48016841F470010160016825
:104C500041F070410160FFF7ADFD00206060FBF79F
:104C600027FB0748016841F040410160FBF70CFB5E
:104C700000201CBD00E400E07C00002020ED00E0EE
:104C800034EF00E0F8B5069D18B163B1FAB1A1B1F7
:104C900028E0502072B680F31188BFF34F8FBFF326
:104CA0006F8F62B6FEE7502072B680F31188BFF3B3
:104CB0004F8FBFF36F8F62B6FEE7502072B680F35E
:104CC0001188BFF34F8FBFF36F8F62B6FEE749B114
:104CD000502072B680F31188BFF34F8FBFF36F8FF0
:104CE00062B6FEE748241C46012683F8466000931E
:104CF0002B46FFF79DF92046F8BD00002DE9F0474F
:104D000004008A4629D0FFF7E9FC21680025D4E990
:104D10000F23D4F840C004F1100810460E46401E80
:104D20004FF0FF3902FB031200FB0C10BAF1000F29
:104D3000A563666084F8449084F84590C4E9022035
:104D400015D04046FFF798FC04F12400FFF794FCCF
:104D5000FFF7E8FC0120BDE8F087502072B680F331
:104D60001188BFF34F8FBFF36F8F62B6FEE72069E4
:104D70000028EDD0404600F039FB0028E8D0044977
:104D80004FF080500860BFF34F8FBFF36F8FDFE7A6
:104D900004ED00E02DE9FF4704001D4682B08A467D
:104DA0004FF0000803D0BAF1000F0AD015E05020F0
:104DB00072B680F31188BFF34F8FBFF36F8F62B667
:104DC000FEE7206C48B1502072B680F31188BFF323
:104DD0004F8FBFF36F8F62B6FEE7022D0CD1E06BF1
:104DE000012809D0502072B680F31188BFF34F8F8D
:104DF000BFF36F8F62B6FEE700F02AFA404F4FF024
:104E000080564FF0000958B9049848B1502072B646
:104E100080F31188BFF34F8FBFF36F8F62B6FEE749
:104E2000FFF75CFCA06BE16B884207D3022D05D035
:104E30000498D0B1B8F1000F1AD01EE02A465146AE
:104E40002046FFF74AF8616A19B104F1240000F026
:104E5000CDFA20B13E60BFF34F8FBFF36F8FFFF7E6
:104E600061FC012006B0BDE8F087FFF75BFC22E0A3
:104E70006846FFF7E1FD4FF00108FFF753FCFFF72D
:104E800069FEFFF72BFC94F94400401C01D184F823
:104E9000449094F94500401C01D184F84590FFF7F7
:104EA00041FC04A9684600F037F930B12046FFF70D
:104EB000CBFA00F0D7FA0020D4E7FFF70FFCA06B85
:104EC000E16B884213D1FFF72DFC049904F1100027
:104ED000FFF7C0FD2046FFF7B7FA00F0C3FA00283D
:104EE0009ED13E60BFF34F8FBFF36F8F98E7FFF700
:104EF00019FC2046FFF7A8FA00F0B4FA90E700008A
:104F000004ED00E02DE9F04704001F469046894675
:104F100003D0B9F1000F0AD015E0502072B680F32B
:104F20001188BFF34F8FBFF36F8F62B6FEE7206C1F
:104F300048B1502072B680F31188BFF34F8FBFF392
:104F40006F8F62B6FEE7022F0CD1E06B012809D00B
:104F5000502072B680F31188BFF34F8FBFF36F8F6D
:104F600062B6FEE7FFF738FC5020EFF3118672B609
:104F700080F31188BFF34F8FBFF36F8F62B6A06BC2
:104F8000E16B884206D3022F04D0002086F31188FB
:104F9000BDE8F08794F945503A4649462046FEF769
:104FA0009CFF681C04D06D1C84F845500120EDE77F
:104FB000606A0028FAD004F1240000F017FA0028F3
:104FC000F4D0B8F1000FF1D00121C8F80010EDE7DE
:104FD0002DE9F74704008A4683B04FF0000603D05E
:104FE000BAF1000F0AD015E0502072B680F3118894
:104FF000BFF34F8FBFF36F8F62B6FEE7206C48B1EF
:10500000502072B680F31188BFF34F8FBFF36F8FBC
:1050100062B6FEE700F01CF9DFF8F8804FF0805729
:105020004FF0000958B9059848B1502072B680F386
:105030001188BFF34F8FBFF36F8F62B6FEE7FFF7A4
:105040004DFBA56BC5B151462046FEF733FF6D1EE3
:10505000A563206950B104F1100000F0C7F928B130
:10506000C8F80070BFF34F8FBFF36F8FFFF75AFB85
:10507000012006B0BDE8F087059808B11EB106E032
:10508000FFF750FB27E06846FFF7D6FC0126FFF745
:1050900049FBFFF75FFDFFF721FB94F94400401C3B
:1050A00001D184F8449094F94500401C01D184F862
:1050B0004590FFF737FB05A9684600F02DF800285A
:1050C00020460AD0FFF7C0F900F0CCF92046FFF7E0
:1050D0004DF80028B3D00020CBE7FFF747F890B198
:1050E000059904F12400FFF7B5FC2046FFF7ACF961
:1050F00000F0B8F90028A2D1C8F80070BFF34F8FB4
:10510000BFF36F8F9BE72046FFF79EF900F0AAF9E7
:1051100095E7000004ED00E02DE9F04105000C46A4
:1051200012D0DCB1FFF7DAFA1A4E20687269471C18
:105130006B68A2EB03011BD02F68B66AB74219D087
:10514000934217D8012520E0502072B680F31188D1
:10515000BFF34F8FBFF36F8F62B6FEE7502072B67A
:1051600080F31188BFF34F8FBFF36F8F62B6FEE7F6
:1051700000250AE0884205D9401A20602846FFF73A
:105180005BFCF5E7002020600125FFF7CBFA2846FD
:10519000BDE8F081140000202DE9FF5F9946164616
:1051A0008A4683469000DDE90E87FFF783F9050004
:1051B0001CD05420FFF77EF9040014D00020256392
:1051C00084F851004B46CDE90087CDE902403246D4
:1051D00051465846FEF737FF2046FEF7D7FD01201F
:1051E00004B0BDE8F09F2846FFF7B2FA4FF0FF3059
:1051F000F6E7F0B585B0DDE90B740A9DA7B1ECB117
:1052000054262763022684F85160002703970DF186
:10521000100C0095CDE901C4FEF715FF2046FEF7FE
:10522000B5FD049805B0F0BD502072B680F311882A
:10523000BFF34F8FBFF36F8F62B6FEE7502072B699
:1052400080F31188BFF34F8FBFF36F8F62B6FEE715
:105250000548C16919B1806B18B100207047012061
:105260007047022070470000140000200148406988
:1052700070470000140000202DE9F0412F4CA06B76
:10528000002740B1206A401C2062606A00B10127FB
:105290003846BDE8F0816669761C666115D16068A4
:1052A000006848B1502072B680F31188BFF34F8F69
:1052B000BFF36F8F62B6FEE76068A1686160A060AF
:1052C000A06A401CA062FFF739F8DFF87480206BF9
:1052D000864209D36068006880B16068C068C568AC
:1052E000686886420DD220632068C06A00EB8001A6
:1052F00058F821000128C8D90127C6E74FF0FF3030
:10530000F1E7281DFFF782F9A86A18B105F1180026
:10531000FFF77CF9E86A0121A26981401143A1618C
:1053200000EB800108EB8100291DFFF7CBF9206815
:10533000E96AC06A8142CDD30127CBE7140000207F
:10534000D00A002070B504464FF00001F0B3254D9F
:105350002868844209D0502072B680F31188BFF3C8
:105360004F8FBFF36F8F62B6FEE7A06C38B1636CEE
:10537000401EE26AA0649A4231D050B12FE0502022
:1053800072B680F31188BFF34F8FBFF36F8F62B691
:10539000FEE7201DFFF73AF9134900284FF00100FE
:1053A0000AD1E26A02EB820351F8233023B9AB69D8
:1053B00000FA02F29343AB61626CC2F10703A3618E
:1053C000E262AB6990401843A86100E007E002EB9D
:1053D000820001EB8000211DFFF774F901210846CE
:1053E00070BD000014000020D00A00202DE9F0411B
:1053F000C068C468ACB104F118000746FFF706F9AD
:10540000164D0126A86BB0B115483946FFF75AF979
:10541000E06A2968C96A88421ED901206E62BDE827
:10542000F081502072B680F31188BFF34F8FBFF325
:105430006F8F62B6FEE7201DFFF7E8F8E06AAA6901
:1054400006FA00F11143A961054900EB8000B43967
:1054500001EB8000211DD9E70020E0E714000020C7
:10546000840B00202DE9F0472D4DA86B0024264623
:1054700038B1FFF733F9A86B401EA863A86B50B191
:1054800049E0502072B680F31188BFF34F8FBFF30D
:105490006F8F62B6FEE7234F01202969D9B3A7F1C8
:1054A000B40980463868E8B1F868C46804F11800A7
:1054B000FFF7ACF8201DFFF7A9F8E16AAA6908FA1E
:1054C00001F01043A86101EB810109EB8100211D6E
:1054D000FFF7F8F82968E06AC96A8842E2D3C5F89C
:1054E0002480DFE70CB1FEF729FF2C6A44B1474660
:1054F000FFF7C2FE00B16F62641EF9D1002028627E
:10550000686A40B1084901264FF080500860BFF337
:105510004F8FBFF36F8FFFF705F93046BDE8F08777
:1055200014000020840B002004ED00E010B586B0CC
:10553000FEF794FC124CA068B8B10020039005AAB5
:10554000049004A903A8FFF781F8DDE903210220F4
:1055500000238DE807000D480AA1059AFFF749FED0
:10556000E06010B106B0012010BD502072B680F38B
:105570001188BFF34F8FBFF36F8F62B6FEE7000055
:1055800050000020546D72205376630025440008BB
:10559000FEB51E46134602004FF00000089D14D0D1
:1055A000134CA768002F0FD006290292CDE90013F3
:1055B00017DAFFF74DFE02284FF000030FD000224C
:1055C000A0686946FFF7E6FBFEBD502072B680F387
:1055D0001188BFF34F8FBFF36F8F62B6FEE72A4685
:1055E000EEE70023324669463846FFF78BFCFEBDE6
:1055F000500000204FF04070E1EE100A70470000AC
:105600003C560008B92E0008000000000000000011
:1056100080000000000000000000000000061016DE
:105620000006101600000000000000000102030444
:1056300006070809000000000102030464656661B2
:10564000756C745461736B0068560008000000208C
:1056500020010000040200088857000820010020F3
:1056600058DE0000200200080000000001000000D9
:1056700010000000000000000024F4000000000002
:10568000000000000000000000000000000000001A
:10569000000000000000000000000000000000000A
:1056A00000000000000000000000000000000000FA
:1056B00000000000000000000000000000000000EA
:1056C00000000000000000000000000000000000DA
:1056D00000000000000000000000000000000000CA
:1056E0000000000000000000AAAAAAAA0000000012
:1056F00000000000FFAA6988B5FFAA760000FFAA93
:10570000030B00FFAA040600FFAA0000000000002F
:10571000000000000000000060D700206FD70020CC
:105720007ED700208DD7002060D700206FD70020C3
:105730007ED700208DD70020000000000000000070
:105740000000000000000000000000000000000059
:105750000000000000000000000000000000000049
:105760000000000000000000000000000000000039
:105770000000000000000000000000000000000029
:08578000000000000000000021
:04000005080001C925
:00000001FF
