:020000040800F2
:10000000B8DF00206D030008A12D00080D260008B0
:10001000552A00086B070008893800080000000016
:10002000000000000000000000000000A90200081D
:10003000E90800080000000005030008092F000877
:100040008703000887030008870300088703000868
:100050008703000887030008870300088703000858
:100060008703000887030008870300088703000848
:1000700021080008870300082D08000887030008EE
:100080003908000887030008870300088703000871
:100090008703000887030008870300088703000818
:1000A0008703000887030008870300088703000808
:1000B00087030008870300088703000887030008F8
:1000C00087030008870300088703000887030008E8
:1000D0008703000887030008413700086D370008D0
:1000E00087030008870300088703000887030008C8
:1000F00087030008F12F0008870300088703000822
:1001000087030008870300088703000887030008A7
:100110008703000887030008E52F0008870300080D
:100120008703000887030008870300088703000887
:100130008703000887030008870300088703000877
:100140008703000887030008870300088703000867
:100150008703000887030008870300088703000857
:100160008703000887030008870300088703000847
:100170008703000887030008870300088703000837
:100180008703000887030008870300088703000827
:100190008703000887030008870300088703000817
:1001A0008703000887030008870300088703000807
:1001B00087030008870300088703000887030008F7
:1001C000870300088703000800F002F800F05CF8DD
:1001D0000AA090E8000C82448344AAF10107DA45A2
:1001E00001D100F051F8AFF2090EBAE80F0013F098
:1001F000010F18BFFB1A43F0010318477C5500009C
:100200009C5500000A444FF0000C10F8013B13F01D
:10021000070408BF10F8014B1D1108BF10F8015B5F
:10022000641E05D010F8016B641E01F8016BF9D152
:1002300013F0080F1EBF10F8014BAD1C0C1B09D1A9
:100240006D1E58BF01F801CBFAD505E014F8016B1B
:1002500001F8016B6D1EF9D59142D6D370470000AD
:100260000023002400250026103A28BF78C1FBD8BF
:10027000520728BF30C148BF0B6070471FB505F05B
:1002800051FA1FBD10B510BD00F03AFA1146FFF744
:10029000F5FF03F058FD00F058FA03B4FFF7F2FF42
:1002A00003BC00F05BFA00002D4B19680868B0E849
:1002B000F04F80F30988BFF36F8F4FF0000080F399
:1002C000118870470000000008480068006880F34B
:1002D00008884FF0000080F3148862B661B6BFF35F
:1002E0004F8FBFF36F8F00DF00BF00BF08ED00E04E
:1002F000DFF80C00016841F470010160704700BF35
:1003000088ED00E0EFF30980BFF36F8F144B1A689C
:100310001EF0100F08BF20ED108A20E9F04F10608A
:1003200009B44FF0500072B680F31188BFF34F8FBD
:10033000BFF36F8F62B604F0B7FC4FF0000080F39C
:10034000118809BC19680868B0E8F04F1EF0100F5A
:1003500008BFB0EC108A80F30988BFF36F8F704735
:1003600014000020EFF30580704700000948804723
:1003700009480047FEE7FEE7FEE7FEE7FEE7FEE787
:10038000FEE7FEE7FEE7FEE704480549054A064B9F
:1003900070470000D52F0008C9010008B8D9002017
:1003A000B8DF0020B8DB0020B8DB002053EA020CE5
:1003B00000F069802DE9F04B4FF00006002B1FBFC5
:1003C000B3FA83F503FA05F424FA05F65E4012BF8A
:1003D0001643B2FA82F502FA05F4C5F120051EBFF4
:1003E00022FA05FC44EA0C04203556EA044C4FEA94
:1003F000144418BF641C4FF000084FF000099042ED
:1004000071EB030C39D3002919BFB1FA81F701FA56
:1004100007F6B0FA80F700FA07F6C7F120071EBF0B
:1004200020FA07FC46EA0C062037B6FBF4FCA7EBE3
:100430000507103F07F01F0BCBF120060CFA0BFB52
:100440002CFA06F644BFB3460026202FA4BF5E4612
:100450004FF0000B5BEA060C08BF4FF0010B19EBE5
:100460000B09ABFB027C48EB0608C01B06FB02CC69
:100470000BFB03CC71EB0C01C1E70B460246414676
:100480004846BDE8F08B13B54FF000004FF0000177
:10049000AFF30080BDE81C407047032A40F2308073
:1004A00010F0030C00F0158011F8013BBCF1020FB5
:1004B000624498BF11F801CB00F8013B38BF11F836
:1004C000013BA2F1040298BF00F801CB38BF00F84D
:1004D000013B11F0030300F06780083AC0F0088088
:1004E00051F8043B083A51F804CBA0E80810F5E7AE
:1004F000121D5CBF51F8043B40F8043BAFF3008091
:10050000D20724BF11F8013B11F801CB48BF11F805
:10051000012B24BF00F8013B00F801CB48BF00F8D5
:10052000012B7047431A28BF9A427FF6B6AF032AC1
:100530001044114440F2268010F0030F1EBF11F842
:10054000013D521E00F8013D10F0030F7FF4F6AF9D
:1005500011F0030300F0A280083AC0F00B8051F8BC
:10056000043D083A51F804CD40F8043D40F804CD6C
:10057000FFF7F3BF121D5CBF51F8043D40F8043D86
:10058000AFF30080D20724BF11F8013D11F801CD6F
:1005900048BF11F8012C24BF00F8013D00F801CD3F
:1005A00048BF00F8012C704710B5203AC0F00B800E
:1005B000B1E81850203AA0E81850B1E81850A0E867
:1005C0001850BFF4F5AF5FEA027C24BFB1E81850C1
:1005D000A0E8185044BF18C918C0BDE810405FEA31
:1005E000827C24BF51F8043B40F8043B08BF7047AD
:1005F000D20728BF31F8023B48BF11F8012B28BFB2
:1006000020F8023B48BF00F8012B70474FF0000272
:1006100000B5134694469646203922BFA0E80C50F8
:10062000A0E80C50B1F12001BFF4F7AF090728BFD3
:10063000A0E80C5048BF0CC05DF804EB890028BF4F
:1006400040F8042B08BF704748BF20F8022B11F078
:10065000804F18BF00F8012B7047704770477047F4
:1006600010B500F045F8006810BD10B5044600F064
:100670003FF8046010BD431A28BF9A427FF694AF3A
:10068000104410F0030F11441EBF11F8013D521E1B
:1006900000F8013D10F0030F7FF4F6AF103AC0F000
:1006A0000A8010B531E91850103A20E91850BFF40B
:1006B000F9AFBDE81040530724BF31E9081020E925
:1006C000081044BF51F8043D40F8043D12F0030FF8
:1006D00008BF7047D20728BF31F8023D48BF11F864
:1006E000012C28BF20F8023D48BF00F8012C7047BC
:1006F0000048704754D900200048704754D9002062
:100700007546FFF7F9FFAE4605006946534620F0EF
:100710000700854618B020B5FFF736FEBDE820403B
:100720004FF000064FF000074FF000084FF0000BAD
:1007300021F00701AC46ACE8C009ACE8C009ACE860
:10074000C009ACE8C0098D46704710B50446AFF348
:1007500000802046BDE81040FFF79FBD01491820EA
:10076000ABBEFEE7260002007047FEE708B504F0C6
:100770001BFE009003F0F8F81421684604F05AF9C3
:10078000F8E70000064906201CB500234FF400726C
:10079000CDE90001094803A104F09AFD1CBD000049
:1007A0001C010020436861737369735F436F6E744B
:1007B000726F6C5F5461736B000000006D0700087E
:1007C0000B480C49D0ED031AC1ED021AD0ED021A04
:1007D000C1ED031AD0ED051AC1ED041A80ED010A2E
:1007E000C0ED000A80ED041A002008707047000078
:1007F000D8D80020F00000200748084990ED030AEF
:1008000081ED020A90ED020A81ED030A90ED050ADE
:1008100081ED040A70470000D8D80020F0000020C5
:10082000014800F005B9000094090020014800F0DB
:10083000FFB80000F4090020014800F0F9B80000FA
:100840003409002001681823CAB2103AB2FBF3F24F
:10085000054B6FF30901032A9B5CC36500D9091D91
:1008600081650846704700004C570008014610B5E6
:1008700000208B694FF0C0748A6A53B1B3F5005FF2
:1008800015D072B1012A0CD0022A0AD0032A09D14C
:1008900004E01AB1012A06D0022A03D1C96AC901AB
:1008A00000D5012010BDC96AA142FAD010BD002AAE
:1008B000F7D0012AF2D0022AF3D0032AF3D010BDD8
:1008C00030B50468256825F48025256004686360D8
:1008D0008368402B036803D099600068C26030BD14
:1008E0009A600068C16030BD70470000054810B5CF
:1008F00001F0F8F903480068C16841F00101C160E6
:1009000010BD0000D807002010B5040012D004F07C
:100910003DFD012808D04FF47A704443B4FBF0F059
:10092000BDE8104004F05EB8034800210180018852
:10093000A142FCD310BD0000A600002072B6FEE765
:10094000DFED0A0A0B489FED072ADFED071AB0EE2C
:10095000601A9FED070A10B502F060FABDE810407A
:1009600001F0C2BE000016C30000164300000000E4
:1009700066662640C4D600202DE9F041876D044606
:1009800000F0D2FA054694F835000026022806D079
:1009900080206065012084F83460BDE8F081206823
:1009A000016821F0160101602068416921F0800191
:1009B0004161206C08B9A06C20B12068016821F069
:1009C000080101602068016821F0010101600CE06C
:1009D00000F0AAFA401B052807D9202060650320F3
:1009E00084F8350084F83460D7E720680068C007D1
:1009F000EED194F85C103F208840B860012084F864
:100A00003500002084F83460C7E790F835100229DB
:100A100003D08021416501207047052180F8351001
:100A20000068016821F001010160002070470000AA
:100A30002DE9F843044665484FF00009CDF80090D1
:100A40004FF41651A56D0068B0FBF1F72E68082130
:100A500094F85C2001FA02F030420FD0206802685E
:100A600052070BD5026822F00402026094F85C0081
:100A70008140A960606D40F00100606594F85C10F1
:100A80004FF0010808FA01F0304208D021684969A6
:100A9000090604D5A860606D40F00200606594F816
:100AA0005C1004208840304208D02168096889071A
:100AB00004D5A860606D40F00400606594F85C1097
:100AC00010208840304218D021680968090714D5E1
:100AD000A86020680168490304D50068000308D5B0
:100AE000A16C07E00168C90503D4016821F0080181
:100AF0000160216C09B12046884794F85C102020E1
:100B00008840304231D021680968C9062DD5A860D7
:100B100094F8350005282068016806D0490347D5B8
:100B2000006800031DD4616C1CE021F01601016017
:100B30002068416921F080014161206C08B9A06CF6
:100B400020B12068016821F00801016094F85C1070
:100B50003F208840A86084F8358084F83490216D67
:100B60001FE0E16B09B120468847606D00282BD05B
:100B7000606DC00714D0052084F835002068016836
:100B800021F0010101600098401C0090B84203D898
:100B900020680068C007F6D184F8358084F8349066
:100BA000E16C002910D001B02046BDE8F0430847B1
:100BB0000168C905D5D4016821F01001016084F8ED
:100BC000358084F83490CCE7BDE8F883100000202D
:100BD00070B5044600F0A8F905465CB1022084F81F
:100BE0003500002684F834602068016821F0010196
:100BF00001600CE0012070BD00F096F9401B052853
:100C000005D920206065032084F8350070BD206878
:100C10000068C007F0D121680A6820480240D4E982
:100C200001031843D4E903352B4318436369184380
:100C3000A3691843E3691843236A18431043626A9F
:100C4000042A03D1D4E90B231A4310430860206817
:100C5000406920F00701606A042840EA01050CD1D0
:100C6000A06A0543E06A40B12046FFF7FFFD20B1CE
:100C70004020606584F83560BCE720684561204607
:100C8000FFF7E0FD94F85C203F21914081606665AC
:100C9000012084F83500002070BD00003F8010F076
:100CA0002DE9F041866D044690F8340000250128B6
:100CB0000DD0012084F8340094F835700020012F05
:100CC00007D0022584F834002846BDE8F0810220D0
:100CD000FBE7022784F8357060652046FFF7F0FDDA
:100CE00094F85C103F208840B0602068016841F0B3
:100CF000160101602068416941F080014161206C6A
:100D000020B12068016841F0080101602068016895
:100D100041F001010160D7E770B5044600F004F925
:100D20000546601C02D004480078044400F0FCF83A
:100D3000401BA042FAD370BD040000202DE9F84FFB
:100D4000DFF8B091002203274FF00F0CA9F1040B3C
:100D500009F1040AABF1040E0B68012595402B4004
:100D6000AB426ED10C7904F00304012C01D0022CAB
:100D700015D18668540007FA04F826EA0806D1F867
:100D80000C8008FA04F848EA0608C0F808804468AD
:100D9000AC430D79C5F300159540254345600C79AA
:100DA000E443A40708D0C568540007FA04F6B54325
:100DB0008E68A6402E43C6600C7904F00304022C12
:100DC00011D1D40800EB8406356A5407E40E0CFAFE
:100DD00004F825EA0805D1F8108008FA04F848EA72
:100DE0000508C6F820800568540007FA04F6B543E4
:100DF0000E7906F00306A6402E4306604C6814F4F4
:100E0000403F70D03C4C256845F4804525602468FF
:100E100022F0030504F480440094384C05EB0408E8
:100E2000D8F808589407260F0CFA06F4A543344C5A
:100E3000A04201D100242EE0324CA04202D1012474
:100E400029E050E0304CA04201D1022423E02F4C95
:100E5000A04201D103241EE02D4CA04201D1042464
:100E600019E02C4CA04201D1052414E02A4CA042E8
:100E700001D106240FE0294CA04201D107240AE049
:100E8000274CA04201D1082405E0264CA04201D104
:100E9000092400E00A24B4402C43C8F80848D9F8D3
:100EA00000404D464E689C43F60200D51C432C6022
:100EB000DAF8004055464E689C43B60200D51C4304
:100EC0002C60DBF800405D464E689C43B60300D5BD
:100ED0001C432C60DEF8004075464E689C43F603C8
:100EE00000D51C432C60521C102AFFF435AFBDE81E
:100EF000F88F0000083C01404438024000300140B7
:100F0000000002400004024000080240000C0240C1
:100F1000001002400014024000180240001C024071
:100F20000020024000240240014880687047000011
:100F300004000020024881680278114481607047F3
:100F400004000020032010B500F09EF80F2000F0F0
:100F500005F800F04FF8002010BD000030B5054640
:100F60001F4887B0016841F480710160006806A9DC
:100F700000F480700590684600F0E8FB0398B0B17B
:100F800000F004FC40001749174AB0FBF1F1174884
:100F9000026040F2E732491E41600021C0E90321AE
:100FA0008160816100F04EFE040003D015E000F086
:100FB000EDFBE8E70D4800F0D5FE04000DD12D2033
:100FC00000F034F8102D07D2002229462D2000F021
:100FD0003BF80748056000E0012407B0204630BD1B
:100FE0004038024040420F0000200040540A0020D8
:100FF000080000200C4882B0016841F08051016077
:10100000006800F0805000900748001D016841F41E
:1010100080410160006800220F2100F480400090B0
:10102000901E02B000F010B840380240002809DBE2
:10103000012100F01F0291404009800000F1E020F2
:10104000C0F80011704700000E4BF0B41B68C3F3EA
:101050000223C3F10704042C00D904241D1D072D0D
:1010600001D2002300E0DB1E012606FA04F56D1E06
:101070000D409D409E40761E164045EA0601F0BC9C
:1010800002F003BC0CED00E0064A00F00701106816
:101090004FF6FF03184040EA01200349084310605F
:1010A000704700000CED00E00000FA051848F8B5A4
:1010B000016841F0805101600068164D00F08050D9
:1010C0000090286840F480302860FFF72DFF4FF42F
:1010D0007A76044604E0FFF727FF001BB0420FD8E2
:1010E0006868C003F7D5286840F400302860FFF72F
:1010F0001BFF044606E0FFF717FF001BB04201D9B3
:101100000320F8BD68688003F5D50020F8BD000015
:1011100040380240007000402DE9F84F0446007846
:101120000026DFF820943546C0070ED0D9F800100D
:1011300021F40001C9F80010D9F80010626B1143C6
:10114000C9F80010606B00B901262068FE4F00034B
:101150000ED53868E16B20F4401008433860E06B2E
:10116000B0F5801F01D010B102E0012600E001259A
:101170002068C0020ED53868216C20F44000084376
:101180003860206CB0F5800F01D010B102E001266C
:1011900000E001252068C10100D50126800666D542
:1011A000E8483830016841F0805101600068DFF89C
:1011B0009CA300F080500090DAF8001041F4807198
:1011C000CAF80010FFF7B0FE804605E0FFF7ACFE5E
:1011D000A0EB080064287DD8DAF80000C005F5D53A
:1011E000DFF864A3AAF11C0ADAF8000010F44070DA
:1011F0002AD0218E01F44071814225D0DAF8001006
:10120000DAF8002021F4407142F48032CAF800205C
:10121000DAF8002022F48032CAF80020CAF8001060
:10122000DAF80000C0070FD0FFF77EFE804641F2DB
:10123000883B05E0FFF778FEA0EB08015945CAD8C6
:10124000DAF800008007F5D5206BC0F301210329EF
:101250007ED0D9F8001021F4F811C9F80010DAF89E
:101260000010228EC2F30B021143CAF8001020783E
:10127000C00607D5386820F0807038603868A16BE8
:101280000843386020884104B14805D50168626E82
:1012900021F44031114301602188090405D501681A
:1012A000A26E21F44021114301602168C90305D5D4
:1012B0000168E26E21F44011114301602168890345
:1012C00005D50168226F21F44001114301602178A6
:1012D000490600E002E105D50168626C21F00301D6
:1012E000114301602178090605D50168A26C21F03F
:1012F0000C01114301602188C90505D50168E26C24
:1013000021F03001114301602188890505D501686C
:10131000226D21F0C001114301602188490505D5E6
:101320000168626D21F44071114301602188090553
:1013300005D50168A26D21F4406111430160218847
:10134000C90407D50168E26D21F44051114300E062
:101350003DE001602188890405D50168226E21F4F1
:101360004041114301602168490205D50168A26F1F
:1013700021F080611143016021684FF0006989020A
:1013800009D50168E26F21F0006111430160E16F4E
:10139000494500D1012521680A0700D501254903E7
:1013A00005D50168626F21F0407111430160216829
:1013B000090206D50168D4F8802021F0805111433C
:1013C0000160DFF88081A8F108086EB909E0D9F85A
:1013D0000020604B22F4F81218400243C9F80020A4
:1013E0003DE72068800178D5D8F8001021F08061B1
:1013F000C8F80010FFF798FD064604E0FFF794FDDB
:10140000801B64286AD8D8F800000001F6D4207840
:101410005149C00711D0606B78B908680A68C0F3F9
:1014200001406368C2F303629B0143EA004040EA63
:101430000260227A40EA027008602068020303D545
:10144000E26BB2F5801F05D0C0021AD5206CB0F552
:10145000800F16D108680A68C0F301406368C2F3C0
:1014600002729B0143EA0040237B40EA036040EAAA
:10147000027008603868626A20F01F00521E104334
:1014800038602068C0010FD508680A68C0F303609F
:101490006368268AC2F302729B0143EA064343EA69
:1014A000006040EA02700860206880010BD5606827
:1014B000228A800140EA0240227B40EA0260227ACE
:1014C00040EA02700860D8F8001041F08061C8F866
:1014D0000010FFF729FD064606E009E082E0FFF76D
:1014E00023FD801B64287DD8D8F800000001F6D5C4
:1014F000B5B3D8F80000454620F08050C8F8000089
:10150000FFF712FD064604E0FFF70EFD801B64287E
:1015100075D82868C0438000F6D520680F490203BB
:1015200001D5E26B1AB1C0022BD5206C48BB08680C
:101530000A68C0F301406369C2F302729B0143EA87
:1015400000400EE0083802408C3802400070004035
:1015500090380240FFFCFF0F843802408838024078
:1015600054E0237E40EA036040EA02700860386875
:101570006FF0FF03A26A20F4F85003EB022210433D
:1015800038602068800212D5E06F48450FD10868A6
:101590000A68C0F303606369268CC2F302729B0180
:1015A00043EA064343EA006040EA0270086020789C
:1015B000000715D508680A68C0F303606369C2F3C1
:1015C00001429B0143EA024242EA0060227F40EA74
:1015D000027008603868E16A20F4403008433860DF
:1015E000286800E00BE040F080502860FFF79CFC8A
:1015F000044607E0FFF798FC001B642802D903208B
:10160000BDE8F88F2868C0438000F3D40020F7E7D6
:101610002DE9F04704000D4669D0DFF81C81D8F8A9
:10162000000000F00F00A8420CD2D8F8001021F002
:101630000F012943C8F80010D8F8000000F00F008F
:10164000A84254D120683D4E810712D5400703D5EA
:10165000306840F4E05030602078000703D53068EF
:1016600040F4604030603068A16820F0F00008432A
:1016700030602078C00729D03049606808390128D7
:1016800010D00968022810D0890700292FDA3168A4
:1016900021F0030101433160FFF746FC074641F2A8
:1016A00088390CE009688903EFE78901EDE7FFF766
:1016B0003BFCC11B494502D90320BDE8F0873068D7
:1016C000616800F00C00B0EB810FF0D1D8F8001089
:1016D000404601F00F01A9420BD9016821F00F012A
:1016E00029430160006800F00F00A84201D00120EA
:1016F000E3E72078400705D53068E16820F4E05042
:10170000084330602078000706D53068216920F44E
:10171000604040EAC100306000F058F83168084A83
:10172000C1F30311515CC8400649086006480068CF
:10173000FFF714FC0020C0E7003C024008380240DC
:101740005457000810000020080000200F220260FB
:101750000C4A136803F003034360136803F0F003BB
:101760008360136803F4E053C36012684FF4E053DE
:1017700003EAD20202610448006800F00F0008602A
:101780007047000008380240003C02400448054908
:1017900000680968044AC1F38221515CC84070475F
:1017A000100000200838024064570008044805492A
:1017B00000680968044AC1F34231515CC84070476F
:1017C000100000200838024064570008154810B582
:1017D000006810F00C01144813D0431004290FD0F6
:1017E00008290ED10F4C241F216801F03F02216807
:1017F000490207D52068C0F38810A0FB030106E06A
:10180000184610BD2168C1F38811A1FB0001002317
:10181000FEF7CCFD2168C1F30141491C4900B0FB32
:10182000F1F010BD083802400024F4002DE9F84F13
:1018300004004FF0000877D02078DFF850B3ABF108
:101840000409C007A9F104054AD0DBF80010584686
:10185000C1F38101012908D00068C0F3810002288A
:101860000AD1D9F80000400206D52868800337D590
:1018700060680028DFD033E06068B0F5803F0BD0AF
:1018800010B1B0F5A02F11D0286820F48030286066
:10189000286820F4802002E0286840F48030286026
:1018A000606888B1FFF740FB064609E0286840F40D
:1018B00080202860F0E7FFF737FB801B642873D88F
:1018C00028688003F7D50BE0FFF72EFB064604E0FF
:1018D000FFF72AFB801B6428F1D828688003F7D41F
:1018E0002078800740D5DBF80010584611F00C0F27
:1018F00008D00068C0F3810002280AD1D9F800009E
:10190000400206D42868800717D5E06801280BD16B
:1019100013E0E0680028286817D040F00100286034
:10192000FFF702FB064605E02CE1FFF7FDFA801BFE
:101930000228C4D828688007F7D52868216920F0D4
:10194000F80040EAC10028600EE020F001002860A5
:10195000FFF7EAFA064604E0FFF7E6FA801B0228E2
:1019600022D828688007F7D42078000725D5874F2C
:1019700060696C37002838680FD040F0010038608B
:10198000FFF7D2FA064604E0FFF7CEFA801B0228E2
:101990000AD838688007F7D50FE020F001003860DA
:1019A000FFF7C2FA064605E082E0FFF7BDFA801BAA
:1019B00002287DD838688007F7D42078400769D599
:1019C000DFF8C8A10AF1380ADAF80000C0000CD428
:1019D000DAF8001041F08051CAF80010DAF800007F
:1019E0004FF0010800F080500090694F3868C00542
:1019F0000FD4386840F480703860FFF795FA0646D7
:101A000004E0FFF791FA801B642851D83868C005BC
:101A1000F7D55E4FA068683701280AD008B10528BD
:101A200011D0386820F001003860386820F00400D8
:101A300002E0386840F001003860A06898B1FFF714
:101A400073FA06460BE0386840F004003860F0E7AF
:101A5000FFF76AFA811B41F28830814265D8386805
:101A60008007F5D50DE0FFF75FFA064606E0FFF7C1
:101A70005BFA811B41F28830814256D83868800772
:101A8000F5D4B8F1000F05D0DAF8001021F080513C
:101A9000CAF80010A169C9B3DBF80000C0F38100E7
:101AA000022849D02868022920F08070286000E0D0
:101AB0003BE003D0FFF738FA044639E0FFF734FA89
:101AC000064604E0FFF730FA801B02282DD828686C
:101AD0008001F7D4D4E907012E4A0843A16A4908D6
:101AE00002EB0141626A41EA8211084394F82C102A
:101AF00040EA016040F00051C9F80010286840F049
:101B000080702860FFF710FA044605E03CE0FFF71C
:101B10000BFA001B022808D828688001F7D533E0AB
:101B2000FFF702FA001B022802D90320BDE8F88F54
:101B300028688001F4D427E0D9F80000012921D0D9
:101B4000E26900F4800191421CD1226A00F03F0159
:101B5000914217D1626A47F6C0710140B1EB821F12
:101B600010D1A26A4FF0FF3300F4403103EB520270
:101B7000B1EB024F06D194F82C1000F07060B0EB7E
:101B8000016F01D00120D1E70020CFE708380240E3
:101B9000007000400000FFFF704770477047000072
:101BA000F0B590F83C20012A3CD0012580F83C504B
:101BB000022280F83D2003685A689C681A4E1B4F29
:101BC000B34201D0BB4204D122F4700C4A6842EA0D
:101BD0000C0222F0700C0A6842EA0C025A60026899
:101BE000B24213D0B2F1804F10D0114B9A420DD0B7
:101BF000104B9A420AD0104B9A4207D0BA4205D0F5
:101C00000E4B9A4202D00E4B9A4204D1896824F0BE
:101C100080031943916080F83D50002180F83C100A
:101C20000846F0BD0220F0BD000001400004014064
:101C30000004004000080040000C0040004001404B
:101C40000018004010B5040003D094F83D0010B116
:101C500007E0012010BD002084F83C00204600F081
:101C600023F8022084F83D002068211D01F0C6F908
:101C7000012084F8480084F83E0084F83F0084F88E
:101C8000400084F8410084F8420084F8430084F85E
:101C9000440084F8450084F8460084F8470084F83E
:101CA0003D00002010BD000008B500680B498842C7
:101CB00012D10B48016841F0100101600068002258
:101CC000012100F0100000903620FFF7BDF9BDE8BB
:101CD00008403620FFF7AAB908BD000000100040F8
:101CE0004038024090F83D10012901D00120704792
:101CF000022180F83D1000681249884214D0B0F1EA
:101D0000804F11D0104988420ED0104988420BD024
:101D10000F49884208D00F49884205D00E498842B1
:101D200002D00E49884207D181680D4A1140062928
:101D300006D0B1F5803F03D0016841F00101016098
:101D400000207047000001400004004000080040EF
:101D5000000C004000040140004001400018004019
:101D60000700010090F83D10012901D001207047C3
:101D7000022180F83D100168CA6842F00102CA6081
:101D800000681349884214D0B0F1804F11D0114936
:101D900088420ED0104988420BD01049884208D0A2
:101DA0000F49884205D00F49884202D00E49884227
:101DB00007D181680D4A1140062906D0B1F5803F50
:101DC00003D0016841F0010101600020704700006C
:101DD000000001400004004000080040000C0040EA
:101DE00000040140004001400018004007000100CD
:101DF00070472DE9F04104460068C66805694FF058
:101E00000007A90713D5B10711D5F91E01610120FB
:101E10002077206880698007204602D0FFF7E8FF1E
:101E200004E000F08BF8204600F089F82777680777
:101E300016D5700714D521686FF0040008610220E0
:101E400020772068806910F4407F204602D0FFF799
:101E5000CFFF04E000F072F8204600F070F827771A
:101E6000280715D5300713D521686FF008000861E1
:101E7000042020772068C0698007204602D0FFF741
:101E8000B7FF04E000F05AF8204600F058F8277732
:101E9000E80616D5F00614D521686FF01000086129
:101EA000082020772068C06910F4407F204602D0C7
:101EB000FFF79EFF04E000F041F8204600F03FF8F5
:101EC0002777E80708D0F00706D021686FF00100F7
:101ED0000861204600F034F8280601D4A80408D58B
:101EE000300606D521686FF4025008612046FFF7DE
:101EF00054FEE80508D5300606D521686FF48070D9
:101F000008612046FFF748FE680608D5700606D52A
:101F100021686FF040000861204600F029F8A8060B
:101F20000AD5B00608D521686FF020000861204668
:101F3000BDE8F041FFF732BEBDE8F0817047704761
:101F400010B5084904460068884201D1FEF7F2FF47
:101F500005492068884203D104480188491C018052
:101F600010BD00000020004000100040A60000202E
:101F7000704710B50446D0F88000202801D0022018
:101F800010BD51B14AB10120206600206066204694
:101F900001F03CFB010002D005E0012010BD206EE5
:101FA000012802D00121084610BD226810201062CD
:101FB000206850E8002F42F0100240E80023002B78
:101FC000F6D1F0E70068034A904202D1084600F0DB
:101FD000CBBE704700480040704700002DE9F0413B
:101FE00003680446D86919689A6840F60F052842C4
:101FF0004FF000054FF0020605D182067ED58A0615
:102000007CD5A16E24E1DFF878C202F0010701EA75
:102010000C0C57EA0C0C71D05FEAC07C0CD05FEA64
:10202000C15C09D54FF0010CC3F820C0D4F884304E
:1020300043F00103C4F88430830709D5D30707D0E0
:1020400023681E62D4F8843043F00403C4F884305B
:1020500043070AD5D20708D0236804221A62D4F8AD
:10206000842042F00202C4F8842002070CD501F05B
:1020700020023A4308D0236808221A62D4F8842048
:1020800042F00802C4F8842002050BD54A0109D5A4
:1020900023684FF400621A62D4F8842042F02002D0
:1020A000C4F88420D4F88420002A36D0800605D5D0
:1020B000880603D5A16E09B120468847D4F884006C
:1020C00021688968490602D410F0280F27D02046DD
:1020D00001F050F92068806840061BD52068083060
:1020E00050E8001F21F0400140E80012002AF5D11D
:1020F000606F78B163490165606F00E015E0FEF73D
:1021000084FC002809D0606F016D00E02046BDE826
:10211000F04108472046FFF75FFFBDE8F081204609
:10212000FFF75AFFC4F88450F7E7276E2022012FEB
:102130007ED1C7067CD5CF067AD5102018622068DC
:102140008068400650D5636F186840684FF4807708
:102150000004000C3CD0B4F85810814238D9A4F8DF
:102160005A00D869B8422BD0206850E8001F21F4EB
:10217000807140E80013002BF6D12068083050E849
:10218000001F21F0010140E80013002BF5D1206869
:10219000083050E8001F21F0400140E80013002BF8
:1021A000F5D1C4F880202566206850E8001F21F092
:1021B000100140E80012002AF6D1606FFEF7DCFB48
:1021C0006666B4F85800B4F85A10401A81B207E0B5
:1021D000B4F858108142A0D1D869B8429DD1666642
:1021E0002046FFF7EFFE98E7B4F85800B4F85A100D
:1021F000401A81B2B4F85A0000288ED000298CD041
:10220000206850E8003F23F4907340E80037002F27
:10221000F6D12068083050E8003F23F0010340E881
:102220000037002FF5D1C4F880202566A56600E0B0
:1022300009E0206850E8002F22F0100240E8002357
:10224000002BF4D1CBE7030606D50B0604D5E16ECF
:1022500000297FF45BAF60E74006C4D54806C2D5CD
:102260002046016851E8003F23F0400341E8003474
:10227000002CF6D1C267C56600F0C6F94DE7000034
:1022800020010004F131000810B5040002D0E06F15
:1022900010B107E0012010BD002084F8780020462E
:1022A00000F026F82420E0672068016821F0010191
:1022B0000160606A10B1204600F008FF204601F07E
:1022C0008BF80128E7D02068416821F490414160F3
:1022D0002068816821F02A0181602068016841F04E
:1022E000010101602046BDE8104000F053BF00002E
:1022F0002DE9F04FA7B00446142121A8FEF786F976
:1023000084216846FEF782F95C4F00265A494FF453
:1023100080782068103F594D4FF0020988424FF0F5
:10232000030A4FF0070B41D18020129600906846B7
:10233000FEF7F2FE08B1FEF701FB286840F400301A
:102340002860286800F400302690386840F00800C3
:102350003860386823AA21A900F008002690602080
:10236000CDE9210982E8400C4548FEF7E7FC464DDF
:10237000444828604FF00060C5E901064014C5E9F3
:1023800003606E618001C5E90668C5E90806284654
:10239000FEF71EFC08B1FEF7D1FA656700220521A1
:1023A000AC632620FEF750FE262060E037498842C5
:1023B0005FD16846CDF800801396FEF7ADFE08B1F8
:1023C000FEF7BCFA286840F480202860286800F4F2
:1023D00080202690386840F004003860386823AACE
:1023E00021A900F0040026904FF44060CDE92109B6
:1023F00082E8400C2648FEF7A1FC234D4FF480688C
:1024000020484FF00067603560384FF4803928600D
:102410002846C5E90176C5E903686E61AE61C5E984
:1024200007696E62FEF7D4FB08B1FEF787FA6567AD
:10243000AC63154D1348C0353038E5E8020740203D
:1024400085E84101EE6010482E61C5E90569C0309C
:10245000EE61083DFEF7BCFB08B1FEF76FFA256799
:1024600000220521AC632720FEF7EEFD2720FEF7B2
:10247000DDFD27B0BDE8F08F004400404038024049
:10248000000C0240886002403409002000480040EF
:102490000008024030B4D0F88030202B02D0022057
:1024A00030BC704791B18AB10023036603685B6852
:1024B0001B0208D5036853E8004F44F0806443E8EA
:1024C0000045002DF6D130BC01F0A0B80120E7E7AF
:1024D000704770472DE9F8430446C06F1F46154604
:1024E0000E46202802D00220BDE8F8839EB195B1A7
:1024F0000020C4F884002120E067FEF715FDA4F851
:1025000050508146A4F852504FF02008A068B0F512
:10251000805F02D003E00120E6E7206910B1354674
:10252000002610E000250EE08021204601F0BEF8D4
:10253000B8B9D5B115F8010B21688862B4F852001A
:10254000401EA4F85200B4F852004B464FF000026F
:1025500000970028E8D14FF04001204601F0A6F88E
:1025600040B1C4F87C800320BEE736F8020BC0F30C
:102570000800E1E7C4F87C800020B5E770B50446A8
:10258000C06F202801D0022070BD29B322B3E164BE
:10259000A4F85020A4F852200021C4F8841021206F
:1025A000E067206FD0B1154BC363236F14481864E4
:1025B000236F1448D8641346206F01652068256F87
:1025C00000F12802E16C2846FEF76AFB30B11020CA
:1025D000C4F884002020E067012070BD21684020FD
:1025E00008622068083050E8001F41F0800140E890
:1025F0000012002AF5D1002070BD00002933000828
:102600006B3300080132000870477047FEE7000096
:102610002E482DE9F041006840682D4EC0F500704D
:1026200087B243E0002000F00FFC552843D1012081
:1026300000F00AFC53283ED100252C46A0B200F041
:1026400003FC641C28440A2CC5B2F7DB0A2000F006
:10265000FBFBA8422FD1062000F0F6FB0446072022
:1026600000F0F2FB44EA002000B200EE100ADFEDB9
:10267000190A1B48B8EEC00A9FED1A1A20EE200A6C
:10268000DFED150A20EE200ADFED140A20EE200A05
:10269000D0ED020A00EE810A80ED020A3078C043D4
:1026A000307070880B30C0F30800708070888742EB
:1026B00004D3381A05E07088401CF4E7C0F50071B7
:1026C000C81980B20B28ADD2BDE8F08134090020D2
:1026D0008800002000000038000034436666663F32
:1026E000B8D40020CDCCCC3D0C49002010B50C4C0A
:1026F0004880082021680862102021680862420191
:1027000008492046FFF7C6FE08B1FEF717F9206812
:10271000816841F00101816010BD00008800002047
:1027200024080020C4D4002008B502F03DFE00902B
:10273000FFF76EFF1421684602F07CF9F8E700000D
:10274000064905201CB500234FF48072CDE9000135
:10275000064803A102F0BCFD1CBD00002C010020B6
:10276000494D555F5461736B000000002927000834
:1027700010B5FEF7BBF8FEF7E3F800F0FBF901F047
:1027800057FA08490020487001F0F6FAFDF7FAFF01
:10279000FFF7D6FF00F016F9BDE81040002002F068
:1027A00097B90000AE000020064906201CB50023A2
:1027B0004FF48072CDE90001064803A102F088FDC4
:1027C0001CBD000024010020496E69745F546173D0
:1027D0006B00000071270008114808B5016841F43A
:1027E0000011016000680022052100F40010009033
:1027F0000C20FEF729FC0C20FEF718FC0022052116
:102800000E20FEF721FC0E20FEF710FC0022022114
:102810001020FEF719FCBDE808401020FEF706BCAA
:102820003038024000B587B007491C226846FDF7E2
:10283000BBFE0021684601F0F5FA0449086000F08B
:102840004BFB07B000BD000030570008000000201F
:10285000114808B5016841F080010160016801F08C
:1028600080010091016841F001010160016801F0FF
:1028700001010091016841F004010160016801F06B
:1028800004010091016841F008010160006800F056
:102890000800009008BD0000303802403EB51048E6
:1028A00000240E49009401940294016040F28331A7
:1028B000C0E901146321C16080218161FFF7C2F981
:1028C00008B1FEF73BF80648694600940294FFF70A
:1028D00067F9002801D0FEF731F83EBD0010004036
:1028E000D80700200D480C220B4910B501604FF4A9
:1028F000E131416000218160C160C0E90412816161
:10290000C16101624162FFF7BFFC002803D0BDE84E
:102910001040FEF713B810BD00440040240800200A
:102920000D480C220B4910B501604FF4E1314160B4
:1029300000218160C160C0E904128161C16101624E
:102940004162FFF7A1FC002803D0BDE81040FDF76D
:10295000F5BF10BD00480040AC0800202DED048BF1
:102960004FF4967002F03EF8FDF746FF4FF47A748C
:10297000204602F037F89FED108ADFED108A9FEDB8
:10298000109AB0EE481AF0EE480AB0EE680A00F06D
:1029900037F8322002F026F8B0EE481AF0EE480A76
:1029A000B0EE490A00F02CF8322002F01BF8204665
:1029B00002F018F8E5E70000000000000000FA430C
:1029C0000000FAC3094905201CB500234FF400722A
:1029D000CDE90001094806A102F07AFC012803D0E4
:1029E000BDE81C40FDF7AABF1CBD00002801002067
:1029F0004D61696E5F5461736B0000005D290008D2
:102A000070B5FDF7DDFE3C2001F0ECFF41F28835AA
:102A100002F0CAFC0D4E044610E002F0C5FC001B9B
:102A2000A84208D39FED0A0AB0EE401AF0EE400A21
:102A300000F082F905E00A2001F0D4FF3078012887
:102A4000EBD1BDE87040322001F0CCBFF000002097
:102A500000000000FEE7000070B514460D46064673
:102A600001F0E0FE214B03F1080093ED010AD0EDE7
:102A7000010A00F1080100F1100230EE600AD1ED08
:102A8000010A30EE600AD2ED010A70EE200AB5EEBE
:102A9000000A60EE800AC6ED000AD3ED010A90ED4F
:102AA000011A70EE810A91ED011A70EEC10A92EDE1
:102AB000011A70EEC10A60EE800AC5ED000AD3ED7E
:102AC000010A90ED011A70EE810A91ED011A70EE83
:102AD000810A92ED011A70EE810A20EE800A84EDDF
:102AE000000ABDE8704001F0C1BE0000D000002027
:102AF00010B52DED048BF0EE418AB0EE609AB0EE89
:102B0000408A01F08FFE38EE890A0E4870EE080AFE
:102B100030EE480AC0ED000A083080ED000A38EEB9
:102B2000C90A083070EE480A30EE080AC0ED000A03
:102B3000083080ED000ABDEC048BBDE8104001F0C8
:102B400095BE0000D000002070B5084D04462888CE
:102B5000844201D3002006E0021B05480119FDF75D
:102B6000E1FC2888001B288070BD0000AC0000201C
:102B7000D8D7002012482C219FED100A10B580ED07
:102B8000000A80ED010A083080ED000A80ED010A9C
:102B9000083080ED000A80ED010A083080ED000A5F
:102BA00080ED010A0748FDF731FD06498022BDE8A6
:102BB000104005488039FFF7DCB900000000000034
:102BC000D000002070D70020AC080020401E032851
:102BD00001D801207047002070470000D0F8031092
:102BE0008279DFED280A09BA9FED271A21F0FF014B
:102BF000114300EE101A8178B8EE400A012960EE08
:102C0000200A80EE810A01D1B1EE400A00781F4906
:102C10001F4A012811D002281BD0032825D00428E0
:102C20000AD101F13A0080ED010A487840F008002D
:102C300048705069401C506170471448223080ED44
:102C4000010A487840F0010048709068401C90608C
:102C500070470E482A3080ED010A487840F00200A3
:102C60004870D068401CD06070470848323080ED12
:102C7000010A487840F0040048701069401C106157
:102C8000704700000000B44300FF7F47AE00002003
:102C900070D70020FFB520480022F6256C4601239E
:102CA000C82641686B2700918168019101690291F2
:102CB000C0680390501C0128844611D0022812D00D
:102CC000032815D0BCF1040F15D0002154F82200C0
:102CD000002980F800C0457010DD002282700FE0EE
:102CE000BDEEC02A01E0BDEEE02A12EE101AEDE7BB
:102CF000BDEEC12AF9E7BDEEE12AF6E7494283704D
:102D00000A0AC27001710CF0FF024671042A837135
:102D1000C771CFD3FFBD0000AC00002008B5032170
:102D20008DF8000036208DF801006B208DF8020030
:102D3000684601F0F3FC08BD10B5FFF7D9FE09485D
:102D4000D0ED001A083890ED001A0838D0ED000ACE
:102D5000083890ED000AFFF79DFFBDE8104000F035
:102D600091B80000E80000200B4910B50A68521C19
:102D70000A604A6802444A60411E7F2904D8C1B2F1
:102D80000548803800F0F8FC03498022BDE8104077
:102D900002488039FFF7EDB870D70020AC0800205A
:102DA000FEE770EE600A90ED030A30EE200A80ED37
:102DB000030A90ED041AB4EEC10AF1EE10FA06DC33
:102DC000B1EE411AB4EEC10AF1EE10FA01D280ED73
:102DD000031A90ED010A90ED031AD0ED071A20EEC8
:102DE000010A90ED001A70EEE11A01EE200A90ED52
:102DF000021AC0ED070AD0ED060A01EE210AF4EE30
:102E0000C00AF1EE10FA06D3D0ED050AF4EEC00ABE
:102E1000F1EE10FA01DDB0EE600A704780EC030AB3
:102E20009FED070A80ED040AC0ED061A9FED050A22
:102E300080ED052A80ED030A80ED070A7047000047
:102E40000000C842000000000349498808440349C3
:102E5000C0F30800085C704788000020C4D400203C
:102E600008B5002004218DF80000FF208DF8010036
:102E700066208DF802006B208DF80300684601F093
:102E80004DFC08BD0B48082110B501F047FC09486E
:102E900008210F3001F042FC064808212D3001F0D6
:102EA0003DFC044808211E3001F038FCBDE810400C
:102EB000FFF7D6BF9CD70020012000F0A7FFFBE75B
:102EC00010B501F0AFFCFFF76FFC01F0CFFCBDE8DF
:102ED0001040002001F0FCBD064905201CB5002370
:102EE0004FF40072CDE90001064803A102F0F0F9A9
:102EF0001CBD00002001002053746172745F746176
:102F0000736B0000C12E0008502010B572B680F31C
:102F10001188BFF34F8FBFF36F8F62B602F04AFA8A
:102F200018B104494FF080500860002080F31188E8
:102F300010BD000004ED00E010B592B030216846ED
:102F4000FDF764FB14210CA8FDF760FB1F48016826
:102F500041F080510160006800F0805011901C48E1
:102F6000016841F4404101600068022400F44040DF
:102F7000119001200090000401908001CDE90640ED
:102F800004200890D820CDE9090468460B94FEF788
:102F90004DFC08B172B6FEE7FEF788F808B172B6CC
:102FA000FEE70F20CDE90C0400200E904FF4A05056
:102FB0000F904FF48050109007210CA8FEF728FBCB
:102FC000002801D072B6FEE712B010BD40380240B2
:102FD000007000400248016841F4700101607047D0
:102FE00088ED00E00148FEF704BF0000D80700208C
:102FF0000148FEF7FEBE0000540A0020F0B502684A
:103000004FF0804E264D274E274FA842DFF89CC038
:10301000274B09D0704507D0B04205D0B84203D045
:10302000604501D0984203D122F070044A682243DF
:10303000A8421BD0704519D0B04217D0B84215D065
:10304000604513D0984211D01A4CA0420ED01A4CB1
:10305000A0420BD0194CA04208D0194CA04205D078
:10306000184CA04202D0184CA04203D122F4407464
:10307000CA6822434C6922F0800222438C68C462F1
:103080000C688462A84201D0984201D109690163A9
:10309000016841F004010160012141610260F0BD5D
:1030A000000001400004004000080040000C004007
:1030B000000401400040014000440140004801403C
:1030C00000180040001C00400020004090F8241030
:1030D000090706D501684A68436B22F400421A4387
:1030E0004A6090F82410C90706D001684A68836ACC
:1030F00022F400321A434A6090F82410890706D55A
:1031000001684A68C36A22F480321A434A6090F820
:103110002410490706D501684A68036B22F480220F
:103120001A434A6090F82410C90606D501688A68D7
:10313000836B22F480521A438A6090F82410890627
:1031400006D501688A68C36B22F400521A438A606C
:1031500090F82410490611D501684A68036C22F4DE
:1031600080121A434A60016CB1F5801F06D10168D4
:103170004A68436C22F4C0021A434A6090F8241053
:10318000090606D501684A68806C22F400220243D1
:103190004A607047F8B500250446C0F88450FDF732
:1031A000C3FE0346206800684FF02006000716D5CE
:1031B0006FF07E40009000222046310400F076FA45
:1031C00068B1206850E8001F21F0800140E800123B
:1031D000002AF6D1E667032084F87850F8BDE66748
:1031E000C4F8806025666566002084F87850F8BDD4
:1031F00010B5806B0021A0F85A10FEF7EDFE10BD4F
:1032000070B5846BE06FD4F88050216889684FF006
:103210000006090606D5212804D1A4F852602046EC
:1032200000F0CEF820688068400606D5222D04D133
:10323000A4F85A60204600F09DF8D4F8840040F0CD
:103240001000C4F884002046FEF7C6FE70BD034699
:1032500070B5D9690024806BB1F5807F2DD0A0F8BE
:103260005A40016851E8002F22F4807241E800259D
:10327000002DF6D10168083151E8002F22F001023B
:1032800041E80025002DF5D10168083151E8002FF3
:1032900022F0400241E80025002DF5D12021C0F8A0
:1032A0008010016E012908D1016851E8002F22F039
:1032B000100241E80025002DF6D14466016E012977
:1032C00002D0FFF705F970BDA0F85A4019684968A7
:1032D000B0F8582089B28A4201D9A0F85A10B0F843
:1032E0005A10511A89B2FEF76DFE70BD10B5024634
:1032F000806B01214166016E012902D0FFF7E9F8D8
:1033000010BDB0F858104B08A0F85A301268526837
:1033100092B2914201D3A0F85A20B0F85A20891AEB
:1033200089B2FEF74FFE10BD014610B5806BC9692A
:10333000B1F5807F16D00021A0F852100168083145
:1033400051E8002F22F0800241E80023002BF5D144
:10335000016851E8002F42F0400241E80023002BB1
:10336000F6D110BDFFF750F910BD10B5806BFFF717
:103370004CF910BD016851E8002F22F4907241E829
:103380000023002BF6D10168083151E8002F22F00C
:10339000010241E80023002BF5D1016E012908D17B
:1033A000016851E8002F22F0100241E80023002BB1
:1033B000F6D12021C0F88010002101668166704797
:1033C000016851E8002F22F0C00241E80023002BE1
:1033D000F6D12021C167704770B504468168006945
:1033E0000025E269014360691043014320680268D7
:1033F0007B4B1A400A43026020684168E26821F46E
:10340000405111434160216AA069014320688268EC
:1034100022F430620A438260724B4FF4004220680B
:10342000714998420AD1086810F0030052D001286F
:103430007CD002287BD003286ED187E06B4B98426A
:103440000AD1086810F00C007AD004287CD0082833
:1034500078D00C2860D179E0654B98420AD1086891
:1034600010F030006CD010286ED020286AD03028A0
:1034700052D16BE05F4B98420AD1086810F0C0004F
:103480005ED0402860D080285CD0C02844D15DE068
:10349000594B98420DD1086810F4407050D0B0F5E7
:1034A000807F51D0B0F5007F4CD0B0F5407F33D154
:1034B0004CE0524B98420FD1086810F4406009D09C
:1034C000B0F5806F40D0B0F5006F3BD0B0F5406FE5
:1034D00022D13BE0012120E0494B98420DD1086800
:1034E00010F440502CD0B0F5805F2DD0B0F5005FC7
:1034F00028D0B0F5405F0FD128E0424B98420BD165
:10350000086810F440401BD0B0F5804F1CD09042AA
:1035100018D0B0F5404F19D01021E3693A484FF662
:10352000EF76934233D109294CD202E00CE009E056
:1035300006E0DFE801F00D10154729474747160060
:103540000021EAE70221E8E70421E6E70821E4E7B1
:10355000FEF71CF901E0FEF729F9020001D139E07C
:1035600002466068510001EB5001B1FBF0F0A0F1A0
:103570001001B14226D84FF6F0710140C0F342006D
:1035800001432068C16025E0FEF720F9E5E709293D
:1035900018D2DFE801F005080D17191717170E00EC
:1035A000FEF7F4F801E0FEF701F9020001D111E0A5
:1035B0000246606802EB5001B1FBF0F0A0F110018F
:1035C000B14204D9012505E0FEF700F9EDE72168D5
:1035D00080B2C8600020A066E066284670BD00008A
:1035E000F369FFEF001001409038024000440040B2
:1035F00000480040004C00400050004000140140D2
:1036000000780040007C00400024F40070B5416563
:103610000021A0F858200446C0F884102220C4F8E5
:103620008000606FD8B11E4BC363636F1D48186480
:10363000636F1D48D8641346606F0165606D656FE8
:103640002168024628462431FDF72AFB38B11020B4
:10365000C4F884002020C4F88000012070BD2069D7
:1036600040B1206850E8001F41F4807140E800122A
:10367000002AF6D12068083050E8001F41F001010F
:1036800040E80012002AF5D12068083050E8001FF9
:1036900041F0400140E80012002AF5D1002070BD41
:1036A0004F320008ED320008013200082DE9F047E2
:1036B0001F4690460D460446089E4FF0000932E032
:1036C000701C30D0FDF730FCC01BB04218D8BEB122
:1036D00020680168490726D5802D24D0402D22D0AE
:1036E000C169C94309070DD4082505622046FFF7C3
:1036F00041FEC4F88450012084F87890BDE8F0873A
:103700000320FBE7C069C04300050CD421684FF4D7
:10371000006008622046FFF72DFE2020C4F88400D8
:1037200084F87890ECE72068C06935EA000004D09E
:1037300000204045C4D00020E0E70120F9E7000068
:1037400009490868C269120701D50822026208689F
:10375000C269520701D5042202620868C16989075B
:1037600001D5022101627047240800200148FEF7BC
:1037700035BC0000AC0800202DE9F0410C000146EA
:103780005CD02F4F2F4D3888204480B2B0F5807F19
:1037900004D9A86A401CA86200203880294E22461D
:1037A000388868363044FCF778FE38882044388002
:1037B00041E03078FFF70AFA58B1398802293DD341
:1037C0007078362809D0F62809D0286A401C28626B
:1037D00010E0E869401CE8610CE0082400E00424E3
:1037E000A1422BD3301910F8010C6B2804D0686A61
:1037F000401C686201201CE0082C07D03078FFF7DD
:10380000E5F9A8B17078F62805D011E00D486830C8
:10381000FFF7E4F90CE0B078022809D1F0786B28C2
:1038200006D107490120891C0870A869401CA861BD
:103830002046FFF789F938880028BAD1BDE8F08121
:10384000AC00002070D7002070B50546FDF76CFB7A
:103850000C4E044611E0FDF767FB001BA84201D3A4
:10386000032070BD01F092FD01284FF0010002D04D
:1038700001F0B8F801E0FDF74FFAF06F2028EAD127
:10388000002070BDAC080020FEE70907090E0028E3
:1038900004DB00F1E02080F80014704700F00F0016
:1038A00000F1E02080F8141D704710B52DED028B5B
:1038B000B1EEC08A18EE100A20F00040C0F1FF40BF
:1038C000C00F0AD010EE100A20F00040C0F1FF40F7
:1038D000C00F04BF0120FCF7C8FEB0EE480ABDECE3
:1038E000028B10BD30EE600A0849DFED090A10EEC8
:1038F000100A884202DD30EE600A704710EE100AAE
:1039000004498842F9D930EE200A70470000344358
:103910000000B443000034C3F0EEE00AF4EEC10A44
:10392000F1EE10FA02D89FED0F0A7047B5EEC00A0B
:10393000F1EE10FA07DDB4EEE10AF1EE10FA02D270
:10394000B0EE610A7047B5EEC00AF1EE10FAF9D296
:10395000F1EE610AB4EEE00AF1EE10FAF2DDB0EE3B
:10396000600A70470000000070B52DED088B00F074
:1039700059FFA64844780025A54E31790C4334718F
:10398000457000F073FFE0430007DFEDA29A26D0F8
:103990003078012800D03570F078401CC0B2F0704B
:1039A0000A280FD3B0EE690A86ED080A86ED090AE7
:1039B00086ED0A0AB0EE401AF0EE400AFFF7BCF9B5
:1039C00075703571B078401CC0B2B07002287CD3DD
:1039D000B570BDEC088BBDE8704000F0CDB98E4AE3
:1039E0003571A2F10C01F570081DFFF735F88A4C0E
:1039F000143C207E012806D1884890ED020A00F090
:103A0000C7F984ED050A94ED030AD6ED020A70EEBB
:103A1000608A94ED020AD6ED030A30EE608A94EDD6
:103A2000050AD6ED040AFFF75DFFB0EE409A94ED6B
:103A3000010AF0EE490A70EE68AA94ED000A30EE31
:103A400048AA94ED040AFFF74DFF7348B0EE40BA60
:103A5000083094ED010AF0EE680AFFF7A2F96E480B
:103A600086ED050A283094ED000AF0EE480AFFF7CB
:103A700098F9694886ED060A483094ED040AF0EE9C
:103A8000490AFFF78EF986ED070AD4ED040A644966
:103A9000F0EEE00A10EE900A884205DADFED610AE6
:103AA00009EE200A86ED070AB0EEEA8AB2EE049A21
:103AB00028EE090AFFF7F9FEF0EE400A96ED050A36
:103AC00000F01CF986ED050A00E09CE0F0EECA8AE1
:103AD00028EE890AFFF7E9FEF0EE400A96ED060AA5
:103AE00000F00CF986ED060AB0EECB9AB3EE000AB0
:103AF00029EE000AFFF7D9FEF0EE400A96ED070A1C
:103B000000F0FCF818EE100A474986ED070A8842D3
:103B100018EE900AB0EE080A60FE291A884220FECC
:103B200029BAB1EE041AF0EE6A0A96ED050AFFF71B
:103B3000F3FE86ED050AF0EE4B1AB1EE041AF0EE34
:103B40004A0A96ED060AFFF7E7FE19EE100A4FF053
:103B50007E5286ED060A904201DCC6ED079A18EE09
:103B6000100A3249884225DC18EE900A884221DC8E
:103B700019EE100A90421DDCB0EE690A86ED080AC3
:103B800086ED090A86ED0A0AB0EE401AF0EE400A08
:103B9000FFF7D2F87078062805D2401CC0B27070CA
:103BA0000628FFF40FAF307800287FF40BAF012018
:103BB000307007E775703570B2EE0E1AD6ED080A50
:103BC00096ED050A00F0A9F886ED080AB2EE0E1A85
:103BD000D6ED090A96ED060A00F09FF886ED090A6F
:103BE000B1EE0E1AD6ED0A0A96ED070A00F095F826
:103BF00086ED0A0AB0EE401AD6ED090A96ED080ADB
:103C0000FFF79AF8DEE6BDEC088B70BDAE00002031
:103C1000F000002000000000ECD80020B8D4002004
:103C20006F12833ACDCC4CBF0000C8420000A040C8
:103C300010B52E482DED048B9FED2A8ADFED278AE3
:103C40009FED279ADFED289AB0EE682AF0EE491A28
:103C5000B0EE481AF0EE480AB0EE690AFFF7DEF857
:103C60002248B0EE682A2030F0EE491AB0EE481A29
:103C7000F0EE480AB0EE690AFFF7D0F81B489FED56
:103C80001C2A4030DFED1B1AB0EE481AF0EE480A4D
:103C9000B0EE000AFFF7C2F8144817491C3880ED4F
:103CA000018A80ED008A80ED048A80ED038A80ED30
:103CB000028A80ED058A81ED028A81ED038A81ED19
:103CC000048A81ED088A81ED098A81ED0A8A012141
:103CD00001764176BDEC048B10BD00000000AFC33F
:103CE0000000AF4300000000295C8F3EF4D80020A4
:103CF000000034C300003443F0000020B4EEE00ABA
:103D0000F1EE10FA06DCF1EE600AB4EEE00AF1EE34
:103D100010FA01D2B0EE600A704770EE601AF4EE4D
:103D2000C11AF1EE10FA02DDF0EE411A08E0B1EE30
:103D3000410AF4EEC01AF1EE10FA01D2F0EE401A88
:103D400030EEA10A7047FDF7FDF8FFF7F5F8FEF732
:103D50007FFDFEF741FDFEF7C5FDFEF7E1FDFEF735
:103D60009DFDFEF75FFD00F058F8FEE701460020DC
:103D7000842900D0C81C704710B50124E0B2FEF7BA
:103D8000CDFF0120FCF7C0FD641C042CF6DD10BD46
:103D90001A4A1B49D2ED020AF5EEC00AF1EE10FAFA
:103DA00008D100200880F7EE000AC2ED020A82ED79
:103DB000010A7047D2ED010A124B70EE600AB0EEB4
:103DC000E01A11EE100A98420BDD0D48F5EEC00A1C
:103DD000F1EE10FAB0F9000001DD401E00E0401CD9
:103DE000088082ED010AB1F900009FED071A00EE8C
:103DF000900AF8EEE00A00EE810A7047E4D600204F
:103E0000A8000020000034430000B44310B500B9FE
:103E1000012000F0E7FD002010BD10B500F0F6FE17
:103E2000002010BD7FB50D4641690446B0F9080079
:103E300081B1A16971B1FFF799FFD4E905122B4651
:103E40008DE807002269D4E9001001F06EFA0390B2
:103E500004B070BDFFF78AFF03A92B46CDE900012E
:103E6000208A82B2D4E9001001F032FA012801D090
:103E70000020EDE70398EBE72DE9F041184E0F46DF
:103E8000044675693068001D00F066FC38B930687A
:103E900090F82C1001208840B1698143B161601C09
:103EA00007D137B13168BDE8F0410E48091D00F077
:103EB000ADBC30682C44AC424460316805D2B06877
:103EC000091DBDE8F04100F089BC7068091D00F0D3
:103ED00085FC306B844200D23463BDE8F081000081
:103EE00014000020BC0B00202DE9F041054600F035
:103EF00099FC2E4E3069401C306130682C4F10B157
:103F0000F06940B32DE035603069012829D10024E3
:103F100004EB840007EB800000F052FC641C072CCB
:103F2000F6D323488C3000F04BFC2148A03000F041
:103F300047FC1F48B43000F043FC1D48C83000F077
:103F40003FFC1B48DC3000F03BFC19488C307060B3
:103F50001430B06005E03068E96AC06A884200D871
:103F600035600121F06A401CF062E86AB269814064
:103F70001143B16100EB8000291D07EB800000F0C8
:103F800045FC00F073FCF06900280CD03068E96A49
:103F9000C06A884207D207494FF080500860BFF3DB
:103FA0004F8FBFF36F8FBDE8F08100001400002039
:103FB000E00A002004ED00E038B500F033FC104CBE
:103FC000A068C8B90F4800F0FBFB0E48143000F0A1
:103FD000F7FB0C480C210B4B206014302833606039
:103FE000002000900A2003F1480200F0EFFEA060DC
:103FF00010B105A100F0C2FCBDE8384000F036BCAD
:1040000050000020D00B0020546D725100000000C1
:1040100030B4026C0B46002A0BD0C1681144C16059
:104020008468A14201D30168C160184630BCFCF726
:1040300034BA30BC70472DE9F041856B0026174635
:104040000446026C82B1C7B1E068FCF726FAE16869
:10405000206C091AE1602268914202D2A168081A14
:10406000E060022F16D017E02068A8B9A06801F020
:1040700007FA06460020A0600EE06068FCF70DFA23
:10408000216C606808446060A168884204D320689D
:10409000606001E005B16D1E6D1CA5633046BDE892
:1040A000F08110B5044690F8510068B101280ED097
:1040B000022811D0502072B680F31188BFF34F8FC1
:1040C000BFF36F8F62B6FEE7206B00F0E5FB204682
:1040D000BDE8104000F0E0BB10BD000010484FF4F8
:1040E0004841420706D00E49C01D20F00700411A82
:1040F000C1F548410B4A002301440839C2E90003D5
:10410000103A21F0070111604B600B600B1AC0E9F7
:10411000001393604FF000405360D0607047000080
:10412000B80C002074000020134E4FF08058134D3F
:10413000DFF84C90A6F1C80711E000F073FBF068BF
:10414000C468201D00F008FB2869401E2861E8684B
:10415000401EE86000F08AFB2046FFF7A2FFE868F7
:104160000028EAD138680128F9D9C9F80080BFF3DE
:104170004F8FBFF36F8FF2E7A80B002014000020D1
:1041800004ED00E00346009829B10260C0E90F3158
:10419000012100F057BE0060F8E72DE9F0479A468C
:1041A00081466FF00303DDE9098403EB8202089D79
:1041B000206B104420F00706700709D0502072B61B
:1041C00080F31188BFF34F8FBFF36F8F62B6FEE7A6
:1041D000002761B1002023180A5C83F834200A5CB0
:1041E00012B1401C1028F6D384F8437001E084F823
:1041F0003470072D00D30625E562201DC4E9115750
:1042000000F0E9FA04F1180000F0E5FA2461C5F1C4
:1042100007006462A061E76484F850705246494622
:10422000304600F065FAB8F1000F206001D0C8F800
:104230000040BDE8F087000030B5114900E01146AC
:104240000A688242FBD34B685C18844203D1406801
:1042500018444860084643681C18944209D1084C29
:10426000103C2468A24209D052681A4442600A688D
:1042700012680260814200D0086030BD0460F9E736
:104280007400002070B50C4D002441609142006123
:1042900006D8D11A8269914206D2011D686807E0EA
:1042A0009A4203D2994201D3012403E0011D2868F8
:1042B00000F094FA204670BD5000002010B504466E
:1042C00000F0B0FAA06B20B1002400F0CFFA204635
:1042D00010BD0124F9E7000030B53A4D85B068E023
:1042E0000198002865DB039C606910B1201D00F077
:1042F00033FA04A800F0DAF8024601980A2858D2E6
:10430000DFE800F00505052F324B05052F3294F844
:10431000240040F0010084F824000298A1690346BB
:1043200001442046FFF7AEFF60B3216A204688476C
:1043300094F8240040073CD5002000900298002308
:10434000A16942181946204601F0BCF9D0B95020A5
:1043500072B680F31188BFF34F8FBFF36F8F62B6D1
:10436000FEE794F8240020E094F8240040F00100D7
:1043700084F824000298A06128B1811813462046D1
:10438000FFF780FF15E0502072B680F31188BFF36D
:104390004F8FBFF36F8F62B6FEE794F8240081075A
:1043A00003D4204600F078FA03E020F0010084F8FE
:1043B0002400A868002201A900F0AAFE00288FD1DD
:1043C00005B030BD500000202DE9FC410F460546E8
:1043D00000F062FC01A800F069F80446019818B1E9
:1043E00001F0DAF8BDE8FC81264EAFB170680068D4
:1043F000E0B30027B068291B3A4600F0D1FA01F07B
:10440000CBF80028EED120494FF080500860BFF370
:104410004F8FBFF36F8FE5E7A542EBD801F0BCF8F3
:1044200030682746C068C468201D00F095F994F8EC
:10443000240041071BD5A0692B463A464119204666
:10444000FFF720FFB8B100202A460346014600903E
:10445000204601F037F970B9502072B680F3118808
:10446000BFF34F8FBFF36F8F62B6FEE707E020F018
:10447000010084F82400216A20468847B2E701271A
:10448000B8E700005000002004ED00E00648416855
:10449000096829B14168C968C968496801637047FA
:1044A0004FF0FF31FAE700001400002070B5054618
:1044B00000F07AFF064E04463069844203D200F0D1
:1044C00009F8012000E0002028602046346170BD1A
:1044D00050000020F8B51A4E20E0C068C468056896
:1044E000201D00F039F9216A2046884794F82400FD
:1044F000400713D5A0692844A84206D92461211D8C
:104500006060306800F06AF908E000202A4603463F
:1045100001460090204601F0D5F838B130680168B6
:104520000029DAD17168C6E90010F8BD502072B6D2
:1045300080F31188BFF34F8FBFF36F8F62B6FEE732
:10454000500000200A484068401C4FF0500072B6EE
:1045500080F3118805D0BFF34F8FBFF36F8F62B622
:10456000FEE7BFF34F8FBFF36F8F62B6FEE7000029
:104570007C000020084C2068016839B1002139B165
:104580000020FFF721FFFFF7A7FEF4E70121F6E780
:10459000C0680068F5E70000500000202DE9F041F8
:1045A000044600F03FF994F9455004F1240609E06F
:1045B000606A48B1304600F0B3FF08B100F0E8FA95
:1045C0006D1E6DB2002DF3DC4FF0FF3684F84560B0
:1045D00000F04CF900F026F994F9445004F110076A
:1045E00009E0206948B1384600F09AFF08B100F0B0
:1045F000CFFA6D1E6DB2002DF3DC84F84460BDE887
:10460000F04100F033B900002DE9F04100260546E5
:1046100000F042FB354F386808B9FFF75FFDF868D6
:1046200005424FD1E5B30835680710D005F0070003
:10463000C0F108000544680709D0502072B680F325
:104640001188BFF34F8FBFF36F8F62B6FEE73DB3A4
:104650007868854236D8254910310846046801E05B
:10466000214604466068A84202D220680028F7D19B
:104670003868844226D00E68206808600836606872
:10468000411B102911D9601942070AD0502072B677
:1046900080F31188BFF34F8FBFF36F8F62B6FEE7D1
:1046A00010E041606560FFF7C7FD61687868401AF7
:1046B0007860BA68904200D2B860F8680143002080
:1046C000C4E9000100F068FF0EB900F06FF8700750
:1046D00009D0502072B680F31188BFF34F8FBFF31B
:1046E0006F8F62B6FEE73046BDE8F08164000020BF
:1046F000031F10B54FF080741C601B1F21F00101D7
:104700001960191F044B0B6014390A60091F4438E3
:104710006FF002020A6010BD4545000870B50C46F6
:1047200005461420FFF790F850B90A48224629465A
:10473000FDF724FF20B91420FFF786F8002807D0E2
:1047400022462946BDE8704002481423FDF7C2BE48
:1047500070BD0000AC080020D0E9013201699A6008
:10476000D0E901235A604A68824201D182684A60D6
:10477000002202610868401E086008687047000057
:10478000034B036003F15400086080201060704701
:1047900030010020044B036003F1540008604FF423
:1047A000807010607047000084030020502072B6B3
:1047B00080F31188BFF34F8FBFF36F8F62B6FEE7B0
:1047C0004FF0FF3200F10801C0E90112C160016140
:1047D00000210160704700210161704730B50C680D
:1047E000621C02D000F1080202E0026904E01A46ED
:1047F00053681D68A542FAD953684B6099608A6076
:10480000516008610168491C016030BD42684A601E
:1048100093688B6093685960916008610168491CD6
:1048200001607047502072B680F31188BFF34F8F3C
:10483000BFF36F8F0B4962B64868401C486001287F
:104840000ED10948006810F0FF0F09D0502072B651
:1048500080F31188BFF34F8FBFF36F8F62B6FEE70F
:10486000704700007C00002004ED00E00949486822
:1048700028B1401E486001D180F311887047502054
:1048800072B680F31188BFF34F8FBFF36F8F62B69C
:10489000FEE700007C00002070B500282BD0164DEC
:1048A000A0F108046068E968084209D1502072B696
:1048B00080F31188BFF34F8FBFF36F8F62B6FEE7AF
:1048C00022684AB1502072B680F31188BFF34F8F2F
:1048D000BFF36F8F62B6FEE78843606000F0DCF9DB
:1048E00060686968084468602046FFF7A5FCBDE879
:1048F000704000F051BE70BD640000204FF0E02019
:104900000021016181614FF47A7204490968B1FBA9
:10491000F2F1491E4161072101617047100000203A
:1049200010B5FBF71FFD1349102810D300F1E0204C
:1049300090F8F0030A78904209D2502072B680F3C2
:104940001188BFF34F8FBFF36F8F62B6FEE70A483F
:104950000068896800F4E060884209D9502072B686
:1049600080F31188BFF34F8FBFF36F8F62B6FEE7FE
:1049700010BD00007C0000200CED00E0074B002281
:1049800010B553F832401CB1521C082AF9D310BD9F
:1049900043F8321003EBC201486010BDA00A0020AA
:1049A00070B515460E460446FFF73CFF94F94410D7
:1049B0000020491C01D184F8440094F94510491C99
:1049C00001D184F84500FFF751FFA06B28B904F12D
:1049D00024002A46314600F0FBF82046BDE870402E
:1049E000FFF7DCBD020010B516D01048806B48B14F
:1049F000502072B680F31188BFF34F8FBFF36F8FD3
:104A000062B6FEE700F048F900211046FFF734FADD
:104A100000F0C2FD002807D105494FF08050086022
:104A2000BFF34F8FBFF36F8F10BD00001400002045
:104A300004ED00E070B505000E464FF000030DD008
:104A4000B6B1214A906BE8B1502072B680F311885C
:104A5000BFF34F8FBFF36F8F62B6FEE7502072B681
:104A600080F31188BFF34F8FBFF36F8F62B6FEE7FD
:104A7000502072B680F31188BFF34F8FBFF36F8F52
:104A800062B6FEE700F008F952692C68A119944259
:104A900002D98C4202D804E08C4201D8914200D95C
:104AA000012329601BB1881A0021FFF7E5F900F006
:104AB00073FD002807D105494FF080500860BFF30F
:104AC0004F8FBFF36F8F70BD1400002004ED00E026
:104AD00070B50446FFF7A6FE264D04B92C68201DCC
:104AE000FFF73AFE58B9E06A234A00EB800152F81A
:104AF000211021B901218140A8698843A861A06AD9
:104B000018B104F11800FFF727FEE86A401CE862BC
:104B10002868844208D11848211DC830FFF776FE66
:104B2000E868401CE86007E02869401E28612046CC
:104B3000FFF7B7FAFFF7AAFCFFF798FEE86900282D
:104B400016D02868844213D1A86B48B1502072B6A1
:104B500080F31188BFF34F8FBFF36F8F62B6FEE70C
:104B600006494FF080500860BFF34F8FBFF36F8F3F
:104B700070BD000014000020E00A002004ED00E0F9
:104B800002498A6A02604969416070471400002046
:104B900001490120486270471400002010B50C46FE
:104BA00050B10A4909681831FFF718FE2046BDE8E0
:104BB00010400121FFF760B9502072B680F31188D0
:104BC000BFF34F8FBFF36F8F62B6FEE71400002074
:104BD00070B514460D4668B10B4909681831FFF7E6
:104BE00015FE0CB14FF0FF3521462846BDE8704058
:104BF000FFF742B9502072B680F31188BFF34F8F90
:104C0000BFF36F8F62B6FEE71400002030B587B0A7
:104C1000002505AA04A9039503A80495FFF7B0FD94
:104C2000DDE9030100950023CDE90110184816A124
:104C3000059A00F07AFB174C606318B100F010FD84
:104C400001280BD0401C1DD1502072B680F3118872
:104C5000BFF34F8FBFF36F8F62B6FEE7502072B67F
:104C600080F31188BFF34F8FBFF36F8F62B64FF0A1
:104C7000FF3020630120E061656107B0BDE830408E
:104C800000F042B807B030BD49444C450000000078
:104C900029410008140000200248816B491C8163EF
:104CA0007047000014000020154A906B10B10120DD
:104CB000506270470020506290691249B0FA80F04B
:104CC000C0F11F0000EB800051F820306BB101EB08
:104CD000800000F10803416849684160994201D1B0
:104CE00049684160C86810607047502072B680F310
:104CF0001188BFF34F8FBFF36F8F62B6FEE70000DE
:104D000014000020E00A00202C491CB5087801900E
:104D1000FF20087008788DF800009DF800009DF8CD
:104D2000002000F0F000904209D0502072B680F3CD
:104D30001188BFF34F8FBFF36F8F62B6FEE79DF808
:104D400000001F4B00F0500018700720986006E02C
:104D5000401E98609DF8000040008DF800009DF80E
:104D6000000000069868F3D4032809D0502072B6DA
:104D700080F31188BFF34F8FBFF36F8F62B6FEE7EA
:104D80004FF440709860019808700E48016841F433
:104D900070010160016841F070410160FFF7AEFDF4
:104DA00000205860FBF7A4FA0748016841F0404131
:104DB0000160FBF789FA00201CBD000000E400E060
:104DC0007C00002020ED00E034EF00E038B5049DC9
:104DD00018B163B1FAB1A1B128E0502072B680F3E6
:104DE0001188BFF34F8FBFF36F8F62B6FEE750207D
:104DF00072B680F31188BFF34F8FBFF36F8F62B627
:104E0000FEE7502072B680F31188BFF34F8FBFF3D7
:104E10006F8F62B6FEE749B1502072B680F31188F9
:104E2000BFF34F8FBFF36F8F62B6FEE748241C4677
:104E3000012384F846302B460094FFF7A3F920465F
:104E400038BD000070B504000D4625D0FFF7EAFC20
:104E5000D4E90F20216802FB0011A1600021A163A9
:104E6000216861600A46D4E90F01401E00FB012160
:104E7000E1604FF0FF3084F8440084F8450004F10D
:104E800010009DB1FFF79CFC04F12400FFF798FC93
:104E9000FFF7ECFC012070BD502072B680F3118842
:104EA000BFF34F8FBFF36F8F62B6FEE72169002912
:104EB000EED000F035FB0028EAD004494FF08050D6
:104EC0000860BFF34F8FBFF36F8FE1E704ED00E0A1
:104ED0002DE9FF4F04001F4683B08B464FF00006BC
:104EE00003D0BBF1000F0AD015E0502072B680F35A
:104EF0001188BFF34F8FBFF36F8F62B6FEE7206C50
:104F000048B1502072B680F31188BFF34F8FBFF3C2
:104F10006F8F62B6FEE7022F0CD1E06B012809D03B
:104F2000502072B680F31188BFF34F8FBFF36F8F9D
:104F300062B6FEE700F02AFADFF804914FF08058DD
:104F40004FF0000A58B9059848B1502072B680F366
:104F50001188BFF34F8FBFF36F8F62B6FEE7FFF785
:104F600061FCA06BE16B884205D3022F03D005984A
:104F7000C8B1DEB11EE03A4659462046FFF75BF85D
:104F8000616A19B104F1240000F0CAFA28B1C9F825
:104F90000080BFF34F8FBFF36F8FFFF767FC0120D7
:104FA00007B0BDE8F08FFFF761FC21E06846FFF72E
:104FB000E7FD0126FFF75AFCFFF76EFEFFF732FC14
:104FC00094F94400401C01D184F844A094F94500B0
:104FD000401C01D184F845A0FFF748FC05A96846AC
:104FE00000F038F930B12046FFF7D8FA00F0D4FAD3
:104FF0000020D5E7FFF716FCA06BE16B884201D1DA
:10500000012500E00025FFF731FC95B1059904F179
:105010001000FFF7C3FD2046FFF7C0FA00F0BCFA0E
:1050200000289CD1C9F80080BFF34F8FBFF36F8F6A
:1050300095E72046FFF7B2FA00F0AEFA8FE70000DE
:1050400004ED00E02DE9F04704001F469046894634
:1050500003D0B9F1000F0AD015E0502072B680F3EA
:105060001188BFF34F8FBFF36F8F62B6FEE7206CDE
:1050700048B1502072B680F31188BFF34F8FBFF351
:105080006F8F62B6FEE7022F0CD1E06B012809D0CA
:10509000502072B680F31188BFF34F8FBFF36F8F2C
:1050A00062B6FEE7FFF73CFC5020EFF3118672B6C4
:1050B00080F31188BFF34F8FBFF36F8F62B6A06B81
:1050C000E16B884206D3022F04D0002086F31188BA
:1050D000BDE8F08794F945503A4649462046FEF728
:1050E000AAFF681C04D06D1C84F845500120EDE730
:1050F000606A0028FAD004F1240000F011FA0028B8
:10510000F4D0B8F1000FF1D00121C8F80010EDE79C
:105110002DE9F74704008A4683B04FF0000603D01C
:10512000BAF1000F0AD015E0502072B680F3118852
:10513000BFF34F8FBFF36F8F62B6FEE7206C48B1AD
:10514000502072B680F31188BFF34F8FBFF36F8F7B
:1051500062B6FEE700F01AF9DFF8F49000274FF08E
:10516000805858B9059848B1502072B680F311881C
:10517000BFF34F8FBFF36F8F62B6FEE7FFF752FBAF
:10518000A56BC5B151462046FEF742FF6D1EA563D3
:10519000206950B104F1100000F0C2F928B1C9F83B
:1051A0000080BFF34F8FBFF36F8FFFF75FFB0120CE
:1051B00006B0BDE8F087059808B11EB106E0FFF71C
:1051C00055FB27E06846FFF7DBFC0126FFF74EFBA7
:1051D000FFF762FDFFF726FB94F94400401C01D164
:1051E00084F8447094F94500401C01D184F845705E
:1051F000FFF73CFB05A9684600F02CF80028204684
:105200000AD0FFF7CBF900F0C7F92046FFF756F8B0
:105210000028B3D00020CBE7FFF750F890B10599F4
:1052200004F12400FFF7BAFC2046FFF7B7F900F0BD
:10523000B3F90028A2D1C9F80080BFF34F8FBFF3A4
:105240006F8F9BE72046FFF7A9F900F0A5F995E7D6
:1052500004ED00E02DE9F04105000C4611D0D4B179
:10526000FFF7E0FA194E71696B682268C81A571C7B
:105270001BD02F68B66AB7421DD08B421BD80124C1
:1052800014E0502072B680F31188BFF34F8FBFF344
:105290006F8F62B6FEE7502072B680F31188BFF3BD
:1052A0004F8FBFF36F8F62B6FEE70024FFF7DEFA81
:1052B0002046BDE8F081824205D9101A20602846B8
:1052C000FFF75EFCF1E700202060D8E71400002023
:1052D0002DE9FF5F994616468A4683469000DDE930
:1052E0000E87FFF791F905001CD05420FFF78CF9C9
:1052F000040014D00020256384F851004B46CDE90A
:105300000087CDE90240324651465846FEF745FF38
:105310002046FEF7E9FD012004B0BDE8F09F2846D5
:10532000FFF7BAFA4FF0FF30F6E7F0B585B0054663
:10533000DDE90B040A9EA8B1F4B15427009720635D
:10534000022084F85100002004AFCDE90240CDE9ED
:1053500000672846FEF721FF2046FEF7C5FD0498AA
:1053600005B0F0BD502072B680F31188BFF34F8FA7
:10537000BFF36F8F62B6FEE7502072B680F31188DC
:10538000BFF34F8FBFF36F8F62B6FEE70548C16969
:1053900019B1806B18B100207047012070470220BE
:1053A0007047000014000020014840697047000069
:1053B000140000202DE9F0412F4F0026B86B40B1BA
:1053C000386A401C3862786A00B101263046BDE870
:1053D000F0817D696D1C7D6115D17868006848B1E8
:1053E000502072B680F31188BFF34F8FBFF36F8FD9
:1053F00062B6FEE77868B9687960B860B86A401C40
:10540000B862FFF743F8386BDFF87080854209D344
:105410007868006880B17868C068C4686068854250
:105420000DD238633868C06A00EB800158F821005B
:105430000128C8D90126C6E74FF0FF30F1E7201D4B
:10544000FFF78AF9A06A18B104F11800FFF784F990
:10545000E06A0121BA6981401143B96100EB800122
:1054600008EB8100211DFFF7D1F9E06A3968C96AAC
:105470008842CDD30126CBE714000020E00A0020AB
:1054800070B504004FF0000045D0234D29688C42D0
:1054900009D0502072B680F31188BFF34F8FBFF34D
:1054A0006F8F62B6FEE7A16C71B1491EA164636C97
:1054B000E26A9A422FD000292DD1201DFFF74CF926
:1054C0001649012250B114E0502072B680F31188C1
:1054D000BFF34F8FBFF36F8F62B6FEE7E06A00EB5A
:1054E000800351F8233023B9AB6902FA00F08343FB
:1054F000AB61606CE062C0F10700A061E06AAB697B
:1055000082401A43AA6100EB800001EB8000211D5C
:10551000FFF77CF9012070BD14000020E00A002094
:105520002DE9F041C068C468ACB104F11800074629
:10553000FFF712F9164DA86B0126B0B11548394690
:10554000FFF764F9E06A2968C96A88421ED9012018
:105550006E62BDE8F081502072B680F31188BFF30F
:105560004F8FBFF36F8F62B6FEE7201DFFF7F4F891
:10557000E06AAA6906FA00F11143A961054900EB46
:105580008000B43901EB8000211DD9E70020E0E75D
:1055900014000020940B00202DE9F0472D4D00242D
:1055A0002746A86B38B1FFF73DF9A86B401EA863EA
:1055B000A86B50B148E0502072B680F31188BFF359
:1055C0004F8FBFF36F8F62B6FEE72869012622492D
:1055D000D0B3A1F1B4098846D8F80010E9B1D8F8E1
:1055E0000C00C46804F11800FFF7B6F8201DFFF79F
:1055F000B3F8E06AAA6906FA00F11143A96100EB69
:10560000800109EB8100211DFFF700F9E06A29689C
:10561000C96A8842E0D36E62DEE70CB1FEF736FF5E
:105620002C6A3CB1FFF7C6FE00B16E62641EF9D170
:1056300000202862686A38B10849012738070860E5
:10564000BFF34F8FBFF36F8FFFF710F93846BDE8F8
:10565000F087000014000020940B002004ED00E00F
:1056600010B586B0FEF7A8FC124CA068B8B10020B7
:10567000039005AA049004A903A8FFF78BF8DDE9BD
:105680000321022000238DE807000D480AA1059A96
:10569000FFF74BFEE06010B106B0012010BD5020B6
:1056A00072B680F31188BFF34F8FBFF36F8F62B66E
:1056B000FEE7000050000020546D72205376630016
:1056C00075450008FEB51F4603004FF00000089E18
:1056D00013D0134DAC68002C0ED08DE80E000629B7
:1056E00017DAFFF753FE02284FF000030FD0002215
:1056F000A8686946FFF7ECFBFEBD502072B680F348
:105700001188BFF34F8FBFF36F8F62B6FEE732464B
:10571000EEE700233A4669462046FFF793FCFEBDBC
:10572000500000204FF04070E1EE100A704700007A
:105730006C570008B92E00080000000000000000AF
:1057400080000000000000000000000000061016AD
:105750000006101600000000000000000102030413
:105760000607080900000000010203046465666181
:10577000756C745461736B0098570008000000202A
:105780003001000004020008CC570008300100205E
:1057900088DE0000600200084132018210036D249F
:1057A000F41AAA01812809FFAA6988B5FFAA760A16
:1057B0001B030B051B040605E1139CD71B20AB0440
:0C57C0001ABA041AC904E91001600000C4
:04000005080001C925
:00000001FF
