:020000040800F2
:10000000704B00202D030008C1270008D1230008F1
:10001000E92500080F060008093300080000000069
:10002000000000000000000000000000690200085D
:10003000CD06000800000000C5020008A128000845
:100040004703000847030008470300084703000868
:100050004703000847030008470300084703000858
:100060004703000847030008470300084703000848
:10007000110600084703000847030008470300086B
:100080001D0600084703000847030008470300084F
:100090004703000847030008470300084703000818
:1000A0004703000847030008470300084703000808
:1000B00047030008470300084703000847030008F8
:1000C00047030008470300084703000847030008E8
:1000D0004703000847030008D5300008CD31000869
:1000E00047030008470300084703000847030008C8
:1000F0004703000889290008470300084703000850
:1001000047030008470300084703000847030008A7
:1001100047030008470300087D290008470300083B
:100120004703000847030008470300084703000887
:100130004703000847030008470300084703000877
:100140004703000847030008470300084703000867
:100150004703000847030008470300084703000857
:100160004703000847030008470300084703000847
:100170004703000847030008470300084703000837
:100180004703000847030008470300084703000827
:100190004703000847030008470300084703000817
:1001A0004703000847030008470300084703000807
:1001B00047030008470300084703000847030008F7
:1001C000470300084703000800F002F800F03CF87D
:1001D0000AA090E8000C82448344AAF10107DA45A2
:1001E00001D100F031F8AFF2090EBAE80F0013F0B8
:1001F000010F18BFFB1A43F001031847443D0000EC
:10020000643D0000103A24BF78C878C1FAD852077C
:1002100024BF30C830C144BF04680C607047000080
:100220000023002400250026103A28BF78C1FBD8FF
:10023000520728BF30C148BF0B6070471FB503F09D
:1002400055FE1FBD10B510BD00F0A8F91146FFF70F
:10025000F5FF03F06BF800F0C6F903B4FFF7F2FF07
:1002600003BC00F0CDF900002D4B19680868B0E818
:10027000F04F80F30988BFF36F8F4FF0000080F3D9
:10028000118870470000000008480068006880F38B
:1002900008884FF0000080F3148862B661B6BFF39F
:1002A0004F8FBFF36F8F00DF00BF00BF08ED00E08E
:1002B000DFF80C00016841F470010160704700BF75
:1002C00088ED00E0EFF30980BFF36F8F144B1A68DD
:1002D0001EF0100F08BF20ED108A20E9F04F1060CB
:1002E00009B44FF0500072B680F31188BFF34F8FFE
:1002F000BFF36F8F62B603F043FC4FF0000080F352
:10030000118809BC19680868B0E8F04F1EF0100F9A
:1003100008BFB0EC108A80F30988BFF36F8F704775
:1003200014000020EFF30580704700000948804763
:1003300009480047FEE7FEE7FEE7FEE7FEE7FEE7C7
:10034000FEE7FEE7FEE7FEE704480549054A064BDF
:10035000704700006D290008C901000870450020A1
:10036000704B0020704700207047002053EA020CB9
:1003700000F069802DE9F04B4FF00006002B1FBF05
:10038000B3FA83F503FA05F424FA05F65E4012BFCA
:100390001643B2FA82F502FA05F4C5F120051EBF34
:1003A00022FA05FC44EA0C04203556EA044C4FEAD4
:1003B000144418BF641C4FF000084FF0000990422D
:1003C00071EB030C39D3002919BFB1FA81F701FA97
:1003D00007F6B0FA80F700FA07F6C7F120071EBF4C
:1003E00020FA07FC46EA0C062037B6FBF4FCA7EB24
:1003F0000507103F07F01F0BCBF120060CFA0BFB93
:100400002CFA06F644BFB3460026202FA4BF5E4652
:100410004FF0000B5BEA060C08BF4FF0010B19EB25
:100420000B09ABFB027C48EB0608C01B06FB02CCA9
:100430000BFB03CC71EB0C01C1E70B4602464146B6
:100440004846BDE8F08B13B54FF000004FF00001B7
:10045000AFF30080BDE81C407047032A40F23080B3
:1004600010F0030C00F0158011F8013BBCF1020FF5
:10047000624498BF11F801CB00F8013B38BF11F876
:10048000013BA2F1040298BF00F801CB38BF00F88D
:10049000013B11F0030300F02580083AC0F008800A
:1004A00051F8043B083A51F804CBA0E80810F5E7EE
:1004B000121D5CBF51F8043B40F8043BAFF30080D1
:1004C000D20724BF11F8013B11F801CB48BF11F846
:1004D000012B24BF00F8013B00F801CB48BF00F816
:1004E000012B704710B5203AC0F00B80B1E81850CE
:1004F000203AA0E81850B1E81850A0E81850BFF40E
:10050000F5AF5FEA027C24BFB1E81850A0E81850AC
:1005100044BF18C918C0BDE810405FEA827C24BF00
:1005200051F8043B40F8043B08BF7047D20728BF8E
:1005300031F8023B48BF11F8012B28BF20F8023BDD
:1005400048BF00F8012B70474FF0000200B513467A
:1005500094469646203922BFA0E80C50A0E80C50E3
:10056000B1F12001BFF4F7AF090728BFA0E80C5094
:1005700048BF0CC05DF804EB890028BF40F8042B8D
:1005800008BF704748BF20F8022B11F0804F18BFFA
:1005900000F8012B7047704770477047754600F0B0
:1005A0002BF8AE4605006946534620F00700854605
:1005B00018B020B5FFF7C8FEBDE820404FF0000698
:1005C0004FF000074FF000084FF0000B21F007013B
:1005D000AC46ACE8C009ACE8C009ACE8C009ACE87E
:1005E000C0098D46704710B50446AFF30080204621
:1005F000BDE81040FFF731BE004870470C450020B1
:1006000001491820ABBEFEE7260002007047FEE756
:10061000014800F0EFB80000F0040020014800F0AD
:10062000E9B800009004002001681823CAB2103A0B
:10063000B2FBF3F2054B6FF30901032A9B5CC36520
:1006400000D9091D8165084670470000143F000865
:1006500010B583694FF0C074826A0146002053B11F
:10066000B3F5005F15D072B1012A0CD0022A0AD06E
:10067000032A09D104E01AB1012A06D0022A03D1C3
:10068000C96AC90100D5012010BDC96AA142FAD0CA
:1006900010BD002AF7D0012AF2D0022AF3D0032A93
:1006A000F3D010BD30B50468256825F48025256099
:1006B000046863608368402B036803D09960006816
:1006C000C26030BD9A600068C16030BD70470000F4
:1006D000054810B501F018FA03480068C16841F0F8
:1006E0000101C16010BD0000340300200248002158
:1006F00001800088704700009200002072B6FEE77B
:10070000DFED0A0A0B489FED072ADFED071AB0EE6E
:10071000601A9FED070A10B502F054F8BDE81040CA
:1007200001F058BE000016C3000016430000000090
:1007300066662640184300202DE9F041876D044687
:1007400000F0FCFA064694F835000025022806D091
:1007500080206065012084F83450BDE8F081206875
:10076000016821F0160101602068416921F08001D3
:100770004161206C08B9A06C20B12068016821F0AB
:10078000080101602068016821F0010101600CE0AE
:1007900000F0D4FA801B052807D9202161650320C9
:1007A00084F8350084F83450D7E720680068C00723
:1007B000EED194F85C203F2001219040B86084F88D
:1007C0003510002084F83450C7E790F8351002291E
:1007D00003D08021416501207047052180F8351044
:1007E0000068016821F00101016000207047406D40
:1007F000704700002DE9F84304464FF00009644BB0
:100800000820CDF800904FF41652A56D94F85C10B6
:100810001B682E68B3FBF2F700FA01F131420FD0EA
:1008200021680A6852070BD50A6822F004020A60A0
:1008300094F85C108840A860606D40F0010060652D
:1008400094F85C104FF0010808FA01F0304208D02B
:1008500021684969090604D5A860606D40F002006E
:10086000606594F85C1004208840304208D021680C
:100870000968890704D5A860606D40F004006065D0
:1008800094F85C1010208840304218D02168096824
:10089000090714D5A86020680168490304D50068D9
:1008A000000308D5A16C07E00168C90503D40168FD
:1008B00021F008010160216C09B12046884794F8B5
:1008C0005C1020208840304231D021680968C90678
:1008D0002DD5A86094F8350005282068016806D059
:1008E000490347D5006800031DD4616C1CE021F06A
:1008F000160101602068416921F080014161206C8E
:1009000008B9A06C20B12068016821F008010160DD
:1009100094F85C303F229A40AA6084F8358084F8CD
:100920003490216D1FE0E16B09B120468847606D6E
:1009300000282BD0606DC00714D0052084F8350046
:100940002068016821F0010101600098401C0090BE
:10095000B84203D820680068C007F6D184F8358013
:1009600084F83490E16C002910D001B02046BDE835
:10097000F04308470168C905D5D4036823F0100384
:10098000036084F8358084F83490CCE7BDE8F883C0
:10099000100000202DE9F047044600F0CFF906468C
:1009A0005CB10025022084F8350084F834502068BA
:1009B000016821F0010101600DE00120BDE8F08730
:1009C00000F0BCF9801B052805D9202161650320B2
:1009D00084F83500F2E720680068C007F0D1D4E958
:1009E0000010D4E90232D4E9046C1843D4F818801A
:1009F00004F11C038946324309681043C8CB1D4AE1
:100A000040EA0C0040EA0800114040EA030040EAD6
:100A10000600042F40EA010003D1D4E90B12114370
:100A20000843C9F800002068666A4069042E20F077
:100A3000070046EA00060CD1D4E90A01064341B199
:100A40002046FFF705FE20B14020606584F8355050
:100A5000B3E7206846612046FFF7E6FD94F85C3076
:100A60003F21012299408160656584F8352000208E
:100A7000A4E700003F8010F02DE9F041044690F813
:100A8000340000250128A66D0ED094F835C001274A
:100A9000002084F83470BCF1010F07D0022584F8DF
:100AA00034002846BDE8F0810220FBE7022784F8E5
:100AB000357060652046FFF7F5FD94F85C103F2027
:100AC0008840B0602068016841F01601016020682C
:100AD000416941F080014161206C20B120680168CA
:100AE00041F0080101602068016841F001010160E6
:100AF000D7E700002DE9F84FDFF80CB201240325F9
:100B00004FF00F0A00220BF1040E00BF0B6804FA2D
:100B100002F63340B34278D10F7907F00307012F73
:100B200001D0022F1AD187684FEA4209D1F80CC0D0
:100B300005FA09F827EA08070CFA09FC4CEA070C41
:100B4000C0F808C0476891F804C0B743CCF3001C54
:100B50000CFA02FC4CEA070CC0F804C00E79F6430C
:100B6000B6070BD0C6684FEA420C8F6805FA0CF83E
:100B700026EA080607FA0CF73743C7600E7906F035
:100B80000306022E12D1D6084FEA427800EB860601
:100B900000960F69D6F820904FEAD8660AFA06FC4C
:100BA000B74029EA0C063743009E37620F79066882
:100BB0004FEA420C07F0030705FA0CF807FA0CF7A6
:100BC00026EA0806374307604E6816F4403F1CD0FB
:100BD0004E4E376847F480473760366822F0030886
:100BE000970706F480460096494E3F0F4644B146AB
:100BF000D6F80868DFF81C810AFA07FC404526EAA7
:100C00000C0603D14FF0000C41E076E0DFF808C19C
:100C1000604502D14FF0010C39E0DFF800C16045BA
:100C200002D14FF0020C32E0DFF8F4C0604502D18F
:100C30004FF0030C2BE0DFF8ECC0604502D14FF021
:100C4000040C24E0DFF8E0C0604502D14FF0050C51
:100C50001DE0DFF8D8C0604502D14FF0060C16E069
:100C6000DFF8CCC0604502D14FF0070C0FE0DFF891
:100C7000C4C0604502D14FF0080C08E0DFF8B8C0EE
:100C8000604502D14FF0090C01E04FF00A0C0CFA5C
:100C900007FC4CEA060CC9F808C84F68DBF800608E
:100CA000FF0226EA030600D51E437746CBF8006014
:100CB000D1F804C0DEF800605FEA8C2C26EA030657
:100CC00000D51E43DFF840C03E60ACF1040C4F6815
:100CD000DCF80060BF0326EA030600D51E430A4F76
:100CE000CCF80060083FD1F804C03E685FEACC3C15
:100CF00026EA030600D51E433E60521C102AFFF46C
:100D000005AFBDE8F88F0000083C014044380240C0
:100D10000030014000000240000402400008024090
:100D2000000C024000100240001402400018024073
:100D3000001C02400020024000240240014880685C
:100D400070470000040000200248816802781144C6
:100D50008160704704000020032010B500F09EF869
:100D60000F2000F005F800F04FF8002010BD000043
:100D700030B505461F4887B0016841F480710160B5
:100D8000006806A900F48070009001A800F0E4FB60
:100D90000498B0B100F000FC4000174A0021174B46
:100DA000B0FBF2F2164840F2E7340360C0E90341B9
:100DB000521EC0E90121816100F056FE040003D0FB
:100DC00015E000F0E9FBE8E70D4800F0DDFE040067
:100DD0000DD12D2000F034F8102D07D20022294625
:100DE0002D2000F03BF80748056000E0012407B023
:100DF000204630BD4038024040420F0000200040F5
:100E000050050020080000200C4882B0016841F025
:100E100080510160006800F0805000900748001D7C
:100E2000016841F480410160006800220F2100F454
:100E300080400090901E02B000F010B84038024090
:100E4000002809DB410900F01F028900012001F19F
:100E5000E0219040C1F80001704700000E4BF0B453
:100E60001B680D46C3F30223C3F10706042E00D905
:100E70000426191D072901D2002300E0DB1E0124EE
:100E800004FA06F19C40491E2940641E9940144012
:100E90002143F0BC02F039BA0CED00E0064900F045
:100EA000070210B54FF6FF040868044B204040EAE3
:100EB00002201843086010BD0CED00E00000FA05A8
:100EC0001848F8B5016841F0805101600068164C7F
:100ED00000F080500090206840F480302060FFF7E0
:100EE0002DFF4FF47A76054605E000BFFFF726FF99
:100EF000401BB0420FD86068C003F7D5206840F4AB
:100F000000302060FFF71AFF054606E0FFF716FFE6
:100F1000401BB04201D90320F8BD60688003F5D5BD
:100F20000020F8BD40380240007000402DE9F84F25
:100F300004460078DFF824944FF000063746C007D7
:100F40000ED0D9F8001021F40001C9F80010D9F82A
:100F50000010626B1143C9F80010606B00B90126E4
:100F6000FE4D2068843500030ED5E16B286820F41F
:100F7000401008432860E06BB0F5801F01D010B12D
:100F800002E0012600E0012720684FF4800BC00238
:100F90000CD5216C286820F4400008432860206CA0
:100FA000584501D1012601E000B901272068C1019F
:100FB00000D50126800666D5E8483830016841F042
:100FC000805101600068DFF898A300F08050009025
:100FD000DAF8001041F48071CAF80010FFF7AEFE95
:100FE000804605E0FFF7AAFEA0EB080064287DD844
:100FF000DAF80000C005F5D5DFF8608308F168086D
:10100000D8F8000010F440702AD0218E01F440710D
:10101000814225D0D8F80010D8F8002021F4407182
:1010200042F48032C8F80020D8F8002022F4803240
:10103000C8F80020C8F80010D8F80000C0070FD08A
:10104000FFF77CFE824607E0FFF778FEA0EB0A017F
:1010500041F288308142CAD8D8F800008007F3D521
:10106000206BC0F3012103297ED0D9F8001021F4B0
:10107000F811C9F80010228ED8F80010C2F30B0244
:101080001143C8F800102078C00607D5286820F062
:10109000807028602868A16B084328602188AF48C9
:1010A0008830490405D5626E016821F4403111434E
:1010B00001602188090405D5A26E016821F4402150
:1010C000114301602168C90305D5E26E016821F46E
:1010D0004011114301602168890305D5226F016821
:1010E00021F4400111430160217800E016E1490636
:1010F00005D5626C016821F003011143016021787C
:10110000090605D5A26C016821F00C0111430160AC
:101110002188C90505D5E26C016821F03001114331
:1011200001602188890505D5226D016821F0C00183
:10113000114301602188490505D5626D016821F4DC
:101140004071114301602188090505D5A26D016830
:1011500021F44061114301602188C90407D5E26D83
:10116000016821F4405100E04AE011430160218808
:10117000890405D5226E016821F4404111430160C4
:101180002168490205D5A26F016821F080611143F1
:10119000016021684FF0006A890209D5E26F016899
:1011A00021F0006111430160E16F514500D1012739
:1011B00021680A0700D50127490305D5626F016838
:1011C00021F04071114301602168090206D5D4F86D
:1011D0008020016821F0805111430160DFF8849183
:1011E000012E02D0206880017ED5D9F800004E463D
:1011F00020F08060C9F80000FFF7A0FD80460FE0F6
:10120000594AD9F80030104023F4F8120243C9F8C3
:10121000002030E7FFF792FDA0EB080064287DD89E
:1012200030680001F6D421784C487C30C90712D0D0
:10123000616B81B9237A62680168D0F800C09201BD
:10124000C1F3014142EA0142CCF3036142EA016188
:1012500041EA0371016021680A0303D5E26BB2F52C
:10126000801F04D0C9021AD5216C594517D1636873
:10127000016894F80CC002689B01C1F3014143EA84
:101280000141C2F3027241EA0C6141EA027101605C
:101290002968626A21F01F01521E114329602168EA
:1012A000C90110D5238A62680168D0F800C0920194
:1012B000C1F3036142EA034242EA0162CCF30271E4
:1012C00042EA01710160216889010CD56168228AB6
:1012D000237B94F808C0890141EA024141EA036195
:1012E00041EA0C71016000E011E03168B04641F064
:1012F00080613160FFF722FD064604E0FFF71EFD26
:10130000801B64280AD8D8F800000001F6D56FB316
:10131000D9F800004E4620F0805000E07BE0C9F88C
:101320000000FFF70BFD074605E000BFFFF706FDD5
:10133000C01B64286FD83068C0438000F6D50748CA
:10134000216880300A0301D5E26B1AB1C90225D5A4
:10135000216C19BB63690168277E08E008380240E8
:101360000070004000380240FFFCFF0F5AE00268A6
:10137000C1F301419B0143EA0143C2F3027143EA15
:10138000076242EA0171016029686FF0FF03A26AF7
:1013900021F4F85103EB02221143296021688902EC
:1013A00012D5E16F51450FD1238C6269016807683E
:1013B0009201C1F3036142EA034242EA0162C7F3C8
:1013C000027142EA017101602178090716D561694D
:1013D0000268D0F800C08B01277FC2F30362CCF310
:1013E000014143EA014141EA026141EA07710160BA
:1013F0002868E16A20F4403008432860306840F0F3
:1014000080503060FFF79AFC044607E0FFF796FC37
:10141000001B642802D90320BDE8F88F3068C04360
:101420008000F3D40020F7E72DE9F04705000F46D0
:1014300063D0444E306800F00F00B84209D23068E3
:1014400020F00F0038433060306800F00F00B842E1
:1014500053D128683C4C810712D5400703D520683A
:1014600040F4E05020602878000703D5206840F45D
:1014700060402060A968206820F0F00008432060E8
:101480002878C0072AD0304968680839012810D068
:101490000968022810D0890700292EDA216821F076
:1014A000030101432160FFF749FC804641F288397E
:1014B0000DE009688903EFE78901EDE7FFF73EFCDE
:1014C000A0EB0801494502D90320BDE8F087686810
:1014D000216801F00C01B1EB800FEFD1306800F012
:1014E0000F00B8420BD9306820F00F00384330604D
:1014F000306800F00F00B84201D00120E5E72878FD
:10150000400705D5E968206820F4E05008432060D2
:101510002878000706D52869216821F4604141EA4E
:10152000C000206000F058F82168084AC1F3031198
:10153000515CC8400649086006480068FFF718FC7F
:101540000020C2E7003C0240083802401C3F00086F
:1015500010000020080000200D4A0F2330B5036062
:101560004FF4E0540B4B156805F003054560156812
:1015700005F0F0058560156805F4E055C560126852
:1015800004EAD2020261186800F00F00086030BD62
:1015900008380240003C02400449054809680068D8
:1015A000044AC1F38221515CC840704708380240A8
:1015B000100000202C3F0008044905480968006815
:1015C000044AC1F34231515CC840704708380240B8
:1015D000100000202C3F0008154910B51548096877
:1015E00011F00C0213D04110042A0FD0082A0ED19A
:1015F0000F4C241F2268236802F03F025B0207D5CC
:101600002068C0F38810A0FB010106E0084610BD69
:101610002168C1F38811A1FB00010023FEF7A6FE9B
:101620002168C1F30141491C4900B0FBF1F010BD34
:10163000083802400024F4002DE9F84F04004FF070
:1016400000076ED02078DFF868A3AAF10408C0076D
:10165000A8F104054CD0DAF800105046C1F381011E
:10166000012908D00068C0F3810002280AD1D8F807
:101670000000400206D52868800339D5606800283C
:10168000DFD035E06068B0F5803F0BD010B1B0F529
:10169000A02F11D0286820F480302860286820F41A
:1016A000802002E0286840F480302860606890B1B3
:1016B000FFF744FB06460AE0286840F480202860D3
:1016C000F0E700BFFFF73AFB801B642872D8286858
:1016D0008003F7D50CE0FFF731FB064605E000BFBD
:1016E000FFF72CFB801B6428F0D828688003F7D410
:1016F0002078800742D5DAF80010504611F00C0F20
:1017000008D00068C0F3810002280BD1D8F800008F
:10171000400207D42868800718D5E068012800D166
:1017200014E041E1E0680028286817D040F001008B
:101730002860FFF703FB064605E000BFFFF7FEFA4F
:10174000801B0228C2D828688007F7D5206929683D
:1017500021F0F80141EAC00028600FE020F001000C
:101760002860FFF7EBFA064605E000BFFFF7E6FA50
:10177000801B02281ED828688007F7D4207800072D
:1017800029D58B4861696C3000298146016812D0E7
:1017900041F001010160FFF7D1FA064605E000BF04
:1017A000FFF7CCFA801B022804D8D9F80000800784
:1017B000F6D510E089E021F001010160FFF7BEFAE3
:1017C000064604E0FFF7BAFA801B02287DD8D9F854
:1017D00000008007F6D4207840076BD5DFF8D09161
:1017E00009F13809D9F80000C0000BD4D9F800106D
:1017F00041F08051C9F80010D9F80000012700F02D
:10180000805000906B480168C90512D40168834676
:1018100041F480710160FFF791FA064605E000BFD0
:10182000FFF78CFA801B64284FD8DBF80000C00556
:10183000F6D55F4EA068683601280AD008B10528A1
:1018400011D0306820F001003060306820F00400D2
:1018500002E0306840F001003060A068A0B1FFF7FE
:101860006DFA83460CE0306840F004003060F0E729
:10187000FFF764FAA0EB0B0141F28830814266D891
:1018800030688007F4D50EE0FFF758FA834607E08A
:10189000FFF754FAA0EB0B0141F28830814256D891
:1018A00030688007F4D42FB1D9F8001021F08051AE
:1018B000C9F80010A069C8B3DAF80010C1F38101BB
:1018C00002294BD00228286800E040E020F0807018
:1018D000286003D0FFF732FA04463BE0FFF72EFA08
:1018E000064604E0FFF72AFA801B02282FD8286852
:1018F0008001F7D4D4E90962D4E907012E4B5708D7
:1019000094F82C20084303EB074343EA861108436D
:1019100040EA026040F00050C8F80000286840F03B
:1019200080702860FFF70AFA044606E03EE000BF38
:10193000FFF704FA001B022809D828688001F7D5B0
:1019400034E000BFFFF7FAF9001B022802D9032098
:10195000BDE8F88F28688001F4D427E00128D8F882
:10196000000021D0E16900F480028A421CD1216A82
:1019700000F03F028A4217D1626A47F6C071014007
:10198000B1EB821F10D1A16A4FF0FF3200F4403357
:1019900002EB5101B3EB014F06D194F82C1000F08B
:1019A0007060B0EB016F01D00120D1E70020CFE7DC
:1019B00008380240007000400000FFFF7047704789
:1019C00070470000F0B590F83C20012A3BD01F4E34
:1019D000012480F83C40022280F83D2002681C4D22
:1019E0005368B242D2F808C001D0AA4203D14F686E
:1019F00023F470033B430F6823F070031F435760C9
:101A00000268B24213D0B2F1804F10D0114B9A420B
:101A10000DD0114B9A420AD0104B9A4207D0AA42DD
:101A200005D00F4B9A4202D00E4B9A4204D18968DE
:101A30002CF0800319439160002180F83D4080F82C
:101A40003C100846F0BD0220F0BD0000000001403F
:101A5000000401400004004000080040000C004069
:101A6000004001400018004010B5040003D094F875
:101A70003D0010B107E0012010BD002084F83C00BB
:101A8000204600F023F8022084F83D002068211D44
:101A900000F080FF012084F8480084F83E0084F8BC
:101AA0003F0084F8400084F8410084F8420084F844
:101AB000430084F8440084F8450084F8460084F824
:101AC000470084F83D00002010BD000008B5006804
:101AD0000B49884212D10B48016841F010010160A6
:101AE00000680022012100F0100000903620FFF76E
:101AF000B5F9BDE808403620FFF7A2B908BD0000DF
:101B0000001000404038024090F83D10012901D0FB
:101B100001207047144B0222016880F83D20994251
:101B200014D0B1F1804F11D0104881420ED010482E
:101B300081420BD00F48814208D00F48814205D026
:101B40000E48814202D00E48814207D188680D4A72
:101B50001040062806D0B0F5803F03D0086840F05A
:101B600001000860002070470000014000040040B0
:101B700000080040000C004000040140004001400B
:101B8000001800400700010090F83D10012901D025
:101B900001207047174A022180F83D100168CB6888
:101BA00043F00103CB600068904214D0B0F1804F45
:101BB00011D0114988420ED0104988420BD01049EB
:101BC000884208D00F49884205D00F49884202D088
:101BD0000E49884207D181680D4A1140062906D076
:101BE000B1F5803F03D0016841F0010101600020A0
:101BF0007047000000000140000400400008004061
:101C0000000C00400004014000400140001800406A
:101C10000700010070472DE9F041044600680027E5
:101C2000C6680569A90713D5B10711D5FA1E026167
:101C300001212177206880698007204602D0FFF7C4
:101C4000E9FF04E000F08BF8204600F089F82777E0
:101C5000680716D5700714D5226802206FF00401BA
:101C6000116120772068806910F4407F204602D0FF
:101C7000FFF7D0FF04E000F072F8204600F070F8A3
:101C80002777280715D5300713D5226804206FF071
:101C90000801116120772068C0698007204602D0C2
:101CA000FFF7B8FF04E000F05AF8204600F058F8BB
:101CB0002777E80616D5F00614D5226808206FF0BD
:101CC0001001116120772068C06910F4407F204620
:101CD00002D0FFF79FFF04E000F041F8204600F03B
:101CE0003FF82777E80708D0F00706D021686FF0A3
:101CF00001000861204600F035F8280601D4A80448
:101D000008D5300606D521686FF4025008612046D8
:101D1000FFF755FEE80508D5300606D521686FF4B3
:101D2000807008612046FFF749FE680608D57006F6
:101D300006D521686FF040000861204600F02AF8BF
:101D4000A8060AD5B00608D521686FF02000086102
:101D50002046BDE8F041FFF733BEBDE8F081704793
:101D60007047000010B5084904460068884201D158
:101D7000FEF7EAFF05492068884203D1044801883C
:101D8000491C018010BD00000020004000100040F0
:101D900092000020704710B50446D0F8800020283B
:101DA00001D0022010BD61B15AB101232366002089
:101DB0006066204601F0F4F80028F3D1216E012975
:101DC00001D0012010BD226810211162226852E862
:101DD000001F41F0100142E80013002BF6D110BDA6
:101DE00000680349884201D100F0DABC7047000066
:101DF0000048004070B501680446C06F1025D4F853
:101E000080608968090618D5212816D12068083015
:101E100050E8001F21F0800140E80012002AF5D1AF
:101E2000206F38B1FEF788FC20B1206FFEF7DFFC91
:101E3000202821D0204600F08EFF206880684006D0
:101E400018D5222E16D12068083050E8001F21F046
:101E5000400140E80012002AF5D1606F38B1FEF76A
:101E60006BFC20B1606FFEF7C2FC202804D0204636
:101E700000F04BFF002070BDC4F88450032070BDFB
:101E8000704700002DE9F04102680025044640F645
:101E90000F070226D06911689368384205D183067E
:101EA0007ED58B067CD5A16E24E1DFF878C203F0E5
:101EB000010701EA0C0C57EA0C0C71D05FEAC07CF8
:101EC0000CD05FEAC15C09D54FF0010CC2F820C00C
:101ED000D4F8842042F00102C4F88420820709D596
:101EE000DA0707D022681662D4F8842042F0040290
:101EF000C4F8842042070AD5DA0708D023680422F0
:101F00001A62D4F8842042F00202C4F88420020746
:101F10000CD501F020023A4308D0236808221A6247
:101F2000D4F8842042F00802C4F8842002050BD5BE
:101F30004A0109D523684FF400621A62D4F884205C
:101F400042F02002C4F88420D4F88420002A36D03D
:101F5000800605D5880603D5A16E09B120468847BD
:101F60002168D4F884008968490602D410F0280F4B
:101F700027D0204600F0C9FE2068806840061BD5A7
:101F80002068083050E8001F21F0400140E80012AE
:101F9000002AF5D1606F78B163490165606F00E098
:101FA00015E0FEF712FC002809D0606F016D00E01B
:101FB0002046BDE8F04108472046FFF761FFBDE835
:101FC000F0812046FFF75CFFC4F88450F7E7276EE6
:101FD0002023012F7ED1C7067CD5CF067AD51020CD
:101FE00010622068806840064FD5626FDF0010687D
:101FF00040680004000C3CD0B4F85810814238D935
:10200000A4F85A00D069B8422BD0216851E8000FDB
:1020100020F4807041E80002002AF6D120680830E0
:1020200050E8001F21F0010140E80012002AF5D11C
:102030002068083050E8001F21F0400140E80012FD
:10204000002AF5D1C4F880302566216851E8000FD8
:1020500020F0100041E80002002AF6D1606FFEF780
:102060006BFB6666B4F85800B4F85A10401A81B297
:1020700007E0B4F858108142A1D1D069B8429ED18E
:1020800066662046FFF7ACFE99E7B4F85800B4F84E
:102090005A10B4F85A20401A81B2002A8FD0002971
:1020A0008DD0226852E8000F20F4907042E80007BB
:1020B000002FF6D1206800F1080050E8002F22F030
:1020C000010240E80027002FF4D1C4F880302566D3
:1020D000A56600E009E0206850E8002F22F0100219
:1020E00040E80023002BF4D1CAE7020606D50A0611
:1020F00004D5E16E00297FF45BAF60E74006C3D5ED
:102100004806C1D52046016851E8002F22F0400260
:1021100041E80024002CF6D1C367C56600F056F9EB
:102120004DE70000200100048B2B000810B50400CF
:1021300002D0E06F10B107E0012010BD002084F84C
:102140007800204600F026F82420E0672068016827
:1021500021F001010160606A10B1204600F084FCAA
:10216000204600F005FE0128E7D02068416821F4F0
:10217000904141602068816821F02A0181602068D7
:10218000016841F0010101602046BDE8104000F007
:10219000CFBC00002DE9F04FA7B00646142121A8BE
:1021A000FEF7D2F984216846FEF7CEF94D4F0024A0
:1021B0004D494FF480783068103F4A4D4FF0020986
:1021C00088424FF0030A4FF0070B40D18020129451
:1021D00000906846FEF7AAFE08B1FEF78FFA28685D
:1021E00040F400302860286800F4003026903868F9
:1021F00040F0080038603868602321A900F008002A
:10220000CDE925B0CDE921393848CDE9234AFEF79B
:1022100071FC374D4FF00060364B41142B60C5E91F
:102220000104C5E903416C612846C5E906482C62F2
:102230006C62FEF7AFFB08B1FEF760FA756700222B
:102240000521AE632620FEF709FE262045E02A4937
:10225000884244D16846CDF800801394FEF766FEAC
:1022600008B1FEF74BFA286840F4802028602868FF
:1022700000F480202690386840F004003860386808
:102280004FF4406321A900F00400CDE925B0CDE969
:1022900021391A48CDE9234AFEF72CFC144D4FF0A2
:1022A0000060144A60354114603A2A60C5E90104AF
:1022B000C5E903416C612846AC61EC612C626C623B
:1022C000FEF768FB08B1FEF719FA756700220521D1
:1022D000AE632720FEF7C2FD2720FEF7B1FD27B031
:1022E000BDE8F08F4038024000440040000C02403E
:1022F000900400208860024000480040000802402E
:1023000030B4D0F88030202B02D0022030BC70478F
:1023100091B18AB10023036603685B681B0208D58C
:10232000046854E8003F43F0806344E80035002D22
:10233000F6D130BC00F034BE0120E7E770477047AB
:1023400070B50446C06F202801D0022070BD29B3AB
:1023500022B3206F0023E1642125A4F85020A4F8C3
:102360005220C4F88430E567D0B11549C163216FAC
:1023700014480864216F1448C864206F036513462D
:102380002068256F00F12802E16C2846FEF774FBF7
:1023900030B11021C4F884102020E067012070BD06
:1023A0002168402008622068083050E8001F41F092
:1023B000800140E80012002AF5D1002070BD000025
:1023C000C12C0008012D00089B2B000870477047A6
:1023D000FEE700000D4A002110B50B4C082051808B
:1023E000102122681062206801628022084920467C
:1023F000FFF786FF08B1FEF781F92068016841F018
:102400001001016010BD0000800300207400002056
:10241000984200202DED028BFEF75AF9FEF770F975
:1024200000F028F99FED068AB2EE041AB0EE480AD1
:10243000F0EE400A00F09CF9C82001F0E1FAF3E761
:1024400000000000064906201CB500234FF48072EE
:10245000CDE90001064803A101F022FC1CBD0000EB
:10246000DC000020496E69745F5461736B000000EA
:10247000152400080D4808B5016841F400110160F9
:1024800000680022052100F4001000900C20FEF7E7
:10249000E5FC0C20FEF7D4FC002205211020FEF7FD
:1024A000DDFCBDE808401020FEF7CABC3038024011
:1024B00000B587B007491C226846FEF713F80021D3
:1024C000684600F059FF0449086000F0D1F907B0F0
:1024D00000BD0000F83E000800000020114808B5CB
:1024E000016841F080010160016801F08001009104
:1024F000016841F001010160016801F001010091F2
:10250000016841F004010160016801F004010091DB
:10251000016841F008010160006800F008000090C7
:1025200008BD0000303802403EB510480024632248
:1025300040F28333009480210194029481610A4D1A
:10254000C0E90242C0E90053FFF78EFA08B1FEF776
:10255000D5F80648694600940294FFF733FA00283C
:1025600001D0FEF7CBF83EBD001000403403002040
:102570000D48002110B50B4C0C224FF4E1330460E0
:10258000C0E90131C160C0E904128161C161016229
:102590004162FFF7CBFD002803D0BDE81040FEF7F5
:1025A000ADB810BD00440040800300200D4800215C
:1025B00010B50B4C0C224FF4E1330460C0E901313B
:1025C000C160C0E904128161C16101624162FFF72B
:1025D000ADFD002803D0BDE81040FEF78FB810BD58
:1025E0000048004008040020FEE7000072B671EECB
:1025F000201A71EE600A0B4831EE801A71EEC01A93
:1026000030EEC02A80ED001A083030EE800AC0EDAE
:10261000001A083080ED002A083080ED000A62B60A
:1026200070470000B800002070B505460F48FFF75E
:10263000E1FB002819D172B60C48406FA0B10068C8
:102640004068C0F1800010F0FF040DD065B1084E65
:10265000224629463046FDF700FF62B62146304645
:10266000BDE8704000F0B8BD62B670BD080400203F
:102670000C440020174818499FED150A30B480ED2E
:10268000000A80ED010A80ED020A81ED000A01F1E5
:102690000802124D81ED010A82ED000A01F11003DA
:1026A00082ED010A83ED000A01F1180483ED010AAD
:1026B00084ED000A84ED010A2868016841F02001D8
:1026C000016004498022284630BC8039FFF763BB93
:1026D00000000000C4430020B800002008040020CF
:1026E000FFB522480024F6256B46C8266B274168B3
:1026F000009181680191016902912146C0680390AF
:102700004A1C012A12D0022A13D0032A16D0042A06
:1027100017D0002053F8211000280A704D7013DDE7
:102720008C704FEA102C81F803C016E0BDEEC02A71
:1027300001E0BDEEE02A12EE100AEBE7BDEEC12A81
:10274000F9E7BDEEE12AF6E740424FF0010C81F8CF
:1027500002C04FEA102E81F803E008714E718C71AF
:10276000CF71D1B20429CBD3FFBD0000940000206B
:1027700010B5FFF73BFF0948D0ED001A083890ED7F
:10278000001A0838D0ED000A083890ED000AFFF76B
:10279000A7FFBDE8104000F037B80000D0000020CF
:1027A000054810B5FFF740FFBDE810400249802200
:1027B0000248FFF7F0BA000044430020080400205C
:1027C000FEE700009FED093AC0ED061ADFED062A8C
:1027D00080ED052A80ED043AC0ED032AC0ED072AFA
:1027E00080EC030A70470000000000000000C842AF
:1027F000034989780844034900F07F00085C70476A
:1028000074000020984200201048082110B501F003
:102810001DF80420FDF76AFF0C4808210F3001F075
:1028200015F80420FDF762FF084808211E3001F06A
:102830000DF80420FDF75AFF044808212D3001F05F
:1028400005F8BDE810400420FDF750BFD04300203C
:10285000012000F085FDFBE710B501F053F8FFF70C
:10286000F1FD01F073F8BDE81040002001F0F0B870
:10287000064905201CB500234FF40072CDE9000184
:10288000064803A101F00CFA1CBD0000D80000208E
:1028900053746172745F7461736B0000592800088F
:1028A000502010B572B680F31188BFF34F8FBFF37D
:1028B0006F8F62B601F050FA18B104494FF08050A2
:1028C0000860002080F3118810BD000004ED00E0D6
:1028D00030B593B030216846FDF736FE14210CA8C0
:1028E000FDF732FE1F48016841F080510160006829
:1028F00000F0805011901C48016841F44041016093
:10290000006802240423089300F440401190012041
:10291000D82582050104CDE90642CDE909540B947E
:10292000CDE900016846FEF787FE08B172B6FEE702
:10293000FEF7C6FA08B172B6FEE70EAD00214FF4FD
:10294000A0524FF4805385E80E000F20CDE90C040F
:1029500007210CA8FEF768FD002801D072B6FEE73B
:1029600013B030BD4038024000700040024801689A
:1029700041F470010160704788ED00E00148FFF705
:102980004AB90000340300200148FFF744B90000B1
:1029900050050020F0B5294B4FF0804E284D0268BD
:1029A0009842284E284F294C09D0704507D0A8429C
:1029B00005D0B04203D0B84201D0A04205D1D1F831
:1029C00004C022F070024CEA020298421BD070450B
:1029D00019D0A84217D0B04215D0B84213D0A042A7
:1029E00011D01B4DA8420ED01A4DA8420BD01A4D43
:1029F000A84208D0194DA84205D0194DA84202D0CE
:102A0000184DA84203D1CD6822F440722A438E6843
:102A10004D6922F08002C6620E682A43984286629F
:102A200001D0A04201D1096901630368012143F08B
:102A30000403036041610260F0BD0000000001403A
:102A40000004004000080040000C00400004014069
:102A5000004001400044014000480140001800408F
:102A6000001C00400020004090F82410090706D503
:102A70000168436B4A6822F400421A434A6090F8A6
:102A80002410C90706D00168836A4A6822F400321C
:102A90001A434A6090F82410890706D50168C36A72
:102AA0004A6822F480321A434A6090F82410490799
:102AB00006D50168036B4A6822F480221A434A60F3
:102AC00090F82410C90606D50168836B8A6822F441
:102AD00080521A438A6090F82410890606D501684E
:102AE000C36B8A6822F400521A438A6090F824105B
:102AF000490611D50168036C4A6822F480121A4312
:102B00004A60016CB1F5801F06D10168436C4A68C8
:102B100022F4C0021A434A6090F82410090606D530
:102B20000168826C486820F40020104348607047B8
:102B3000F8B500260446C0F88460FEF7FFF80346A7
:102B4000206820250068000716D56FF07E400090B1
:102B500000222046290400F073FA68B1216851E888
:102B6000000F20F0800041E80002002AF6D1E5675E
:102B7000032084F87860F8BDE567C4F880502666C5
:102B80006666002084F87860F8BD10B5806B00217F
:102B9000A0F85A10FFF774F910BD70B5846B0025CA
:102BA0002168E06FD4F880608968090606D521287D
:102BB00004D1A4F85250204600F0CDF82068806877
:102BC000400606D5222E04D1A4F85A50204600F023
:102BD0009CF8D4F8840040F01000C4F8840020462B
:102BE000FFF74EF970BD70B5C36900220146806BD6
:102BF000B3F5807F2DD0A0F85A20036853E8004F2A
:102C000024F4807443E80045002DF6D103680833AE
:102C100053E8004F24F0010443E80045002DF5D1AE
:102C20000368083353E8004F24F0400443E80045AC
:102C3000002DF5D12023C0F88030036E012B08D180
:102C4000046854E8003F23F0100344E80035002DE9
:102C5000F6D14266036E012B02D0FFF76FFB70BD09
:102C6000A0F85A200968B0F85820496889B28A4209
:102C700001D9A0F85A10B0F85A10511A89B2FFF7CA
:102C8000AFF870BD10B50246806B01214166016E40
:102C9000012902D0FFF753FB10BDB0F858104B08C4
:102CA000A0F85A301268526892B2914201D3A0F84B
:102CB0005A20B0F85A20891A89B2FFF791F810BD4E
:102CC00010B5C169806BB1F5807F16D00021A0F8E6
:102CD00052100168083151E8002F22F0800241E8CB
:102CE0000023002BF5D1026852E8001F41F040019B
:102CF00042E80013002BF6D110BDFFF767FB10BDB3
:102D000010B5806BFFF763FB10BD016851E8002F21
:102D100022F4907241E80023002BF6D101680831BB
:102D200051E8002F22F0010241E80023002BF5D1E9
:102D3000016E012908D1026852E8001F21F010013C
:102D400042E80013002BF6D100212022C0F8802099
:102D5000016681667047026852E8001F21F0C001D9
:102D600042E80013002BF6D12021C1677047000014
:102D70002DE9F04104460368C2698168D4E9045032
:102D8000DFF8F0C17C4E29431F68002510437B4AC1
:102D9000014307EA0C070F431F604FF4004021680E
:102DA000E7684B6823F440533B434B602768A369B3
:102DB000216AD7F808C019432CF430630B43BB6079
:102DC0002168B1420AD1116811F0030152D00129E2
:102DD0007CD0022971D003296ED184E0684B9942DE
:102DE0000AD1116811F00C0167D0042965D00829B7
:102DF00075D00C2960D176E0624B99420AD11168F6
:102E000011F0300159D010296BD0202967D030291A
:102E100052D168E05C4B99420AD1116811F0C001AF
:102E20004BD040295DD0802959D0C02944D15AE0E7
:102E3000564B99420DD1116811F440713DD0B1F556
:102E4000807F4ED0B1F5007F49D0B1F5407F33D1BE
:102E500049E04F4B99420FD1116811F4406109D0FC
:102E6000B1F5806F3DD0B1F5006F38D0B1F5406F4E
:102E700022D138E0012120E0464B99420DD1116862
:102E800011F4405119D0B1F5805F2AD0B1F5005F3F
:102E900025D0B1F5405F0FD125E03F4B99420BD1D2
:102EA000116811F4404108D0B1F5804F19D081422A
:102EB00015D0B1F5404F16D01021E369374A4FF6CF
:102EC000EF7683422ED1092949D201E009E006E0DC
:102ED000DFE801F00B0E11451345454516000221B0
:102EE000EBE70421E9E70821E7E7FEF755FB06E0F9
:102EF000FEF762FB03E0104602E0FEF76DFB78B3DD
:102F00006168400000EB5100B0FBF1F0A0F110014E
:102F1000B14224D84FF6F0732168C0F34202184042
:102F2000104320E009291AD2DFE801F005080B1947
:102F30000D1919191000FEF72FFB06E0FEF73CFBF8
:102F400003E0104602E0FEF747FB48B1616800EB82
:102F50005100B0FBF1F0A0F11001B14201D90125FF
:102F600002E0216880B2C8600020A066E0662846C2
:102F7000BDE8F081F369FFEF001001409038024096
:102F80000044004000480040004C00400050004019
:102F90000014014000780040007C00400024F40050
:102FA00070B50446406F002322256165A4F85820BF
:102FB000C4F88430C4F88050D0B11E49C163616F39
:102FC0001D480864616F1D48C864606F036513463F
:102FD000656D2168606F2A462431FDF74DFD38B1DB
:102FE0001021C4F884102020C4F88000012070BD96
:102FF000206940B1216851E8000F40F4807041E839
:103000000002002AF6D12068083050E8001F41F085
:10301000010140E80012002AF5D12068083050E88C
:10302000001F41F0400140E80012002AF5D10020C5
:1030300070BD0000E72B0008852C00089B2B0008C2
:103040002DE9F047994617460D460446089E4FF075
:10305000000833E0701C31D0FDF770FEA0EB0900D2
:10306000B04218D8BEB120680168490726D5802D26
:1030700024D0402D22D0C169C94309070DD40825A9
:1030800005622046FFF741FEC4F88450012084F811
:103090007880BDE8F0870320FBE7C069C0430005E6
:1030A0000CD421684FF4006008622046FFF72DFE23
:1030B0002021C4F8841084F87880ECE72068C06987
:1030C00035EA000004D00020B842C3D00020E0E779
:1030D0000120F9E735482DE9F0410168CA69120776
:1030E00001D508220A620068C169C9065BD5304C67
:1030F000102101622F4800684068C0F1800085B24D
:1031000043E00020FFF774FB552843D10120FFF76F
:103110006FFB53283ED100273E46B0B2FFF768FB55
:10312000761C38440A2EC7B2F7DB0A20FFF760FB93
:10313000B8422FD10620FFF75BFB06460720FFF7BA
:1031400057FB46EA00201F4900B200EE100ADFEDEF
:103150001A2A9FED1A2AB8EEC00ADFED191A9FED60
:103160001A1AD1ED020A20EE220A20EE020A20EEFF
:10317000210A00EE810A81ED020A2078C043207006
:10318000A0780B3000F07F0060806088854204D317
:10319000281A05E0A078401CF4E7C0F18001481926
:1031A00080B20B28ADD2BDE8F08100008003002082
:1031B0007400002090040020000000380000344318
:1031C0006666663F8C420020CDCCCC3D0148FEF7C0
:1031D00059BE000008040020421830B512F8012C36
:1031E0006B2A62D1082960D103789FED440ADFED94
:1031F000440A4449012B01F124021CD0022B36D091
:10320000032B53D0042B50D1D0F8033001F13C04F0
:1032100085791BBA23F0FF032B4301EE103AB8EE79
:10322000C11A21EE000A80EE201A84ED011A80787E
:10323000012859D05EE0D0F8033084791BBA23F01E
:10324000FF03234301EE103AB8EEC11A21EE001A33
:1032500081EE200A82ED010A8078012803D1B1EEC7
:10326000400A82ED010A487840F001001CE0D0F8E5
:1032700003308479234A1BBA2C3223F0FF03234303
:1032800001EE103AB8EEC11A21EE001A81EE200AC2
:1032900082ED010A8078012803D1B1EE400A82ED67
:1032A000010A487840F00200487030BDD0F8033081
:1032B0008479144A1BBA343223F0FF03234301EE0E
:1032C000103AB8EEC11A21EE001A81EE200A82ED02
:1032D000010A8078012803D1B1EE400A82ED010A8B
:1032E000487840F00400DFE792ED010AB1EE400AB1
:1032F00084ED010A487840F00800D5E70000B443A7
:1033000000FF7F4794000020FEE7090700284FEAEE
:10331000116104DB00F1E02080F80014704700F038
:103320000F0000F1E02080F8141D7047FDF714FD38
:10333000FFF7CEFAFFF7D2F8FFF79CF8FFF718F97E
:10334000FFF734F9FFF7F0F8FFF7B2F800F00FF8E5
:10335000FEE7842801464FF0000000D0C81C7047EB
:1033600010B500B9012000F04BFB002010BD10B5D6
:1033700000F0C6FB002010BD7FB50D464169044634
:10338000B0F9080081B1A16971B1FFF7E2FFD4E99A
:1033900005122B468DE807002269D4E9001000F0E1
:1033A000ACFC039004B070BDFFF7D3FF03A92B461C
:1033B000CDE90001228AD4E9001092B200F070FC3D
:1033C000012801D00020EDE70398EBE72DE9F0415B
:1033D000184C0F46054666692068001D00F03EFA4D
:1033E00038B922680121A06992F82C2091408843C5
:1033F000A061681C07D137B12168BDE8F0410E48D3
:10340000091D00F072BA20683544B5424560216854
:1034100005D2A068091DBDE8F04100F04EBA606811
:10342000091D00F04AFA206B854200D22563BDE8F1
:10343000F081000014000020780600202DE9F04102
:10344000054600F05FFA2E4C2E4F2069401C20618B
:10345000206810B1E06940B32DE0256020690128A3
:1034600029D1002606EB860007EB800000F017FA52
:10347000761C072EF6D323488C3000F010FA214832
:10348000A03000F00CFA1F48B43000F008FA1D48D4
:10349000C83000F004FA1B48DC3000F000FA19488C
:1034A0008C3060601430A06005E0E86A2168C96A69
:1034B000814200D825600120E16A491CE162E96A85
:1034C000A26988401043A06101EB8100291D07EB30
:1034D000800000F00AFA00F039FAE06900280CD008
:1034E0002068E96AC06A884207D207494FF08050D5
:1034F0000860BFF34F8FBFF36F8FBDE8F08100000E
:10350000140000209C05002004ED00E010B50446E6
:1035100090F8510068B101280ED0022811D0502037
:1035200072B680F31188BFF34F8FBFF36F8F62B60F
:10353000FEE7206B00F020FA2046BDE8104000F0C6
:103540001BBA10BD11484FF4705110B5420706D098
:103550000E49C01D20F00700411AC1F570510C4CF6
:10356000002301440839A4F1100221F00701C4E945
:1035700000030C1A11604B600B60C0E900149460EA
:103580004FF000415460D16010BD00008C06002057
:1035900060000020144E4FF08058144CDFF850901B
:1035A000A6F1C80712E000BF00F0ACF9F068C568EA
:1035B000281D00F053F92069401E2061E068401E7C
:1035C000E06000F0C3F92846FFF7A0FFE06800289C
:1035D000EAD138680128F9D9C9F80080BFF34F8FC4
:1035E000BFF36F8FF2E70000640600201400002094
:1035F00004ED00E02DE9F0479A4681466FF00303A1
:10360000DDE9098403EB8202089E206B104420F060
:103610000707780709D0502072B680F31188BFF3EE
:103620004F8FBFF36F8F62B6FEE74FF0000561B1B9
:10363000002023180A5C83F834200A5C12B1401C75
:103640001028F6D384F8435001E084F83450072E54
:1036500000D30626E662201DC4E9116500F02AF9B0
:1036600004F1180000F026F9E564C6F10700A06136
:1036700084F850505246246149463846646200F04E
:10368000CDF8B8F1000F206001D0C8F80040BDE8C7
:10369000F087000030B5114900E011460A68824207
:1036A000FBD34B685C18844203D14468084623442A
:1036B0004B6043681D18954209D1084C103C2468A2
:1036C000A24209D052681A4442600A681268026035
:1036D000814200D0086030BD0460F9E7600000203E
:1036E00006484168096829B14168C968C9684968DC
:1036F000016370474FF0FF31FAE70000140000202B
:103700000A484068401C4FF0500072B680F31188A0
:1037100005D0BFF34F8FBFF36F8F62B6FEE7BFF3E5
:103720004F8FBFF36F8F62B6FEE700006800002086
:103730002DE9F0410027044600F01AFA364E3068B1
:1037400008B9FFF7FFFEF068044218D1BCB1083495
:10375000600710D004F00700C0F1080004446007BF
:1037600009D0502072B680F31188BFF34F8FBFF39A
:103770006F8F62B6FEE714B17068844202D900F020
:1037800051FB38E02448103001460D6801E028461E
:103790000D466968A14202D229680029F7D1316833
:1037A0008D42ECD007682968016008376868011B02
:1037B000102910D92819420709D0502072B680F379
:1037C0001188BFF34F8FBFF36F8F62B6FEE7416082
:1037D0006C60FFF75FFF69687068401A7060B268DC
:1037E000904200D2B0600020F2681143C5E90001A8
:1037F00000F018FB0FB900F051F8780709D05020FD
:1038000072B680F31188BFF34F8FBFF36F8F62B62C
:10381000FEE73846BDE8F0815000002070B5041F77
:10382000094E231F4FF0807521F0010125601C1FF8
:103830001960A0F120010B1F266044380A606FF068
:1038400002051D6070BD0000013700080A460146F0
:103850000148FEF775BD000008040020D0E90132E0
:1038600001699A60D0E901235A604A68824201D115
:1038700082684A60002202610868401E0860086889
:103880007047000010B5044C8023046004F154001C
:103890000860136010BD0000E000002070474FF08A
:1038A000FF3300F108010022C0E901130260C1608A
:1038B0000161704700210161704730B50B685A1CE7
:1038C00002D000F1080202E0026904E022465468D6
:1038D00025689D42FAD953684B6099608A605160AF
:1038E00008610168491C016030BD42684A60936804
:1038F0008B6093685960916008610168491C0160A0
:1039000070470000502072B680F31188BFF34F8FCC
:10391000BFF36F8F0B4962B64868401C48600128AE
:103920000ED10948006810F0FF0F09D0502072B680
:1039300080F31188BFF34F8FBFF36F8F62B6FEE73E
:10394000704700006800002004ED00E00949486865
:1039500028B1401E486001D180F311887047502083
:1039600072B680F31188BFF34F8FBFF36F8F62B6CB
:10397000FEE700006800002070B500282BD0164D2F
:10398000A0F108046068E968084209D1502072B6C5
:1039900080F31188BFF34F8FBFF36F8F62B6FEE7DE
:1039A00022684AB1502072B680F31188BFF34F8F5E
:1039B000BFF36F8F62B6FEE78843606000F0D8F80F
:1039C00060686968084468602046FFF763FEBDE8E8
:1039D000704000F027BA70BD500000204FF0E0208A
:1039E000002101614FF47A7281610723034909685C
:1039F000B1FBF2F1491E41610361704710000020E4
:103A0000020010B516D01048806B48B1502072B635
:103A100080F31188BFF34F8FBFF36F8F62B6FEE75D
:103A200000F0A6F800211046FFF7D0FC00F0FAF9EC
:103A3000002807D105494FF080500860BFF34F8F31
:103A4000BFF36F8F10BD00001400002004ED00E0F4
:103A500070B50546FFF756FF264C05B92568281DA9
:103A6000FFF7FCFE58B9E86A234A00EB800152F8E0
:103A7000211021B9A269012181408A43A261A86A6B
:103A800018B105F11800FFF7E9FEE06A401CE0629A
:103A90002068854208D11848291DC830FFF725FF46
:103AA000E068401CE06007E02069401E2061284675
:103AB000FFF72CFDFFF714FEFFF748FFE069002831
:103AC00016D02068854213D1A06B48B1502072B641
:103AD00080F31188BFF34F8FBFF36F8F62B6FEE79D
:103AE00006494FF080500860BFF34F8FBFF36F8FD0
:103AF00070BD0000140000209C05002004ED00E0D3
:103B000010B586B0002405AA04A9039403A8049460
:103B1000FFF7B8FEDDE9030100940023CDE90110B1
:103B200011480FA1059A00F0E8F8104900284863F1
:103B300013D0502072B680F31188BFF34F8FBFF3BC
:103B40006F8F62B601224FF0FF300863CA614C618B
:103B500006B0BDE8104000F043B806B010BD00004C
:103B600049444C4500000000953500081400002031
:103B70000248816B491C81637047000014000020DB
:103B80001548816B11B101214162704700214162EA
:103B900012498269B2FA82F2C2F11F0202EB82027A
:103BA00051F822306BB101EB820101F108034A6840
:103BB00052684A609A4201D152684A60D1680160F5
:103BC0007047502072B680F31188BFF34F8FBFF358
:103BD0006F8F62B6FEE70000140000209C050020F5
:103BE0002B49FF201CB50A780192087008788DF8DF
:103BF00000009DF800209DF8000002F0F0028242D3
:103C000009D0502072B680F31188BFF34F8FBFF3F5
:103C10006F8F62B6FEE79DF8002007201D4C02F072
:103C200050022270A06005E09DF8002052008DF83F
:103C30000020401E9DF800201206F5D40328A06045
:103C400009D0502072B680F31188BFF34F8FBFF3B5
:103C50006F8F62B6FEE74FF44070A0600198087065
:103C60000D48016841F470010160016841F0704144
:103C70000160FFF7B3FE00206060FCF719FB074806
:103C8000016841F040410160FCF7FEFA00201CBDD4
:103C900000E400E06800002020ED00E034EF00E0E8
:103CA0002DE9FF5F994616468A4683469000DDE976
:103CB0000E87FFF73DFD05001CD05420FFF738FDAF
:103CC000040014D00020256384F851004B46CDE950
:103CD0000087CDE90240324651465846FFF78AFC3C
:103CE0002046FFF7ABFB012004B0BDE8F09F28465B
:103CF000FFF742FE4FF0FF30F6E7F0B585B0DDE9A3
:103D00000B740A9DA7B1ECB154262763022684F8F0
:103D10005160002703970DF1100C0095CDE901C407
:103D2000FFF768FC2046FFF789FB049805B0F0BD5B
:103D3000502072B680F31188BFF34F8FBFF36F8F9F
:103D400062B6FEE7502072B680F31188BFF34F8F42
:103D5000BFF36F8F62B6FEE72DE9F0412F4CA06BE9
:103D6000002740B1206A401C2062606A00B1012730
:103D70003846BDE8F0816669761C666115D16068D9
:103D8000006848B1502072B680F31188BFF34F8F9E
:103D9000BFF36F8F62B6FEE76068A1686160A060E4
:103DA000A06A401CA062FFF79BFCDFF87480206BC8
:103DB000864209D36068006880B16068C068C568E1
:103DC000686886420DD220632068C06A00EB8001DB
:103DD00058F821000128C8D90127C6E74FF0FF3065
:103DE000F1E7281DFFF73AFDA86A18B105F11800A0
:103DF000FFF734FDE86A0121A26981401143A16106
:103E000000EB800108EB8100291DFFF76EFD2068A3
:103E1000E96AC06A8142CDD30127CBE714000020B4
:103E20009C0500202DE9F0472D4DA86B0024264667
:103E300038B1FFF767FDA86B401EA863A86B50B1AF
:103E400049E0502072B680F31188BFF34F8FBFF363
:103E50006F8F62B6FEE7234F01202969D9B3A7F11E
:103E6000B40980463868E8B1F868C46804F11800FD
:103E7000FFF7F4FC201DFFF7F1FCE16AAA6908FADC
:103E800001F01043A86101EB810109EB8100211DC4
:103E9000FFF72BFD2968E06AC96A8842E2D3C5F8BA
:103EA0002480DFE70CB1FFF71BFC2C6A44B14746C6
:103EB000FFF752FF00B16F62641EF9D10020286243
:103EC000686A40B1084901264FF080500860BFF38E
:103ED0004F8FBFF36F8FFFF739FD3046BDE8F08796
:103EE000140000205006002004ED00E04FF0407068
:103EF000E1EE100A70470000343F00085128000826
:103F00000000000000000000800000000000000031
:103F10000000000000061016000610160000000049
:103F20000000000001020304060708090000000069
:103F30000102030464656661756C745461736B00FF
:103F4000603F000800000020E000000004020008BC
:103F500040400008E0000020904A000020020008D5
:103F60000000000001000000100000000000000040
:103F70000024F40000000000000000000000000029
:103F80000000000000000000000000000000000031
:103F90000000000000000000000000000000000021
:103FA0000000000000000000000000000000000011
:103FB0000000000000000000000000000000000001
:103FC000000000000000000000000000AAAAAAAA49
:103FD0000000000000000000FFAA6988B5FFAA7673
:103FE0000000FFAA030B00FFAA040600FFAA0000BE
:103FF0000000000000000000D0430020DF4300204C
:10400000EE430020FD430020D0430020DF4300208A
:10401000EE430020FD4300200000000000000000EF
:104020000000000000000000000000000000000090
:104030000000000000000000000000000000000080
:04000005080001C925
:00000001FF
